:100000009EC00000BBC00000B9C00000B7C0000027
:10001000B5C00000B3C00000B1C00000AFC0000018
:10002000ADC00000ABC0000043C300000EC4000020
:10003000A5C00000A3C00000A1C000009FC0000038
:100040009DC000009BC0000099C0000097C0000048
:1000500095C0000093C0000091C000008FC0000058
:100060008DC000008BC0000089C0000087C0000068
:1000700085C0000083C0000081C000007FC0000078
:100080007DC000007BC0000079C0000077C0000088
:1000900075C0000073C000000D0A48574220686117
:1000A00073206265656E2070726573736564210DDF
:1000B0000A001C034C00550046004100200043008C
:1000C000440043002000440065006D006F00000004
:1000D00018034400650061006E00200043006100C9
:1000E0006D0065007200610000000403090409024C
:1000F0003E00020100C032090400000102020100BA
:100100000524001001042402060524060001070549
:1001100082030800FF09040100020A00000007052D
:1001200004021000050705830210000512011001EA
:1001300002000008EB03442001000102DC0111244D
:100140001FBECFEFD0E2DEBFCDBF11E0A0E0B1E037
:10015000E8E1F6E100E00BBF02C007900D92AA3380
:10016000B107D9F71BBE11E0AAE3B1E001C01D92AF
:10017000A536B107E1F785D00C940A0B41CF84B7BF
:10018000877F84BF88E10FB6F89480936000109257
:1001900060000FBE80E090E020E80FB6F894209356
:1001A0006100809361000FBE85B7806890E00FB654
:1001B000F89485BF0FBE85BF219A2998299A739814
:1001C0006B9A6C9A749A77986F9A57C22998089587
:1001D000299A08958EE091E0A7D5882311F090E048
:1001E00001C092E085B18D7F892B85B908958EE09D
:1001F00091E0EDC4CF93DF9388E491E061E070E09B
:1002000040E150E02AE331E0ADD6AC011816190602
:100210003CF488E491E061E070E02AE331E0DFD66D
:100220008CB182FD2BC000D000D0CAE3D1E0ADB7C5
:10023000BEB71296DC93CE93119788E990E014969E
:100240009C938E93139772D629B100D0EDB7FEB769
:100250003196ADB7BEB71296DC93CE93119780E07E
:1002600091E0938382832483158251D6EDB7FEB744
:1002700036960FB6F894FEBF0FBEEDBFDF91CF915B
:1002800008957DDF8EE091E06AE371E02CD67894EA
:10029000B1DF8EE091E0D1D57ED4FACF923029F053
:1002A000933041F09130E9F417C08EE390E0EEEE28
:1002B000F0E01BC0813041F0813018F0823089F4C9
:1002C00006C0EAEEF0E005C0E0EDF0E002C0E2EBCF
:1002D000F0E0849190E009C082E190E0ECE2F1E08E
:1002E00004C080E090E0E0E0F0E0DA011196FC93D9
:1002F000EE9308952091630130916401261737072A
:1003000020F4B901FC0120E037C061157105D1F777
:100310002091E8002E772093E800F4CF80915C01D3
:10032000882309F43FC08530C9F18091E80083FD3E
:1003300037C08091E80082FD2BC08091E80080FFEB
:100340001BC08091F2009091F30006C02191209390
:10035000F1006150704001966115710519F0883007
:100360009105A0F321E08830910509F020E080910B
:10037000E8008E778093E8006115710579F62223F5
:1003800069F606C080915C01882361F0853061F0D8
:100390008091E80082FFF6CF80E0089583E0089521
:1003A00081E0089582E0089583E00895209163013B
:1003B000309164012617370720F4B901FC0120E0D1
:1003C00038C061157105D1F72091E8002E77209390
:1003D000E800F4CF80915C01882309F440C08530A7
:1003E000D1F18091E80083FD38C08091E80082FD62
:1003F0002CC08091E80080FF1CC08091F200909199
:10040000F30007C024912093F100319661507040B1
:1004100001966115710519F08830910598F321E076
:100420008830910509F020E08091E8008E77809374
:10043000E8006115710571F6222361F606C080910E
:100440005C01882361F0853061F08091E80082FFD3
:10045000F6CF80E0089583E0089581E0089582E07A
:10046000089583E00895982F2AC09093E900981783
:1004700039F07091EC002091ED005091F00003C034
:10048000242F762F50E021FF19C03091EB003E7FE2
:100490003093EB003091ED003D7F3093ED003091D3
:1004A000EB0031603093EB007093EC002093ED0093
:1004B0005093F0002091EE0027FF08C09F5F973017
:1004C000A0F28F708093E90081E0089580E00895A4
:1004D0000F931F93CF93DF93162FEC0100E02AC0F8
:1004E0009881992329F16B81E981FA812C81892FE7
:1004F0008F70873018F56295660F660F607C991FC4
:100500009927991F692B223010F096E001C092E0E4
:1005100028E030E040E003C04F5F220F331F2E176A
:100520003F07D0F34295407F492B9DDF882331F070
:100530000F5F25960117A1F681E001C080E0DF91F1
:10054000CF911F910F91089580915D0187FF13C096
:1005500004C080915C018823B9F08091E80082FF9B
:10056000F8CF8091E8008B778093E8000895809120
:100570005C01882349F08091E80080FFF8CF8091EA
:10058000E8008E778093E80008958091E4009091D0
:10059000E50045E601C0C9012091EC0020FF23C021
:1005A0002091E80020FD15C020915C01222399F0E4
:1005B000253099F02091EB0025FD11C02091E40039
:1005C0003091E5002817390739F3415021F784E0CD
:1005D000089580E0089582E0089583E0089581E021
:1005E000089580E008952091E80022FFDDCFF9CF43
:1005F0000F931F93CF93DF934ED055D0C8EDD0E02B
:1006000088818F77888388818068888388818F7DBF
:100610008883E7EDF0E080818068808319BC1092C8
:100620005C011092580110925A011092590100EE8B
:1006300010E0F80180818B7F8083888181608883CE
:1006400080E060E042E00FDFE1EEF0E080818E7F4D
:100650008083E2EEF0E08081816080838081886029
:100660008083F80180818E7F808388818061888388
:10067000DF91CF911F910F910895E8EDF0E0808117
:100680008F7E8083E7EDF0E080818160808381E070
:1006900080935B01ADCFE8EDF0E080818C7F8083BB
:1006A0001092E20008951092DA001092E10008958D
:1006B0001F920F920FB60F920BB60F9211242F9329
:1006C0003F934F935F936F937F938F939F93AF93DA
:1006D000BF93EF93FF938091E10082FF0AC0809166
:1006E000E20082FF06C08091E1008B7F8093E100F1
:1006F00051D28091DA0080FF1DC08091D80080FF28
:1007000019C08091DA008E7F8093DA008091D90041
:1007100080FF0CC084E189BD86E189BD09B400FE7B
:10072000FDCF81E080935C0151DD04C019BC1092C3
:100730005C014EDD8091E10080FF18C08091E200F5
:1007400080FF14C08091E2008E7F8093E200809150
:10075000E20080618093E2008091D8008062809303
:10076000D80019BC85E080935C0114D28091E1002F
:1007700084FF2DC08091E20084FF29C084E189BDFF
:1007800086E189BD09B400FEFDCF8091D8008F7D40
:100790008093D8008091E1008F7E8093E10080916A
:1007A000E2008F7E8093E2008091E200816080937E
:1007B000E20080915801882321F48091E30087FFB3
:1007C00002C084E001C081E080935C01E3D18091AC
:1007D000E10083FF27C08091E20083FF23C0809166
:1007E000E100877F8093E10082E080935C011092BA
:1007F00058018091E1008E7F8093E1008091E200BA
:100800008E7F8093E2008091E20080618093E2001D
:1008100080E060E042E027DE8091F0008860809315
:10082000F000B8D1FF91EF91BF91AF919F918F915F
:100830007F916F915F914F913F912F910F900BBEE0
:100840000F900FBE0F901F9018951F920F920FB62A
:100850000F920BB60F9211242F933F934F935F93F8
:100860006F937F938F939F93AF93BF93CF93EF93A8
:10087000FF93C091E900CF708091EC001092E900E5
:100880008091F000877F8093F00078941DD01092C3
:10089000E9008091F00088608093F000C093E90047
:1008A000FF91EF91CF91BF91AF919F918F917F91E8
:1008B0006F915F914F913F912F910F900BBE0F90D1
:1008C0000FBE0F901F9018951F93CF93DF93CDB756
:1008D000DEB7AC970FB6F894DEBF0FBECDBF80E099
:1008E000EDE5F1E09091F10091938F5F8830D1F7C1
:1008F0007EDC8091E80083FF35C180915D0120910D
:100900005E01253009F484C0263040F42130A1F185
:10091000213070F0233009F025C12EC0283009F4B1
:10092000F3C0293009F402C1263009F01BC193C07D
:10093000803821F0823809F015C108C08091590132
:1009400090915A01992371F082600CC080916101ED
:100950008F708093E9009091EB0081E095FF80E03B
:100960001092E9009091E800977F9093E8008093BF
:10097000F1001092F100D3C0882319F0823009F001
:10098000F1C090E08F719070009729F0823091054E
:1009900009F0E8C00BC080915F01813009F0E2C02E
:1009A000233009F080E080935A012CC080915F01D0
:1009B000882341F5209161012F7009F4D3C0209361
:1009C000E9008091EB0080FF1DC080915E018330C3
:1009D00021F48091EB00806213C08091EB00806174
:1009E0008093EB0081E090E002C0880F991F2A9568
:1009F000E2F78093EA001092EA008091EB008860B1
:100A00008093EB001092E9008091E800877F8AC014
:100A1000882309F0A7C010915F011F778091E30040
:100A20008078812B8093E3008091E800877F80931A
:100A3000E8008ADD8091E80080FFFCCF8091E30030
:100A400080688093E300112311F083E001C082E00D
:100A500080935C0187C08058823008F083C0809109
:100A60005F019091600123E08C3D9207A9F583E03E
:100A70008C838AE28B835FB7F894DE01139680E063
:100A800090E04EE061E2E42FF0E060935700E491E3
:100A900080FF03C0E295EF704F5FEF702E2F30E0C4
:100AA000EA3018F0295C3F4F02C0205D3F4F13969B
:100AB0003C932E931297019612968431910519F763
:100AC0005FBF8091E800877F8093E800CE010396A6
:100AD0006AE270E00FDC12C060916101AE014F5F0D
:100AE0005F4FDCDBBC01009709F43CC08091E8005B
:100AF000877F8093E80089819A8158DC8091E800A3
:100B00008B778093E8002EC0803861F58091E800F3
:100B1000877F8093E800809158018093F100809155
:100B2000E8008E778093E8000FDD1CC08823D1F4A5
:100B300090915F019230B0F48091E800877F8093BC
:100B4000E8009093580100DD80915801882321F43A
:100B50008091E30087FF02C084E001C081E08093C0
:100B60005C0138DB8091E80083FF0AC08091E800D7
:100B7000877F8093E8008091EB0080628093EB0098
:100B8000AC960FB6F894DEBF0FBECDBFDF91CF910C
:100B90001F9108950895CF9380915C018823A9F057
:100BA0008091E9008F709091EC0090FF02C0C0E846
:100BB00001C0C0E0C82B1092E9008091E80083FFDB
:100BC00001C082DECF70C093E900CF910895CF932A
:100BD000DF93EC018091E80083FFA3C0888190E05F
:100BE00020916101309162012817390709F099C0FD
:100BF00080915E01813269F0823220F4803209F006
:100C000090C03CC0823209F46BC0833209F089C0C5
:100C10007AC080915D01813A09F083C08091E8003B
:100C2000877F8093E8008091E80080FFFCCF8C896B
:100C30009D89AE89BF898093F100492F5A2F6B2F70
:100C400077274093F100AD01662777274093F100A5
:100C50008B2F9927AA27BB278093F100888D80933B
:100C6000F100898D8093F1008A8D8093F10080914D
:100C7000E8008E778093E80067DC53C080915D01C7
:100C8000813209F04EC08091E800877F8093E800B0
:100C900005C080915C01882309F443C08091E8007D
:100CA00082FFF7CF3091F1002091F1009091F10097
:100CB0008091F1003C8B2D8B9E8B8F8B8091F1006E
:100CC000888F8091F100898F8091F1008A8F8091C7
:100CD000E8008B778093E80037DCCE0117D121C084
:100CE00080915D018132E9F48091E800877F8093F3
:100CF000E8002ADC80915F0190916001998B888BDC
:100D0000CE0104D10EC080915D01813251F48091F9
:100D1000E800877F8093E80017DCCE0160915F01D7
:100D2000F5D0DF91CF910895CF93DF93EC014096FA
:100D3000FC018BE0DF011D928A95E9F782E08C834C
:100D4000898783E08E87CE01019661E0C1DB88232D
:100D500059F0CE01069661E0BBDB882329F0CE0175
:100D60000B9661E0B5DB01C080E0DF91CF91089583
:100D7000CF93FC01C62F80915C018430E9F4448953
:100D80005589668977894115510561057105A1F07D
:100D900081818F708093E9008091E80085FD08C013
:100DA0008091E8008E778093E800EFDB882329F4B8
:100DB000C093F10080E001C082E0CF910895282F18
:100DC000FB0184859585622FD3DF882319F08FEF8F
:100DD0009FEF089580E090E00895FC0180915C0110
:100DE000843029F5448955896689778941155105EB
:100DF00061057105E1F081818F708093E900809138
:100E0000F2009091F3000097A1F09091E80080919A
:100E1000E8008E778093E80095FD0DC0B6DB88234F
:100E200059F49091E8009E779093E800089582E04D
:100E3000089580E0089580E0089520915C012430B9
:100E400099F4FC01448955896689778941155105D2
:100E50006105710549F021812F702093E9002091EF
:100E6000E80020FF01C0B9CF0895FC0180915C012A
:100E7000843051F544895589668977894115510532
:100E80006105710509F186818F708093E900809179
:100E9000E80082FF1CC08091F2009091F30000975F
:100EA00021F08091F10090E002C08FEF9FEF209140
:100EB000F2003091F3002115310559F42091E8003A
:100EC0002B772093E80008958FEF9FEF08958FEF21
:100ED0009FEF0895FC0184859585C7DF97FF02C0C9
:100EE0008EEF9FEF0895FB012EE0DB011D922A9506
:100EF000E9F723E023832FED36E0318720872AE6C8
:100F000037E0338722879587848708950895CF93A4
:100F1000DF93CDB7DEB7AE01475F5F4F8D819E8116
:100F20006F8178859DD0DF91CF9108950F931F93A6
:100F3000CF93DF93CDB7DEB70F811885AE01455F44
:100F40005F4FF801838188608383C80169857A8552
:100F500087D0F8012381277F2383DF91CF911F91D1
:100F60000F9108958F929F92AF92BF92CF92DF928E
:100F7000EF92FF920F931F93CF93DF934B015A0190
:100F80007901F901238120FF1AC06C01C0E0D0E093
:100F900012C0C70175D2FFEF8F3F9F0791F0F60196
:100FA00081936F010F5F1F4F02C000E010E0081532
:100FB000190579F72196CA15DB05B9F702C0C0E01B
:100FC000D0E0CE01DF91CF911F910F91FF90EF9074
:100FD000DF90CF90BF90AF909F908F9008958F92A9
:100FE0009F92AF92BF92CF92DF92EF92FF920F93B8
:100FF0001F93CF93DF934B015A016901F9012381BC
:1010000021FF1EC0DC01C0E0D0E013C00F5F1F4F06
:10101000F601208531858C91B601F901099500977B
:1010200089F40894E11CF11CD801E814F90471F763
:101030002196CA15DB0531F08D01EE24FF24F4CF93
:10104000C0E0D0E0CE01DF91CF911F910F91FF90D2
:10105000EF90DF90CF90BF90AF909F908F900895CA
:101060002F923F924F925F926F927F928F929F92B8
:10107000AF92BF92CF92DF92EF92FF920F931F93A6
:10108000CF93DF93CDB7DEB72D970FB6F894DEBFC1
:101090000FBECDBF3C017D876C875A01FC011782D2
:1010A0001682838181FFBBC12E010894411C511C13
:1010B000F3019381EC85FD8593FD859193FF8191EB
:1010C000FD87EC87882309F4A6C1853241F493FD9E
:1010D000859193FF8191FD87EC87853221F490E023
:1010E000B3010ED2E5CFFF24EE2410E01032B0F4AD
:1010F0008B3269F08C3228F4803251F0833271F4F3
:101100000BC08D3239F0803349F411602CC012606D
:10111000146029C0186027C0106125C017FD2EC0BB
:10112000282F20532A3098F416FF08C08F2D880FDF
:10113000F82EFF0CFF0CF80EF20E15C08E2D880F46
:10114000E82EEE0CEE0CE80EE20E10620CC08E32B1
:1011500021F416FD60C1106406C08C3611F41068CD
:1011600002C0883659F4EC85FD8593FD859193FF87
:101170008191FD87EC87882309F0B8CF982F95548B
:10118000933018F09052933038F424E030E0A20EFF
:10119000B31E3FE339830FC0833631F0833781F0CC
:1011A000833509F056C021C0F5018081898322E092
:1011B00030E0A20EB31E21E0C22ED12C420113C09A
:1011C00092E0292E312C2A0C3B1CF5018080918065
:1011D00016FF03C06F2D70E002C06FEF7FEFC401F8
:1011E00044D16C0151011F7714C082E0282E312CAC
:1011F0002A0C3B1CF5018080918016FF03C06F2DE7
:1012000070E002C06FEF7FEFC40124D16C01106861
:10121000510113FD1AC005C080E290E0B30170D106
:10122000EA948E2D90E0C816D906B0F30EC0F401F2
:1012300017FD859117FF81914F0190E0B30160D1B7
:10124000E110EA940894C108D108C114D10479F7D7
:10125000DFC0843611F0893649F5F50117FF07C064
:1012600080819181A281B38124E030E008C0808137
:101270009181AA2797FDA095BA2F22E030E0A20E17
:10128000B31E012F0F76B7FF08C0B095A0959095BB
:1012900081959F4FAF4FBF4F0068BC01CD01A201A8
:1012A0002AE030E059D1D82ED4183EC0853721F439
:1012B0001F7E2AE030E020C0197F8F36A9F08037EA
:1012C00020F4883509F0A7C00BC0803721F088379B
:1012D00009F0A1C001C0106114FF09C0146007C06B
:1012E00014FF08C0166006C028E030E005C020E109
:1012F00030E002C020E132E0F50117FF07C0608155
:1013000071818281938144E050E006C060817181E7
:1013100080E090E042E050E0A40EB51EA2011CD196
:10132000D82ED418012F0F7706FF09C00E7FDF14C7
:1013300030F404FF06C002FD04C00F7E02C01D2D64
:1013400001C01F2D802F90E004FF0CC0FE01ED0DA9
:10135000F11D2081203311F4097E09C002FF06C06F
:101360001E5F05C086789070009709F01F5F802E81
:10137000992403FD11C000FF0CC0FD2C1E1548F47C
:10138000FE0CF11A1E2D05C080E290E0B301B8D02A
:101390001F5F1E15C8F304C01E1510F4E11A01C02A
:1013A000EE2484FE0EC080E390E0B301A9D082FE5B
:1013B0001DC081FE03C088E590E010C088E790E082
:1013C0000DC0C40186789070009781F081FC02C046
:1013D00080E201C08BE207FD8DE290E0B30190D086
:1013E00005C080E390E0B3018BD0FA94DF14C8F31A
:1013F000DA94F201ED0DF11D808190E0B30180D00F
:10140000DD20B1F705C080E290E0B30179D0EA9425
:10141000EE20C9F74DCEF3018681978102C08FEF90
:101420009FEF2D960FB6F894DEBF0FBECDBFDF91B4
:10143000CF911F910F91FF90EF90DF90CF90BF90D1
:10144000AF909F908F907F906F905F904F903F9064
:101450002F900895FC010590615070400110D8F75D
:10146000809590958E0F9F1F0895FC0161507040EC
:1014700001900110D8F7809590958E0F9F1F0895C9
:10148000CF93DF93EC012B8120FF35C026FF09C0ED
:101490002F7B2B838E819F8101969F838E838A81F0
:1014A00028C022FF0FC0E881F9818081992787FD3C
:1014B0009095009719F420622B831DC03196F98313
:1014C000E88311C0EA85FB85CE01099597FF0BC023
:1014D0002B813FEF8F3F930711F480E101C080E241
:1014E000822B8B8308C02E813F812F5F3F4F3F832C
:1014F0002E8390E002C08FEF9FEFDF91CF91089590
:101500000F931F93CF93DF938C01EB018B8181FFAE
:101510001BC082FF0DC02E813F818C819D812817C9
:10152000390764F4E881F9810193F983E88306C0FF
:10153000E885F985802F0995009731F48E819F8188
:1015400001969F838E8302C00FEF1FEFC801DF91CA
:10155000CF911F910F910895FA01AA27283051F1D8
:10156000203181F1E8946F936E7F6E5F7F4F8F4FD4
:101570009F4FAF4FB1E03ED0B4E03CD0670F781F33
:10158000891F9A1FA11D680F791F8A1F911DA11D18
:101590006A0F711D811D911DA11D20D009F4689451
:1015A0003F912AE0269F11243019305D3193DEF6F9
:1015B000CF010895462F4770405D4193B3E00FD0AF
:1015C000C9F7F6CF462F4F70405D4A3318F0495D9A
:1015D00031FD4052419302D0A9F7EACFB4E0A6957D
:1015E0009795879577956795BA95C9F7009761059F
:1015F000710508959B01AC010A2E069457954795F5
:1016000037952795BA95C9F7620F731F841F951FE9
:08161000A01D0895F894FFCF1E
:10161800504F525444203D202533780D0A00008352
:101628001000000104100000018208000001000001
:10163800000000000000000000A1200000000002DF
:0A16480000A10100000000000000F6
:00000001FF
