:100000005EC100007AC1000078C1000076C1000026
:1000100074C1000072C1000070C100006EC1000018
:100020006CC100006AC10000A7C6000066C10000E4
:1000300064C1000062C1000060C100005EC1000038
:100040005CC100005AC1000058C1000056C1000048
:1000500054C1000052C1000050C100004EC1000058
:100060004CC100004AC1000048C1000046C1000068
:1000700044C1000042C1000040C100003EC1000078
:100080003CC100003AC1000038C1000036C1000088
:1000900034C1000032C100001B5B33336D52656315
:1000A00065697665643A206D73673D7B30782530ED
:1000B00032582C203078253032582C20307825309A
:1000C00032587D0D0A1B5B33376D001B5B33316D7E
:1000D00044657620456E756D204572726F720D0A0B
:1000E000202D2D204572726F7220436F646520258C
:1000F000640D0A202D2D20537562204572726F7297
:1001000020436F64652025640D0A202D2D20496E43
:100110002053746174652025640D0A1B5B33376DB1
:10012000001B5B33316D486F7374204D6F64652025
:100130004572726F720D0A202D2D204572726F72FA
:1001400020436F64652025640D0A1B5B33376D0007
:10015000416E64726F696420446576696365204509
:100160006E756D6572617465642E0D0A004572725C
:100170006F722053657474696E6720446576696395
:100180006520436F6E66696775726174696F6E2E64
:100190000D0A004174746163686564204465766982
:1001A0006365204E6F7420612056616C6964204144
:1001B0006E64726F6964204163636573736F7279F3
:1001C00020436C617373204465766963652E0D0A64
:1001D000004572726F722052657472696576696E3D
:1001E0006720436F6E66696775726174696F6E2010
:1001F00044657363726970746F722E0D0A004E6FDE
:100200007420696E204163636573736F7279206D2A
:100210006F64652C20737769746368696E672E2E2E
:100220002E0D0A004E6F7420616E20416E64726F55
:100230006964206465766963652E0D0A00457272F3
:100240006F722052657472696576696E67204465C5
:10025000766963652044657363726970746F722E8A
:100260000D0A000D0A44657669636520556E617458
:100270007461636865642E0D0A0044657669636580
:100280002041747461636865642E0D0A001B5B3342
:10029000366D416E64726F69642041636365737388
:1002A0006F727920486F73742044656D6F2072758A
:1002B0006E6E696E672E0D0A1B5B33376D0011245D
:1002C0001FBECFEFD0E2DEBFCDBF11E0A0E0B1E0B6
:1002D000EEEDFDE100E00BBF02C007900D92A039EA
:1002E000B107D9F711E0A0E9B1E001C01D92AD3B23
:1002F000B107E1F72DD20C94ED0E82CE9091A801BA
:100300002DB73EB7285030400FB6F8943EBF0FBE11
:100310002DBFEDB7FEB731962BEC30E0ADB7BEB7D1
:1003200012963C932E9311978283138264831582D5
:10033000968317820E94FD0B299A2DB73EB7285F3E
:100340003F4F0FB6F8943EBF0FBE2DBF0895AF923A
:10035000BF92CF92DF92FF920F931F93DF93CF93C1
:1003600000D00F92CDB7DEB78091A8018B3009F095
:100370000AC187E591E00E94EC096C01009709F43D
:1003800041C0FF245E010894A11CB11C10C087E588
:1003900091E00E941F0A97FD05C00A0D1B1DD801A0
:1003A0008C9304C00A0D1B1DF8011082F3940F2DCD
:1003B00010E00C151D0558F38DB79EB708970FB6C2
:1003C000F8949EBF0FBE8DBFEDB7FEB7319688E99A
:1003D00090E0ADB7BEB712969C938E93119789812A
:1003E000828313828A81848315828B81868317821C
:1003F0000E94FD0BEDB7FEB738960FB6F894FEBF1E
:100400000FBEEDBF19821CB1109514708091970139
:10041000181791F081E089831A821B82143009F445
:100420008B8387E591E0BE016F5F7F4F43E050E033
:100430000E94930A1093970180919801882379F084
:1004400081E089838A838B8387E591E0BE016F5FBA
:100450007F4F43E050E00E94930A109298018091F0
:100460009901882381F091E0998382E08A839B83BC
:1004700087E591E0BE016F5F7F4F43E050E00E944F
:10048000930A1092990180919A01882381F091E05A
:10049000998384E08A839B8387E591E0BE016F5F47
:1004A0007F4F43E050E00E94930A10929A0180919E
:1004B000900190919101885C9140A9F084E089833A
:1004C00081E08A8388EC8B8387E591E0BE016F5FD2
:1004D0007F4F43E050E00E94930A88EC91E09093B4
:1004E0009101809390018091920190919301885E97
:1004F0009340A9F085E0898383E08A8388EE8B832B
:1005000087E591E0BE016F5F7F4F43E050E00E94BE
:10051000930A88EE93E090939301809392018091E7
:100520009401833321F480919501853591F086E023
:10053000898303E30A8315E51B8387E591E0BE0108
:100540006F5F7F4F43E050E0EED70093940110932C
:10055000950180919601823281F081E0898383E068
:100560008A8312E21B8387E591E0BE016F5F7F4FB4
:1005700043E050E0D8D7109396018981882319F081
:1005800087E591E095D70F900F900F90CF91DF9175
:100590001F910F91FF90DF90CF90BF90AF90089583
:1005A0001F93182FC4D300D000D0EDB7FEB73196FB
:1005B00081E291E0ADB7BEB712969C938E931197EE
:1005C000128313820E94FD0B299A0F900F900F90B7
:1005D0000F90FFCF83E692E00E941F0C299A0895A6
:1005E0008AE792E00E941F0C299808950F931F93A9
:1005F000DF93CF93CDB7DEB7C551D2400FB6F89495
:10060000DEBF0FBECDBF29988E010C5F1F4F81E06A
:1006100060E0A80122E169D6882319F08DE392E019
:1006200038C087E591E0B801AE014F5F5F4FAFD6AC
:10063000882319F484E292E02CC08981882341F058
:100640008EEF91E00E941F0C87E591E08BD72AC0C6
:100650008E010A5E1F4F81E0BE016E5F7F4FA801D1
:1006600020E032E0B7D4882319F081ED91E011C089
:100670006A817B8187E591E0A801E6D7882319F09C
:1006800083E991E006C081E04BD6882331F08DE606
:1006900091E00E941F0C299A05C080E591E00E941C
:1006A0001F0C2998CB5EDD4F0FB6F894DEBF0FBE4E
:1006B000CDBFCF91DF911F910F91089584B7877FB0
:1006C00084BF38E10FB6F894309360001092600058
:1006D0000FBE80E090E020E80FB6F8942093610010
:1006E000809361000FBE87E690E09093CD008093E9
:1006F000CC0086E08093CA001092C8003093C900F5
:10070000539A5A9A6A98729A219A299807D36F9A9B
:10071000779AE9EAF1E0F093B801E093B701F0933A
:10072000BA01E093B9018EE0DF011D928A95E9F7E5
:1007300083E08093AC018FED9BE09093B2018093B6
:10074000B10189EE9BE09093B4018093B3010895C9
:10075000B5DF8DE892E00E941F0C299A7894F7DDAE
:1007600087E591E0D5D601D6FACF982F20919E004B
:100770003091A0008091A0008F7D8093A000809197
:100780009F008F7D80939F0080919E008160809369
:100790009E0028C080919F0085FF06C080919F0029
:1007A0008F7D80939F0091508091A801813011F43A
:1007B00091E01AC08091A60084FF09C01092F50054
:1007C0008091A6008F7E8093A60092E00DC080915C
:1007D000A60081FF07C08091A6008D7F8093A600B0
:1007E00093E002C09923B1F620FD05C080919E00E0
:1007F0008E7F80939E0035FF05C08091A0008062AF
:100800008093A000892F089560919E008091A000A0
:100810008D7F8093A00080919E00826080939E00D7
:1008200080919E0081FDFCCF80919E00816080932D
:100830009E0010929E013091A0008091A0008F7DBB
:100840008093A00080919F008F7D80939F002AE07D
:1008500040EA5FE080919F0085FF0BC080919F0080
:100860008F7D80939F0080919F008D7F80939F005C
:1008700005C0CA010197F1F7215061F735FF05C0A6
:100880008091A00080628093A00060FD05C08091EF
:100890009E008E7F80939E008091A0008260809356
:1008A000A0000895EF920F931F93DF93CF93CDB7DE
:1008B000DEB728970FB6F894DEBF0FBECDBF80918C
:1008C000A801853009F492C0863068F48230B9F10D
:1008D000833018F48823A1F002C18330C1F1843041
:1008E00009F0FDC05BC0873009F499C0873008F477
:1008F00088C0883009F4B1C0893009F0F0C0D5C093
:1009000000919C0110919D010115110509F4E7C0AA
:1009100081E02BDF682F882331F080919B01809349
:10092000A80191E0D8C0C801019790939D018093E0
:100930009C01892B09F0D3C080919B0105C01092C6
:100940009D0110929C0183E08093A801C8C0809112
:100950009C0190919D01019790939D0180939C0132
:10096000019629F080EA9FE00197F1F7B8C07798E7
:100970008091D80080618093D8008091DD008B7FCA
:100980008093DD008091D70080618093D7008091B3
:10099000DD0082608093DD0084E0D6CF80919F00EF
:1009A00080FF9DC080919F008E7F80939F008091EB
:1009B0009F008D7F80939F008091DF008D7F8093CB
:1009C000DF008091DE0082608093DE0080919E00D7
:1009D000816080939E00EDD01092A80184E690E0A3
:1009E00090939D0180939C0185E05CC00DDF109287
:1009F000A80188EC90E090939D0180939C0186E093
:100A000051C080E060E040E020E000E410E0EE242F
:100A100072D08091AC0087FF5CC087E095CFA0EAE0
:100A2000B1E0E5E7F1E088E001900D928150E1F757
:100A3000CE01019653D3682F882309F048C08885DA
:100A400080937D01E1DE1092A80188EC90E0909304
:100A50009D0180939C0188E025C000917D0180E08C
:100A600060E040E020E010E0EE2445D08091AC0052
:100A700087FF2FC0A0EAB1E0EDE6F1E088E0019049
:100A80000D928150E1F780E090E028D3682F882311
:100A9000F1F41092A80184E690E090939D01809378
:100AA0009C0189E080939B011AC081E08093A100A2
:100AB0008AE08093A8019ADD12C0892F1FDC809103
:100AC000DD0081608093DD0085DDD8D008C093E033
:100AD00002C094E060E08091A801813071F728960F
:100AE0000FB6F894DEBF0FBECDBFCF91DF911F913F
:100AF0000F91EF900895EF920F931F93E82F7E2DA3
:100B00006295660F660F607C642B2F70622B382F06
:100B1000726045C03093A7003E17A1F488E090E0D2
:100B200020E003C02F5F880F991F8017910710F4F2
:100B30002530C1F7922F9295907F972B562F40E04A
:100B400020E008C05091AA009091AB004091AD0008
:100B50002091AE0091FF22C08091A9008E7F8093EA
:100B6000A9008091AB008D7F8093AB008091A9009C
:100B700081608093A9005093AA009093AB004093AA
:100B8000AD002093AE008091A90080628093A900FF
:100B90008091AC0087FD02C080E007C03F5F373026
:100BA00008F4B8CFE093A70081E01F910F91EF9078
:100BB00008951092F80090E09093A7001092AE0074
:100BC0001092A6001092AB008091A9008E7F8093B6
:100BD000A9009F5F973081F70895482F3091A700B3
:100BE00020E02093A7008091AC0087FF10C0909177
:100BF000AA008091AA008073803111F080E001C0CA
:100C000080E89F70892B841711F481E008952F5F8D
:100C1000273039F737703093A70080E0089540916E
:100C2000A2005091A30024E68091AA008073803135
:100C300029F48091A60080FF05C01EC08091A60007
:100C400082FD1AC08091A60081FF02C081E0089554
:100C50008091A801813011F482E008958091A20072
:100C60009091A30084179507F9F2222311F483E0F1
:100C700008952150AC01D8CF80E0089570D077D08E
:100C80008091D8008F778093D8008091D8008068B9
:100C90008093D8008091D8008F7D8093D800809178
:100CA000D7008F778093D70084E189BD86E189BD25
:100CB00009B400FEFDCF81E08093A80110929E014F
:100CC00080E480937D018091D80080648093D80077
:100CD0008091DD0081608093DD008091DD00846083
:100CE0008093DD008091D7008F7E8093D7006F9A2C
:100CF000779A8091DE0081608093DE008091DE0033
:100D000084608093DE008091E0008E7F8093E0001D
:100D10008091D80080618093D8000895E7EDF0E0DD
:100D200080818160808381E080939F01A7CF17D06D
:100D30001ED0E0EEF0E0808181608083A8EDB0E01D
:100D40008C918F778C9319BCE7EDF0E080818E7FDA
:100D500080838C918F7E8C9310929F010895E8ED93
:100D6000F0E080818C7F80831092A0000895109223
:100D7000DA0010929F0008951F920F920FB60F9203
:100D80000BB60F9211242F933F934F935F936F9362
:100D90007F938F939F93AF93BF93EF93FF93809134
:100DA0009F0085FF0AC08091A00085FF06C080914A
:100DB0009F008F7D80939F0067D180919F0081FF6E
:100DC00015C08091A00081FF11C080919F008D7F90
:100DD00080939F0080919F008E7F80939F008091E1
:100DE000A0008D7F8093A000F5DB48DF8091DF00BD
:100DF00081FF15C08091DE0081FF11C08091DF006E
:100E00008D7F8093DF0077988091DD0081608093F3
:100E1000DD0080E0C5DBDEDB81E08093A80180910E
:100E2000DF0080FF17C08091DE0080FF13C080913B
:100E3000DF008E7F8093DF008091DE008E7F8093C5
:100E4000DE00CEDB8091A00082608093A00082E073
:100E50008093A8018091DF0082FF0EC08091DE00A8
:100E600082FF0AC08091DF008B7F8093DF0082E0E9
:100E700060E044DAAFDB02DFFF91EF91BF91AF9109
:100E80009F918F917F916F915F914F913F912F91A2
:100E90000F900BBE0F900FBE0F901F901895BF9232
:100EA000CF92DF92EF92FF920F931F93CF93DF9336
:100EB000182F092F7B016A018091AA008F7C806224
:100EC0008093AA00ACDEB82E8823A9F5812F902F3D
:100ED0009C01E901C114D10439F0F60180819181AE
:100EE000E81AF90AC80FD91F00E010E021C080916C
:100EF000A60085FD15C08091A6008B778093A60083
:100F0000C114D10449F0F60180819181800F911FB5
:100F10009183808384E010C082DE882349F00CC076
:100F200089918093AF000894E108F1080F5F1F4F8B
:100F3000E114F104E1F68B2DDF91CF911F910F9118
:100F4000FF90EF90DF90CF90BF900895AF92BF9247
:100F5000CF92DF92EF92FF920F931F93CF93DF9385
:100F60007C01EB016A0124C0E881F981BE2EAF2E1D
:100F7000808190E098018017910708F49C01E20FAE
:100F8000F31FF983E883F70180819181821B930B22
:100F90009183808388819981F6010995823041F09F
:100FA000813069F4B882A982F7011183008307C0F8
:100FB000F7010081118101151105B1F682E0DF9181
:100FC000CF911F910F91FF90EF90DF90CF90BF9046
:100FD000AF900895CF92DF92EF92FF920F931F93FD
:100FE000DF93CF93CDB7DEB729970FB6F894DEBF66
:100FF0000FBECDBF6B018A01790190E89093A001EB
:1010000096E09093A10190E0019792609093A301E4
:101010008093A2011092A5011092A40189E090E0B2
:101020009093A7018093A6011092A700CE0101968C
:1010300055D0282F8823C1F48B819C81F6019183A0
:101040008083E816F90610F425E00EC09093A701FE
:101050008093A601C80142D0282F882329F4F801E3
:101060008181823009F026E0822F29960FB6F8940C
:10107000DEBF0FBECDBFCF91DF911F910F91FF90CB
:10108000EF90DF90CF90089508951F93CF93DF9353
:10109000182FC8EED3E009C081E067DB8823D1F4C4
:1010A000209711F484E016C02197112329F4809130
:1010B000A60083FFF1CF0DC0113029F48091A60066
:1010C00080FFEACF06C0123039F78091A60082FF78
:1010D000E3CF80E0DF91CF911F910895FF920F93AE
:1010E0001F93CF93DF93182F092FF0909E00C0918C
:1010F000A601D091A70180919E00816080939E00FF
:1011000081E033DB982F882309F0D7C08091AA00B3
:101110008F7C8093AA001092F5008091A6008F7EAC
:101120008093A6008091A9008F7B8093A900E0EABC
:10113000F1E081918093AF0081E0E83AF807C9F7C8
:101140008091A60087778093A60080E09EDF982F8D
:10115000882309F0B2C08091A90080648093A9001F
:1011600081E003DB982F882309F0A7C0212F302FBF
:10117000C9018C018091A00187FF52C08091AA0013
:101180008F7C80618093AA000115110569F52EC03E
:101190008091A9008F7B8093A90081E076DF982F52
:1011A000882309F08AC08091F6009091F700892B7E
:1011B00049F4C0E0D0E006C08091AF00F80181930F
:1011C0008F0121978091F6009091F700892B11F003
:1011D000209791F78091A90080648093A900809165
:1011E000A6008E778093A600209791F68091AA00A2
:1011F0008F7C80628093AA008091A9008F7B80936E
:10120000A90082E042DF982F882309F056C0809120
:10121000A6008B778093A60082E037DF982F4DC021
:1012200001151105A9F18091AA008F7C806280933D
:10123000AA008091A9008F7B8093A9001DC082E045
:1012400024DF982F8823C9F580917D01282F30E075
:1012500007C0F80181918F018093AF00219739F089
:101260008091F6009091F7008217930790F3809198
:10127000A6008B778093A600209709F782E005DF10
:10128000982F8823D1F48091A90080648093A900CD
:101290008091AA008F7C80618093AA008091A90030
:1012A0008F7B8093A90081E0F0DE982F882329F4BA
:1012B0008091A6008E778093A6008091A90080641B
:1012C0008093A900F0FC05C080919E008E7F8093E2
:1012D0009E0081E08093A8001092A800892FDF91E2
:1012E000CF911F910F91FF90089590E89093A001E6
:1012F00096E09093A10170E0F82FE0E06E2B7F2B39
:101300007093A3016093A2011092A5011092A40111
:101310002093A6011092A7011092A700CA01DECE69
:101320001F93182F1092A00189E08093A1011093C0
:10133000A2011092A3011092A5011092A401109293
:10134000A7011092A6011092A70080E090E0C6DEEF
:10135000882349F410939E01112311F49AE001C0EF
:101360009BE09093A8011F910895FF920F931F9304
:1013700007EA10E0F801F080F7E0FF22F8011082A0
:1013800091DAF801F0821F910F91FF900895FB010F
:10139000DA018181813081F480859185815D984178
:1013A00059F420E08285938580509D42029708F091
:1013B00021E02C9381E0089580E00895FC01818173
:1013C000843041F485818F3F29F486818F3F11F469
:1013D0008781811182E00895FC018091A8018B3002
:1013E00051F58089882339F180818093A70080910D
:1013F000A9008F7B8093A9008091A60080FF16C072
:101400008091F6009091F700892B31F48091A6002D
:101410008E778093A6000AC08091A9008064809393
:10142000A9002091F6003091F70007C08091A90033
:1014300080648093A90020E030E0C9010895FC0198
:101440008091A8018B3081F58089882369F18081A2
:101450008093A7008091A9008F7B8093A900809141
:10146000A60080FD03C02FEF3FEF18C08091F6006B
:101470009091F700892B19F42FEF3FEF04C0809172
:10148000AF00282F30E08091F6009091F700892B73
:1014900029F48091A6008E778093A6008091A90000
:1014A00080648093A90002C02FEF3FEFC901089527
:1014B000FC018091A8018B3049F58089882331F1A6
:1014C00082818093A7008091A9008F7B8093A900DF
:1014D0008091F6009091F700892BB1F09091A600D1
:1014E0008091A6008B778093A60095FD08C097DBBE
:1014F000882369F48091A6008B778093A600809161
:10150000A90080648093A90080E0089582E0089596
:10151000FC018091A8018B3029F48089882311F087
:10152000CF01C6CF0895FC018091A8018B30B9F49A
:1015300080898823A1F082818093A7008091A900EF
:101540008F7B8093A900CB01BA0140E050E0A7DC7B
:10155000982F8091A90080648093A90001C092E037
:10156000892F0895CF92DF92EF92FF920F931F93EE
:10157000DF93CF9300D0CDB7DEB78C01A0EAB1E006
:10158000E7E8F1E088E001900D928150E1F71092D8
:10159000A700CE010196A2DD882309F04AC0898107
:1015A0009A81019711F080E844C024E0E22EF12CEA
:1015B000E00EF11E00E010E090E4C92E84E3D82E86
:1015C000F70180819181009711F48EE791E0DC01B1
:1015D0000D900020E9F7C092A001D092A1011092D5
:1015E000A3011092A2011093A5010093A401A81BCE
:1015F000B90BB093A701A093A6011092A7006EDDCE
:101600008823B9F40F5F1F4F82E090E0E80EF91EC7
:1016100006301105A9F6A0EAB1E0EFE7F1E088E0B5
:1016200001900D928150E1F71092A70080E090E0C8
:1016300055DD0F900F90CF91DF911F910F91FF908B
:10164000EF90DF90CF9008954F925F926F927F92CC
:101650008F929F92AF92BF92CF92DF92EF92FF92C2
:101660000F931F93DF93CF9300D000D00F92CDB78D
:10167000DEB76C017A8369835C834B834096FC01FF
:1016800086E0DF011D928A95E9F7EB81FC8181817B
:10169000823011F081E06AC08E010D5F1F4F7E0124
:1016A0000894E11CF11CC701B8014EED59E04EDC75
:1016B000882309F05AC04B805C8088249924AA248E
:1016C000BB243801870110C0C801B3014CEC5BE0BA
:1016D0003DDC882309F049C0EB81FC81828187FFD2
:1016E00002C04F0101C05F018114910469F3A1148C
:1016F000B10451F391E0F6018081981761F4D401AF
:1017000014960D911C91159712962C918181138B33
:10171000028B40E10FC0F60182819817D1F4D50108
:1017200014960D911C91159712962C918381158B0F
:10173000048B40E2882311F430E001C034E0892FAB
:1017400062E0E32E9D83D7D99D81882311F483E045
:101750000DC09F5F973079F681E0F601808BD20152
:1017600012968C91818B80E001C082E00F900F90E7
:101770000F900F900F90CF91DF911F910F91FF90DD
:10178000EF90DF90CF90BF90AF909F908F907F9021
:101790006F905F904F900895FC018181853049F4EE
:1017A00083818370823049F4828117DA882329F497
:1017B0000895843011F481E0089582E00895982F0F
:1017C0008091C80085FFFCCF9093CE0080E090E030
:1017D00008958091C80087FD03C02EEF3FEF0BC036
:1017E0008091C80087FD03C02FEF3FEF04C08091B8
:1017F000CE00282F30E0C9010895DF93CF93CDB7F5
:10180000DEB7FE01359661917191A091B901B09159
:10181000BA0113968C911397886013968C938091DC
:10182000B9019091BA01AF013FD0E091B901F091B7
:10183000BA012381277F2383CF91DF9108950F93EE
:101840001F93CF93DF93EC01E091B901F091BA01BE
:10185000838181FF21C000E010E00EC0E091B9015A
:10186000F091BA0120853185BF01F9010995892BD5
:1018700011F00FEF1FEF2196FE018491882371F77D
:10188000E091B901F091BA01208531858AE0BF016C
:10189000F9010995892B11F00FEF1FEFC801DF91B6
:1018A000CF911F910F9108952F923F924F925F9287
:1018B0006F927F928F929F92AF92BF92CF92DF9260
:1018C000EF92FF920F931F93DF93CF93CDB7DEB7C5
:1018D0002B970FB6F894DEBF0FBECDBF3C012B0196
:1018E0005A01FC0117821682838181FD03C06FEFCC
:1018F0007FEFB9C19AE0892E1E010894211C311C8A
:10190000F3012381F20123FD859123FF81912F01B2
:10191000882309F4A5C1853239F423FD859123FF7D
:1019200081912F01853221F490E0B301CCD1E8CF31
:10193000982FFF24EE249924FFE1FF15D0F09B326D
:1019400069F09C3228F4903259F0933291F40EC031
:101950009D3249F0903369F441E024C052E0F52A09
:1019600084E0F82A28C098E0F92A25C0E0E1FE2AA0
:1019700022C0F7FC29C0892F80538A3070F4F6FE0C
:1019800005C0989C902C1124980E15C0E89CE02C62
:101990001124E80EF0E2FF2A0EC09E3229F4F6FC74
:1019A0005FC140E4F42A07C09C3619F450E8F52AD8
:1019B00002C0983649F4F20123FD959123FF9191DD
:1019C0002F01992309F0B8CF892F8554833018F05F
:1019D0008052833038F444E050E0A40EB51E5FE33B
:1019E00059830FC0933631F0933779F0933509F06E
:1019F00052C01FC0F5018081898342E050E0A40EEF
:101A0000B51E610101E010E011C0F501C080D18078
:101A1000F6FC03C06FEF7FEF02C0692D70E042E07B
:101A200050E0A40EB51EC60143D18C015FE7F5223C
:101A300013C0F501C080D180F6FC03C06FEF7FEFCB
:101A400002C0692D70E042E050E0A40EB51EC60150
:101A500024D18C0150E8F52AF3FE06C018C080E2BC
:101A600090E0B30130D1EA948E2D90E00817190769
:101A7000B0F30DC0F601F7FC8591F7FE81916F017F
:101A800090E0B30120D1E110EA940150104001151B
:101A9000110581F7E2C0943611F0993661F5F7FE31
:101AA00008C0F501208131814281538184E090E0BA
:101AB0000AC0F501808191819C01442737FD409542
:101AC000542F82E090E0A80EB91E9FE6F92257FF3E
:101AD00009C050954095309521953F4F4F4F5F4F2E
:101AE000E0E8FE2ACA01B901A1012AE030E017D1DD
:101AF000D82ED2183FC0953729F41F2D1F7E2AE01B
:101B000030E01DC01F2D197F9F3661F0903720F403
:101B1000983509F0A5C00FC0903739F0983709F013
:101B20009FC004C028E030E00AC0106114FD1460BA
:101B300020E130E004C014FD166020E132E017FF20
:101B400008C0F501608171818281938144E050E099
:101B500008C0F50180819181BC0180E090E042E005
:101B600050E0A40EB51EA101DAD0D82ED2188FE70E
:101B7000F82EF122F6FE0BC05EEFF522D91438F4F0
:101B8000F4FE07C0F2FC05C08FEEF82202C01D2D46
:101B900001C0192DF4FE0DC0FE01ED0DF11D808177
:101BA000803319F499EEF92208C01F5FF2FE05C0D8
:101BB00003C08F2D867809F01F5F0F2DF3FC13C033
:101BC000F0FE0EC01E1510F09D2C0AC09D2C9E0C20
:101BD000911A1E2D05C080E290E0B30174D01F5F02
:101BE0001E15C8F304C01E1510F4E11A01C0EE243E
:101BF00004FF0EC080E390E0B30165D002FF1BC07C
:101C000001FD03C088E790E00EC088E590E00BC0BE
:101C1000802F867881F001FF02C08BE201C080E254
:101C2000F7FC8DE290E0B3014ED005C080E390E078
:101C3000B30149D09A94D914C8F3DA94F101ED0DA7
:101C4000F11D808190E0B3013ED0DD20B1F705C0E9
:101C500080E290E0B30137D0EA94EE20C9F750CE8D
:101C6000F30166817781CB012B960FB6F894DEBF26
:101C70000FBECDBFCF91DF911F910F91FF90EF90DD
:101C8000DF90CF90BF90AF909F908F907F906F909C
:101C90005F904F903F902F900895FC010590615008
:101CA00070400110D8F7809590958E0F9F1F089572
:101CB000FC016150704001900110D8F7809590951B
:101CC0008E0F9F1F08950F931F93CF93DF938C0167
:101CD000EB018B8181FF1BC082FF0DC02E813F81F4
:101CE0008C819D812817390764F4E881F98101937B
:101CF000F983E88306C0E885F985802F0995892B4B
:101D000031F48E819F8101969F838E8302C00FEFF5
:101D10001FEFC801DF91CF911F910F910895FA0134
:101D2000AA27283051F1203181F1E8946F936E7F1A
:101D30006E5F7F4F8F4F9F4FAF4FB1E03ED0B4E00B
:101D40003CD0670F781F891F9A1FA11D680F791F4C
:101D50008A1F911DA11D6A0F711D811D911DA11D5D
:101D600020D009F468943F912AE0269F112430196D
:101D7000305D3193DEF6CF010895462F4770405D08
:101D80004193B3E00FD0C9F7F6CF462F4F70405DB7
:101D90004A3318F0495D31FD4052419302D0A9F712
:101DA000EACFB4E0A6959795879577956795BA950C
:101DB000C9F700976105710508959B01AC010A2ED2
:101DC00006945795479537952795BA95C9F7620FA9
:0E1DD000731F841F951FA01D0895F894FFCF68
:101DDE00476F6F676C652C20496E632E0044656DEE
:101DEE006F4B69740044656D6F4B6974204172646A
:101DFE0075696E6F20426F61726400312E3000681B
:101E0E007474703A2F2F7777772E616E64726F69C4
:101E1E00642E636F6D003030303030303030313200
:101E2E00333435363738000100020000010D01153C
:101E3E00012B012F014601000000000000000501EA
:101E4E000000000000800600010000080040004075
:101E5E0035000000000000C033000000000200004A
:00000001FF
