:10000000B7C00000D4C00000D2C00000D0C00000C3
:10001000CEC00000CCC00000CAC00000C8C00000B4
:10002000C6C00000C4C0000061C40000C0C0000021
:10003000BEC00000BCC00000BAC00000B8C00000D4
:10004000B6C00000B4C00000B2C00000B0C00000E4
:10005000AEC00000ACC00000AAC00000A8C00000F4
:10006000A6C00000A4C00000A2C00000A0C0000004
:100070009EC000009CC000009AC0000098C0000014
:1000800096C0000094C0000092C0000090C0000024
:100090008EC000008CC0000032034D006900630078
:1000A00072006F00700065006E0064006F007500E4
:1000B00073004B006500790062006F006100720000
:1000C0006400540065007300740000002A03770088
:1000D000770077002E006D006900630072006F00EA
:1000E000700065006E0064006F00750073002E00E4
:1000F0006F00720067000000040309040902220077
:10010000010100C0320904000001030101000921BE
:1001100011010001223F00070581030800051201BB
:10012000100100000008EB03422001000102000161
:1001300005010906A101050719E029E715002501B8
:10014000750195088102950175088101050819015D
:100150002905950575019102950175039101150019
:1001600025FF0507190029FF950675088100C000C5
:1001700011241FBECFEFD0E2DEBFCDBF11E0A0E063
:10018000B1E0E4EEF1E100E00BBF02C007900D9298
:10019000A032B107D9F71BBE11E0A0E2B1E001C067
:1001A0001D92A533B107E1F73ED00C94F00828CF9B
:1001B00095B19D7F982B95B9089584B7877F84BFAB
:1001C00088E10FB6F89480936000109260000FBE33
:1001D00080E090E020E80FB6F894209361008093CF
:1001E00061000FBE85B7806890E00FB6F89485BFB8
:1001F0000FBE85BF11B88FEF82B914B885B917B893
:1002000088B91AB88BB91DB88EB910BA81BB219ABA
:100210002998299A6A98729A73986B9A6C9A749A28
:1002200077986F9A48C3C9DF82E0C2DF789480E094
:1002300091E0F3D68AD5FBCF80E0BACF82E0B8CF89
:1002400080E091E0D1D69091E20094609093E2003A
:10025000882311F080E001C082E0AACF80E091E025
:1002600090C580910E0190910F01009729F00197A0
:1002700090930F0180930E0108950F931F93F9013E
:10028000D801189902C085E03BC01A9902C085E0E8
:1002900065C01B9902C085E043C01C9902C085E07F
:1002A00045C01D9902C085E047C01E9902C085E087
:1002B00049C01F9902C085E04BC0489902C087E041
:1002C0001FC0499902C087E021C04A9902C087E057
:1002D00045C04B9902C087E023C04C9902C087E01B
:1002E00025C04D9902C087E027C04E9902C087E023
:1002F00029C04F9902C087E02BC0789904C089E0DB
:10030000828387E22DC0799904C089E082838EE1DF
:1003100027C07A9902C089E021C07B9904C089E096
:10032000828380E21DC07C9904C089E0828381E2DF
:1003300017C07D9904C089E0828382E211C07E9952
:1003400004C089E0828383E20BC07F9904C089E006
:10035000828384E205C0629904C088E082838FE1D1
:10036000838388E090E011969C938E9380E01F91A8
:100370000F910895F901808180FD02C080E001C0E5
:1003800082E016CF933089F0943028F4913049F10F
:10039000923061F505C09132D1F0923239F51CC02E
:1003A00082E290E0ECEFF0E025C0813041F0813056
:1003B00018F08230D9F406C0E8EFF0E005C0ECECAC
:1003C000F0E002C0E8E9F0E0849190E013C089E039
:1003D00090E0EEE0F1E00EC08FE390E0E0E3F1E0CA
:1003E00009C082E190E0EEE1F1E004C080E090E03D
:1003F000E0E0F0E0DA011196FC93EE930895AF92FD
:10040000BF92CF92DF92EF92FF921F93CF93DF9331
:10041000EC017B016A01D7D1182F8823A9F5C114FB
:10042000D10439F0F60120813181E21AF30AC20FBA
:10043000D31FAA24BB2423C08091E80085FD16C0E9
:100440008091E8008E778093E8007FD4C114D104B6
:1004500049F0F601808191818A0D9B1D91838083F3
:1004600015E012C0B0D1882351F00DC0899180935E
:10047000F1000894E108F1080894A11CB11CE114F2
:10048000F104D1F601C0182F812FDF91CF911F9178
:10049000FF90EF90DF90CF90BF90AF9008952091A4
:1004A0003301309134012617370720F4B901FC01DC
:1004B00020E037C061157105D1F72091E8002E7753
:1004C0002093E800F4CF80912C01882309F43FC0E9
:1004D0008530C9F18091E80083FD37C08091E80044
:1004E00082FD2BC08091E80080FF1BC08091F2004C
:1004F0009091F30006C021912093F100615070406B
:1005000001966115710519F088309105A0F321E07D
:100510008830910509F020E08091E8008E77809383
:10052000E8006115710579F6222369F606C080910D
:100530002C01882361F0853061F08091E80082FF12
:10054000F6CF80E0089583E0089581E0089582E089
:10055000089583E008956115710529F42091E8005C
:100560002B772093E800382F292F26C080912C016B
:100570008823B1F1853081F18091E80083FD2EC0A0
:100580008091E80082FFF2CFE32FF22F08C0809124
:10059000F10081933E2F2F2F6150704041F03E2F8C
:1005A0002F2F8091F2009091F300009781F78091B6
:1005B000E8008B778093E80061157105B9F606C0F5
:1005C00080912C01882361F0853061F08091E800F2
:1005D00080FFF6CF80E0089583E0089581E00895DC
:1005E00082E0089583E00895209133013091340131
:1005F0002617370720F4B901FC0120E038C0611547
:100600007105D1F72091E8002E772093E800F4CF10
:1006100080912C01882309F440C08530D1F180916C
:10062000E80083FD38C08091E80082FD2CC08091F5
:10063000E80080FF1CC08091F2009091F30007C099
:1006400024912093F100319661507040019661151C
:10065000710519F08830910598F321E088309105F3
:1006600009F020E08091E8008E778093E800611522
:10067000710571F6222361F606C080912C01882352
:1006800061F0853061F08091E80082FFF6CF80E074
:10069000089583E0089581E0089582E0089583E05D
:1006A0000895982F2AC09093E900981739F0709117
:1006B000EC002091ED005091F00003C0242F762F24
:1006C00050E021FF19C03091EB003E7F3093EB00EA
:1006D0003091ED003D7F3093ED003091EB003160C3
:1006E0003093EB007093EC002093ED005093F000FA
:1006F0002091EE0027FF08C09F5F9730A0F28F7017
:100700008093E90081E0089580E008950F931F939E
:10071000CF93DF93162FEC0100E02AC09881992334
:1007200029F16B81E981FA812C81892F8F708730C3
:1007300018F56295660F660F607C991F9927991FBF
:10074000692B223010F096E001C092E028E030E002
:1007500040E003C04F5F220F331F2E173F07D0F337
:100760004295407F492B9DDF882331F00F5F25960E
:100770000117A1F681E001C080E0DF91CF911F91C8
:100780000F91089580912D0187FF13C004C08091BF
:100790002C018823B9F08091E80082FFF8CF809186
:1007A000E8008B778093E800089580912C018823DE
:1007B00049F08091E80080FFF8CF8091E8008E77C3
:1007C0008093E80008958091E4009091E50045E66B
:1007D00001C0C9012091EC0020FF23C02091E80056
:1007E00020FD15C020912C01222399F0253099F08D
:1007F0002091EB0025FD11C02091E4003091E5002F
:100800002817390739F3415021F784E0089580E033
:10081000089582E0089583E0089581E0089580E0DE
:1008200008952091E80022FFDDCFF9CF0F931F93A9
:10083000CF93DF934ED055D0C8EDD0E088818F772D
:10084000888388818068888388818F7D8883E7EDAD
:10085000F0E080818068808319BC10922C01109296
:10086000280110922A011092290100EE10E0F801EF
:1008700080818B7F808388818160888380E060E0D5
:1008800042E00FDFE1EEF0E080818E7F8083E2EED8
:10089000F0E0808181608083808188608083F801BE
:1008A00080818E7F8083888180618883DF91CF9172
:1008B0001F910F910895E8EDF0E080818F7E808395
:1008C000E7EDF0E080818160808381E080932B01FF
:1008D000ADCFE8EDF0E080818C7F80831092E20064
:1008E00008951092DA001092E10008951F920F927D
:1008F0000FB60F920BB60F9211242F933F934F9385
:100900005F936F937F938F939F93AF93BF93EF9377
:10091000FF938091E10082FF0AC08091E20082FF94
:1009200006C08091E1008B7F8093E1009ADC80918A
:10093000DA0080FF1DC08091D80080FF19C080912F
:10094000DA008E7F8093DA008091D90080FF0CC09E
:1009500084E189BD86E189BD09B400FEFDCF81E057
:1009600080932C0169DC04C019BC10922C0166DC58
:100970008091E10080FF18C08091E20080FF14C0E8
:100980008091E2008E7F8093E2008091E20080619E
:100990008093E2008091D80080628093D80019BCD7
:1009A00085E080932C01D0D18091E10084FF2DC09F
:1009B0008091E20084FF29C084E189BD86E189BD80
:1009C00009B400FEFDCF8091D8008F7D8093D800C0
:1009D0008091E1008F7E8093E1008091E2008F7E24
:1009E0008093E2008091E20081608093E200809138
:1009F0002801882321F48091E30087FF02C084E06E
:100A000001C081E080932C019FD18091E10083FFA0
:100A100022C08091E20083FF1EC08091E100877FA9
:100A20008093E10082E080932C0110922801809154
:100A3000E1008E7F8093E1008091E2008E7F8093C1
:100A4000E2008091E20080618093E20080E060E05B
:100A500042E027DE79D1FF91EF91BF91AF919F9155
:100A60008F917F916F915F914F913F912F910F9057
:100A70000BBE0F900FBE0F901F9018951F93CF9332
:100A8000DF93CDB7DEB7AC970FB6F894DEBF0FBEDD
:100A9000CDBF80E0EDE2F1E09091F10091938F5FA6
:100AA0008830D1F7DBDB8091E80083FF35C180918E
:100AB0002D0120912E01253009F484C0263040F408
:100AC0002130A1F1213070F0233009F025C12EC072
:100AD000283009F4F3C0293009F402C1263009F0A6
:100AE0001BC193C0803821F0823809F015C108C0BD
:100AF0008091290190912A01992371F082600CC0A4
:100B0000809131018F708093E9009091EB0081E03A
:100B100095FF80E01092E9009091E800977F909314
:100B2000E8008093F1001092F100D3C0882319F0FF
:100B3000823009F0F1C090E08F719070009729F039
:100B40008230910509F0E8C00BC080912F018130FF
:100B500009F0E2C0233009F080E080932A012CC024
:100B600080912F01882341F5209131012F7009F4E4
:100B7000D3C02093E9008091EB0080FF1DC08091DD
:100B80002E01833021F48091EB00806213C08091AC
:100B9000EB0080618093EB0081E090E002C0880F61
:100BA000991F2A95E2F78093EA001092EA0080915B
:100BB000EB0088608093EB001092E9008091E800E0
:100BC000877F8AC0882309F0A7C010912F011F7763
:100BD0008091E3008078812B8093E3008091E8008E
:100BE000877F8093E800CEDD8091E80080FFFCCF16
:100BF0008091E30080688093E300112311F083E08B
:100C000001C082E080932C0187C08058823008F0B8
:100C100083C080912F019091300123E08C3D920799
:100C2000A9F583E08C838AE28B835FB7F894DE01B9
:100C3000139680E090E04EE061E2E42FF0E06093F4
:100C40005700E49180FF03C0E295EF704F5FEF70B3
:100C50002E2F30E0EA3018F0295C3F4F02C0205DB3
:100C60003F4F13963C932E93129701961296843120
:100C7000910519F75FBF8091E800877F8093E800B6
:100C8000CE0103966AE270E00ADC12C06091310185
:100C9000AE014F5F5F4F76DBBC01009709F43CC0AB
:100CA0008091E800877F8093E80089819A819CDCAD
:100CB0008091E8008B778093E8002EC0803861F542
:100CC0008091E800877F8093E800809128018093DD
:100CD000F1008091E8008E778093E80053DD1CC01E
:100CE0008823D1F490912F019230B0F48091E800E4
:100CF000877F8093E8009093280144DD809128014C
:100D0000882321F48091E30087FF02C084E001C0C2
:100D100081E080932C0194DA8091E80083FF0AC07F
:100D20008091E800877F8093E8008091EB008062EB
:100D30008093EB00AC960FB6F894DEBF0FBECDBF2C
:100D4000DF91CF911F9108950895CF9380912C0149
:100D50008823A9F08091E9008F709091EC0090FFBA
:100D600002C0C0E801C0C0E0C82B1092E900809129
:100D7000E80083FF01C082DECF70C093E900CF910D
:100D800008956F927F928F929F92AF92BF92CF926F
:100D9000DF92EF92FF920F931F93CF93DF9300D0D8
:100DA0000F92CDB7DEB77C016DB67EB68091E800BC
:100DB00083FF03C1F701808190E0209131013091E0
:100DC00032012817390709F0F8C080912E018330CD
:100DD00009F49AC0843030F4813071F0823009F027
:100DE000ECC0CFC08A3009F4B4C08B3009F49DC088
:100DF000893009F0E2C04BC080912D01813A09F0A1
:100E0000DCC09DB68EB61B821A8280912F010091A4
:100E100030018983F70140858DB79EB7841B910906
:100E20000FB6F8949EBF0FBE8DBFCDB6DEB6089448
:100E3000C11CD11CBC2CAD2CC60160E070E050E0A0
:100E4000C8D1402F4150C701BE016F5F7F4F96014F
:100E50008E010E5F1F4F11DAF7018681978100978F
:100E600021F04085B60150E0ABD11092E9008091AD
:100E7000E800877F8093E8006A817B818B2D9A2D23
:100E80000EDB8091E8008B778093E8003AC0809178
:100E90002D01813209F091C09DB68EB600913301CB
:100EA00010913401C0902F01D09030018DB79EB7C2
:100EB000801B910B0FB6F8949EBF0FBE8DBFADB6D1
:100EC000BEB60894A11CB11C8091E800877F809376
:100ED000E800C501B8013FDB8091E8008E77809380
:100EE000E80081E090E0CC2011F480E090E04D2D0E
:100EF00041509501280F391F081B190BC7016C2D94
:100F000039DA9DBE8EBE59C080912D01813A09F01B
:100F100054C08091E800877F8093E8008091E800CA
:100F200080FFFCCFF701818540C080912D01813287
:100F300009F043C08091E800877F8093E80022DCBD
:100F400090912F0181E0992309F480E0F7018187D6
:100F500034C080912D01813281F58091E800877F36
:100F60008093E8000FDC80912F0190913001807018
:100F700036E0969587953A95E1F7F701958784874E
:100F80001CC080912D01813AC1F48091E800877FD7
:100F90008093E8008091E80080FFFCCFF701848512
:100FA000958596958795969587958093F100809184
:100FB000E8008E778093E800E5DB0FB6F8947EBEFC
:100FC0000FBE6DBE0F900F900F90DF91CF911F91CC
:100FD0000F91FF90EF90DF90CF90BF90AF909F90D8
:100FE0008F907F906F900895CF93DF93FC010996C7
:100FF000DC0187E0ED0119928A95E9F781E08187AC
:1010000084EF91E09587848783E08483CF01019604
:1010100061E07CDBDF91CF9108954F925F926F92F8
:101020007F928F929F92AF92BF92CF92DF92EF9278
:10103000FF920F931F93CF93DF9300D00F92CDB702
:10104000DEB77C014DB65EB680912C01843009F08C
:1010500091C08091E4009091E500F70122853385ED
:101060002817390709F486C081818F708093E900C1
:101070008091E80085FF7EC07DB66EB640858DB755
:101080009EB7841B91090FB6F8949EBF0FBE8DBF0B
:101090000DB71EB70F5F1F4F19821B821A82B02E29
:1010A000A12EC80160E070E050E093D0C701BE01FE
:1010B0006F5F7F4F40E098018E010E5F1F4FDDD8BC
:1010C000182FF70184859585009759F081E090E00D
:1010D000268537852115310511F080E090E04C011F
:1010E00002C088249924F701C680D780C114D10496
:1010F00091F04A815B818B2D9A2DB60154D001E08D
:10110000009709F400E0F7014085C6016B2D7A2DA8
:1011100050E056D001C000E08A819B81009709F120
:10112000112329F4002319F481149104D1F0F7015B
:10113000848595859787868781818F708093E90064
:101140008981882311F08093F1006A817B818B2D46
:101150009A2D40E050E053D98091E8008E7780933B
:10116000E8008091E4009091E500F7019387828781
:101170007DBE6EBE0FB6F8945EBE0FBE4DBE0F9024
:101180000F900F90DF91CF911F910F91FF90EF90F3
:10119000DF90CF90BF90AF909F908F907F906F9097
:1011A0005F904F900895FB01DC0104C08D91019088
:1011B000801921F441505040C8F7881B990B0895BD
:1011C000FB01DC0102C001900D9241505040D8F764
:1011D0000895DC0101C06D9341505040E0F708953F
:0411E000F894FFCFB1
:1011E4000081080000012001080000000000000048
:1011F400A120000000000200A10100000000000086
:00000001FF
