:10000000C6C00000E3C00000E1C00000DFC0000087
:10001000DDC00000DBC00000D9C00000D7C0000078
:10002000D5C00000D3C00000B0C300007BC40000F6
:10003000CDC00000CBC00000C9C00000C7C0000098
:10004000C5C000000C94450DC1C00000BFC0000039
:10005000BDC00000BBC00000B9C00000B7C00000B8
:10006000B5C00000B3C00000B1C00000AFC00000C8
:10007000ADC00000ABC00000A9C00000A7C00000D8
:10008000A5C00000A3C00000A1C000009FC00000E8
:100090009DC000009BC000000D0A485742206861C7
:1000A00073206265656E2070726573736564210DDF
:1000B0000A005A034D006900630072006F0070006F
:1000C00065006E0064006F0075007300200056002C
:1000D000690072007400750061006C0053006500D7
:1000E0007200690061006C0020004600720065002B
:1000F0006500520054004F00530020004C006F0078
:100100006F0070006200610063006B0000002A0352
:100110007700770077002E006D00690063007200A1
:100120006F00700065006E0064006F007500730062
:100130002E006F007200670000000403090409022A
:100140003E00020100C03209040000010202010069
:1001500005240010010424020605240600010705F9
:1001600082030800FF09040100020A0000000705DD
:10017000040210000507058302100005120110019A
:1001800002000008EB03442001000102DC011124FD
:100190001FBECFEFD0E2DEBFCDBF11E0A0E0B1E0E7
:1001A000E4ECF1E200E00BBF02C007900D92A23533
:1001B000B107D9F71BBE17E0A2E5B1E001C01D925F
:1001C000A93CB107E1F737D00C94E01019CF0E9499
:1001D0004E0980E291E09ED64BD50E94F30983E060
:1001E00090E00E949B0AF3CF84B7877F84BF88E1A9
:1001F0000FB6F89480936000109260000FBE80E00C
:1002000090E020E80FB6F89420936100809361009D
:100210000FBE85B7806890E00FB6F89485BF0FBE1B
:1002200085BF219A2998299A73986B9A6C9A749A27
:1002300077986F9A8FC2AF92BF92CF92DF92EF9270
:10024000FF920F93D1DF80E291E062E571E0B8D6D2
:10025000789487EB91E060E071E040E850E020E0C6
:1002600030E002E0EE24FF24CC24DD24AA24BB24C9
:10027000F0D687EE90E069E071E040E850E020E0E1
:1002800030E004E0E6D6E1D780E090E00F91FF9007
:10029000EF90DF90CF90BF90AF9008952998089588
:1002A000299A089580E291E0ACD5882311F090E07E
:1002B00001C092E085B18D7F892B85B9089580E2D8
:1002C00091E0F2C4CF93DF93E9D78CEA97E061E045
:1002D00070E040E150E022E531E00E94880DEC0141
:1002E0000E94F309DBD71C161D064CF48CEA97E03C
:1002F00061E070E0AE0122E531E00E94C50D0E9490
:10030000F3098CB182FD30C0C9D700D000D0C2E55E
:10031000D1E0ADB7BEB71296DC93CE93119788E9C2
:1003200090E014969C938E9313970E946C0D29B1C4
:1003300000D0EDB7FEB73196ADB7BEB71296DC93DD
:10034000CE93119782E191E0938382832483158277
:100350000E945D0DEDB7FEB736960FB6F894FEBF5E
:100360000FBEEDBF0E94F309DF91CF910895AADF80
:100370000E94940CFCCF923029F0933041F09130E0
:10038000E9F417C08EE390E0EEE3F1E01BC08130AA
:1003900041F0813018F0823089F406C0EAE3F1E0E0
:1003A00005C0EEE0F1E002C0E2EBF0E0849190E005
:1003B00009C082E190E0ECE7F1E004C080E090E069
:1003C000E0E0F0E0DA011196FC93EE9308952091BD
:1003D000C7073091C8072617370720F4B901FC0179
:1003E00020E037C061157105D1F72091E8002E7724
:1003F0002093E800F4CF8091C007882309F43FC020
:100400008530C9F18091E80083FD37C08091E80014
:1004100082FD2BC08091E80080FF1BC08091F2001C
:100420009091F30006C021912093F100615070403B
:1004300001966115710519F088309105A0F321E04E
:100440008830910509F020E08091E8008E77809354
:10045000E8006115710579F6222369F606C08091DE
:10046000C007882361F0853061F08091E80082FF49
:10047000F6CF80E0089583E0089581E0089582E05A
:10048000089583E008952091C7073091C807261783
:10049000370720F4B901FC0120E038C0611571056F
:1004A000D1F72091E8002E772093E800F4CF8091D7
:1004B000C007882309F440C08530D1F18091E8005D
:1004C00083FD38C08091E80082FD2CC08091E80057
:1004D00080FF1CC08091F2009091F30007C024912E
:1004E0002093F100319661507040019661157105BD
:1004F00019F08830910598F321E08830910509F0D2
:1005000020E08091E8008E778093E8006115710506
:1005100071F6222361F606C08091C007882361F03E
:10052000853061F08091E80082FFF6CF80E0089589
:1005300083E0089581E0089582E0089583E00895BE
:10054000982F2AC09093E900981739F07091EC0029
:100550002091ED005091F00003C0242F762F50E041
:1005600021FF19C03091EB003E7F3093EB003091BA
:10057000ED003D7F3093ED003091EB003160309322
:10058000EB007093EC002093ED005093F00020916D
:10059000EE0027FF08C09F5F9730A0F28F70809316
:1005A000E90081E0089580E008950F931F93CF93B1
:1005B000DF93162FEC0100E02AC09881992329F1DE
:1005C0006B81E981FA812C81892F8F70873018F532
:1005D0006295660F660F607C991F9927991F692B9A
:1005E000223010F096E001C092E028E030E040E0D8
:1005F00003C04F5F220F331F2E173F07D0F34295E2
:10060000407F492B9DDF882331F00F5F259601172E
:10061000A1F681E001C080E0DF91CF911F910F91A1
:1006200008958091C10787FF13C004C08091C0075F
:100630008823B9F08091E80082FFF8CF8091E8002C
:100640008B778093E80008958091C007882349F054
:100650008091E80080FFF8CF8091E8008E7780934A
:10066000E80008958091E4009091E50045E601C01E
:10067000C9012091EC0020FF23C02091E80020FD5B
:1006800015C02091C007222399F0253099F02091C0
:10069000EB0025FD11C02091E4003091E500281702
:1006A000390739F3415021F784E0089580E0089537
:1006B00082E0089583E0089581E0089580E0089540
:1006C0002091E80022FFDDCFF9CF0F931F93CF9346
:1006D000DF934ED055D0C8EDD0E088818F778883E6
:1006E00088818068888388818F7D8883E7EDF0E04A
:1006F00080818068808319BC1092C0071092BC076B
:100700001092BE071092BD0700EE10E0F801808144
:100710008B7F808388818160888380E060E042E015
:100720000FDFE1EEF0E080818E7F8083E2EEF0E08B
:10073000808181608083808188608083F8018081EE
:100740008E7F8083888180618883DF91CF911F9124
:100750000F910895E8EDF0E080818F7E8083E7EDD2
:10076000F0E080818160808381E08093BF07ADCF1E
:10077000E8EDF0E080818C7F80831092E2000895A4
:100780001092DA001092E10008951F920F920FB6B6
:100790000F920BB60F9211242F933F934F935F93B9
:1007A0006F937F938F939F93AF93BF93EF93FF9339
:1007B0008091E10082FF0AC08091E20082FF06C0C2
:1007C0008091E1008B7F8093E10051D28091DA002B
:1007D00080FF1DC08091D80080FF19C08091DA0091
:1007E0008E7F8093DA008091D90080FF0CC084E175
:1007F00089BD86E189BD09B400FEFDCF81E080930B
:10080000C0074CDD04C019BC1092C00749DD8091BF
:10081000E10080FF18C08091E20080FF14C0809149
:10082000E2008E7F8093E2008091E20080618093FD
:10083000E2008091D80080628093D80019BC85E0E6
:100840008093C00714D28091E10084FF2DC0809175
:10085000E20084FF29C084E189BD86E189BD09B435
:1008600000FEFDCF8091D8008F7D8093D8008091CD
:10087000E1008F7E8093E1008091E2008F7E809383
:10088000E2008091E20081608093E2008091BC07E9
:10089000882321F48091E30087FF02C084E001C037
:1008A00081E08093C007E3D18091E10083FF27C0FE
:1008B0008091E20083FF23C08091E100877F8093D5
:1008C000E10082E08093C0071092BC078091E100B4
:1008D0008E7F8093E1008091E2008E7F8093E20022
:1008E0008091E20080618093E20080E060E042E07D
:1008F00027DE8091F00088608093F000B8D1FF91EE
:10090000EF91BF91AF919F918F917F916F915F9187
:100910004F913F912F910F900BBE0F900FBE0F90F4
:100920001F9018951F920F920FB60F920BB60F9251
:1009300011242F933F934F935F936F937F938F93E4
:100940009F93AF93BF93CF93EF93FF93C091E90031
:10095000CF708091EC001092E9008091F000877FC9
:100960008093F00078941DD01092E9008091F000FF
:1009700088608093F000C093E900FF91EF91CF91E0
:10098000BF91AF919F918F917F916F915F914F91A7
:100990003F912F910F900BBE0F900FBE0F901F90A5
:1009A00018951F93CF93DF93CDB7DEB7AC970FB6F3
:1009B000F894DEBF0FBECDBF80E0E1ECF7E0909190
:1009C000F10091938F5F8830D1F779DC8091E80056
:1009D00083FF35C18091C1072091C207253009F4FA
:1009E00084C0263040F42130A1F1213070F0233052
:1009F00009F025C12EC0283009F4F3C0293009F4CC
:100A000002C1263009F01BC193C0803821F0823822
:100A100009F015C108C08091BD079091BE079923C8
:100A200071F082600CC08091C5078F708093E900DF
:100A30009091EB0081E095FF80E01092E9009091A9
:100A4000E800977F9093E8008093F1001092F10006
:100A5000D3C0882319F0823009F0F1C090E08F7183
:100A60009070009729F08230910509F0E8C00BC022
:100A70008091C307813009F0E2C0233009F080E0A3
:100A80008093BE072CC08091C307882341F5209135
:100A9000C5072F7009F4D3C02093E9008091EB00C3
:100AA00080FF1DC08091C207833021F48091EB004C
:100AB000806213C08091EB0080618093EB0081E045
:100AC00090E002C0880F991F2A95E2F78093EA0010
:100AD0001092EA008091EB0088608093EB00109206
:100AE000E9008091E800877F8AC0882309F0A7C0C9
:100AF0001091C3071F778091E3008078812B80934A
:100B0000E3008091E800877F8093E8008ADD809190
:100B1000E80080FFFCCF8091E30080688093E300D1
:100B2000112311F083E001C082E08093C00787C0E9
:100B30008058823008F083C08091C3079091C40729
:100B400023E08C3D9207A9F583E08C838AE28B83B6
:100B50005FB7F894DE01139680E090E04EE061E22A
:100B6000E42FF0E060935700E49180FF03C0E2952A
:100B7000EF704F5FEF702E2F30E0EA3018F0295CF5
:100B80003F4F02C0205D3F4F13963C932E93129728
:100B9000019612968431910519F75FBF8091E800A4
:100BA000877F8093E800CE0103966AE270E00FDC55
:100BB00012C06091C507AE014F5F5F4FDCDBBC0127
:100BC000009709F43CC08091E800877F8093E8009B
:100BD00089819A8158DC8091E8008B778093E800C6
:100BE0002EC0803861F58091E800877F8093E8000F
:100BF0008091BC078093F1008091E8008E7780930C
:100C0000E8000FDD1CC08823D1F49091C307923017
:100C1000B0F48091E800877F8093E8009093BC0750
:100C200000DD8091BC07882321F48091E30087FFD9
:100C300002C084E001C081E08093C00733DB809173
:100C4000E80083FF0AC08091E800877F8093E80076
:100C50008091EB0080628093EB00AC960FB6F89425
:100C6000DEBF0FBECDBFDF91CF911F9108950895D4
:100C7000CF938091C0078823A9F08091E9008F70FD
:100C80009091EC0090FF02C0C0E801C0C0E0C82B0A
:100C90001092E9008091E80083FF01C082DECF70EE
:100CA000C093E900CF910895CF93DF93EC01809139
:100CB000E80083FFA3C0888190E02091C5073091B0
:100CC000C6072817390709F099C08091C2078132F9
:100CD00069F0823220F4803209F090C03CC0823248
:100CE00009F46BC0833209F089C07AC08091C107D2
:100CF000813A09F083C08091E800877F8093E80003
:100D00008091E80080FFFCCF8C899D89AE89BF89E6
:100D10008093F100492F5A2F6B2F77274093F100D2
:100D2000AD01662777274093F1008B2F9927AA27DB
:100D3000BB278093F100888D8093F100898D80938B
:100D4000F1008A8D8093F1008091E8008E77809386
:100D5000E80067DC53C08091C107813209F04EC0C2
:100D60008091E800877F8093E80005C08091C007EC
:100D7000882309F443C08091E80082FFF7CF3091C7
:100D8000F1002091F1009091F1008091F1003C8BF5
:100D90002D8B9E8B8F8B8091F100888F8091F1003D
:100DA000898F8091F1008A8F8091E8008B77809302
:100DB000E80037DCCE0117D121C08091C107813214
:100DC000E9F48091E800877F8093E8002ADC809135
:100DD000C3079091C407998B888BCE0104D10EC0B4
:100DE0008091C107813251F48091E800877F809320
:100DF000E80017DCCE016091C307F5D0DF91CF91F9
:100E00000895CF93DF93EC014096FC018BE0DF0166
:100E10001D928A95E9F782E08C83898783E08E872B
:100E2000CE01019661E0C1DB882359F0CE01069620
:100E300061E0BBDB882329F0CE010B9661E0B5DBD6
:100E400001C080E0DF91CF910895CF93FC01C62FC0
:100E50008091C0078430E9F444895589668977898F
:100E60004115510561057105A1F081818F70809355
:100E7000E9008091E80085FD08C08091E8008E7748
:100E80008093E800EFDB882329F4C093F10080E031
:100E900001C082E0CF910895282FFB0184859585BC
:100EA000622FD3DF882319F08FEF9FEF089580E042
:100EB00090E00895FC018091C007843029F54489B1
:100EC0005589668977894115510561057105E1F0FC
:100ED00081818F708093E9008091F2009091F300FE
:100EE0000097A1F09091E8008091E8008E778093C0
:100EF000E80095FD0DC0B6DB882359F49091E80019
:100F00009E779093E800089582E0089580E0089528
:100F100080E008952091C007243099F4FC014489B1
:100F2000558966897789411551056105710549F033
:100F300021812F702093E9002091E80020FF01C05B
:100F4000B9CF0895FC018091C007843051F54489E0
:100F5000558966897789411551056105710509F142
:100F600086818F708093E9008091E80082FF1CC029
:100F70008091F2009091F300009721F08091F100B0
:100F800090E002C08FEF9FEF2091F2003091F300CC
:100F90002115310559F42091E8002B772093E800C2
:100FA00008958FEF9FEF08958FEF9FEF0895FC0155
:100FB00084859585C7DF97FF02C08EEF9FEF089568
:100FC000FB012EE0DB011D922A95E9F723E0238344
:100FD0002CE437E03187208727ED37E033872287FD
:100FE0009587848708950895CF93DF93EC01E0916E
:100FF0006001F091610193838283809168019091F7
:101000006901C817D90760F480916C0190916D0156
:1010100060916001709161016E5F7F4F2DD316C0AA
:1010200080916E0190916F016091600170916101FA
:101030006E5F7F4F21D38091500190915101C8176D
:10104000D90720F4D0935101C0935001DF91CF9183
:1010500008954F925F926F927F928F929F92BF926C
:10106000CF92DF92EF92FF920F931F93CF93DF9374
:101070002C014B01EA013901B02E81E290E058D3F6
:101080008C01009709F4CEC0C114D10419F4CE012B
:101090004FD36C01F801D08EC78AC114D10419F462
:1010A000C80176D3BFC0C60165EA70E0AE01EFD4D7
:1010B000CE010197F801C788D08CC80ED91EC8018F
:1010C0004996B40148E050E0E9D4F80110A2CB2DD4
:1010D000F4E0FB1508F4C4E0F801C68B72E0872E3B
:1010E000912C800E911EC4019AD2C8010C9697D201
:1010F000F8011187008785E090E08C1B91099587A6
:101100008487138B028BC601B201A30142D3F8017D
:1011100091838083E114F10419F0F70111830083B6
:101120000FB6F8940F9280916A018F5F80936A01E5
:1011300080916001909161010097B1F51093610178
:101140000093600180916A01813009F03CC0C0E0E9
:10115000D0E0CE0163E0880F991F6A95E1F78C0F0C
:101160009D1F8E589E4F4DD22196C530D10589F7CF
:10117000CFE9D1E0CE0145D258EAC52E51E0D52EB7
:10118000C6013FD281EB91E03CD28AEB91E039D2AB
:1011900083EC91E036D2D0936F01C0936E01D09270
:1011A0006D01C0926C010FC080916601882359F4D3
:1011B000E0916001F09161018689B81620F01093EA
:1011C000610100936001F801268980917001821706
:1011D00010F420937001809171018F5F80937101F1
:1011E00080916701821710F42093670130E0C901F4
:1011F00043E0880F991F4A95E1F7820F931F8E589D
:101200009E4FB40110D20F900FBE809166018823CB
:1012100059F0E0916001F091610186898B1520F40D
:1012200083D302C08FEF01C081E0DF91CF911F9186
:101230000F91FF90EF90DF90CF90BF909F908F9095
:101240007F906F905F904F900895AF92BF92CF9232
:10125000DF92EF92FF920F938DE69AE06BE471E0DC
:1012600040E850E020E030E000E0EE24FF24CC2411
:10127000DD24AA24BB24EDDE813041F4F894809370
:101280006601109269011092680113D30F91FF90CB
:10129000EF90DF90CF90BF90AF900895809165015F
:1012A0008F5F8093650108950F931F93CF93DF9312
:1012B00080916501882309F08CC08091680190912C
:1012C000690101969093690180936801809168019A
:1012D00090916901009779F580916E0190916F016D
:1012E00020916C0130916D0130936F0120936E015C
:1012F00090936D0180936C01809162018F5F809368
:101300006201E0916E01F0916F018081882319F4F0
:101310008FEF9FEF0CC0E0916E01F0916F0105809F
:10132000F681E02D0680F781E02D828193819093F4
:1013300051018093500120916801309169018091A1
:101340005001909151012817390708F447C0E091E6
:101350006E01F0916F018081882319F48FEF9FEF68
:1013600012C0E0916E01F0916F010580F681E02DD1
:10137000C681D7818A819B81209168013091690162
:101380002817390728F4909351018093500126C003
:101390008E010E5F1F4FC801A4D18C899D890097D3
:1013A00019F0CE010C969DD12E898091670182178C
:1013B00010F42093670130E0C90143E0880F991FC2
:1013C0004A95E1F7820F931F8E589E4FB8012BD19B
:1013D000BECF809164018F5F80936401DF91CF91D4
:1013E0001F910F910895EF92FF920F931F93CF9348
:1013F000DF930F92CDB7DEB70FB6F8940F928091BE
:10140000650181508093650180916501882309F011
:1014100059C080916A018823A1F555C0E091B601B9
:10142000F091B701E680F780C7010C965AD1870189
:101430000E5F1F4FC80155D1D70156962C91569774
:1014400080916701821710F42093670130E0C90191
:1014500053E0880F991F5A95E1F7820F931F8E581A
:101460009E4FB801E0D0E0916001F0916101D70199
:1014700056969C9156978689981720F0B1E0B983CB
:1014800001C019828091B101882341F680916401E5
:10149000882339F40BC008DF809164018150809368
:1014A0006401809164018823B1F707C0E981E130CC
:1014B00021F080916301813029F41092630134D2CC
:1014C00081E001C080E00F900FBE0F90DF91CF91BF
:1014D0001F910F91FF90EF90089523C0DFDEC09120
:1014E000BA0181DFCC23E9F00FB6F8940F92E091B6
:1014F000BF01F091C001C681D781CE010296F1D023
:1015000080916A01815080936A0180916B018150C2
:1015100080936B010F900FBE8F89988D39D1CE01CA
:1015200037D180916B018823C9F680917201823096
:10153000C0F3FAD1F6CF0F931F93CF93DF938C01B3
:10154000009791F0ABDEC0916801D0916901C00FA6
:10155000D11F80916001909161010296C2D0CE01AD
:1015600043DD41DF882309F4DFD1DF91CF911F9163
:101570000F91089580916501882349F081E080935F
:101580006301089580916701815080936701809184
:10159000670190E0FC0173E0EE0FFF1F7A95E1F721
:1015A000E80FF91FEE58FE4F8081882359F3809190
:1015B000670190E0FC0163E0EE0FFF1F6A95E1F721
:1015C000E80FF91FEE58FE4FA181B28112960D90DF
:1015D000BC91A02DB283A183CF010396A817B907B0
:1015E00031F412968D919C9113979283818301809F
:1015F000F281E02D86819781909361018093600153
:101600000895FC010396928381832FEF3FEF34838B
:101610002383968385839087878310820895FC01B6
:10162000118610860895CF93DF93EC01FB01898129
:101630009A81DC0112962D913C911397338322837A
:1016400029813A813583248312962D913C911397F9
:10165000D90115967C936E931497DC0113967C93B5
:101660006E9312977A836983D187C08788818F5F51
:101670008883DF91CF910895CF93DF939C01EB0195
:10168000488159818FEF4F3F580721F4F901A78115
:10169000B08510C0D901139604C012960D90BC916C
:1016A000A02D1296ED91FC9113978081918148179E
:1016B000590798F71296ED91FC911397FB83EA83F3
:1016C000D583C483BD83AC831396DC93CE931297EA
:1016D00039872887F90180818F5F8083DF91CF91DF
:1016E0000895FC01A281B3818481958115969C9314
:1016F0008E931497A481B5818281938113969C93D4
:101700008E931297A085B18511968D919C91129719
:101710008E179F0731F48481958112969C938E9346
:101720001197118610868C9181508C938C9108951D
:10173000CF93DF93EC01B2DD8091CC019091CD018C
:10174000009731F48FEC91E09093CD018093CC0120
:101750008091AA079091AB079E01280F391F45E0A1
:101760002B3D340770F48217930758F4C091CC01D5
:10177000D091CD01C80FD91F3093AB072093AA0792
:1017800002C0C0E0D0E02FDECE01DF91CF910895FE
:10179000089521E1FC012083319732E23083FC017E
:1017A0003297A3E3A083FC0133976083FC01349755
:1017B0007083FC0135971082FC01369760E86083E6
:1017C000FC0137971082FC01389762E06083FC01CE
:1017D000399763E06083FC013A9764E06083FC0121
:1017E0003B9765E06083FC013C9766E06083FC0109
:1017F0003D9767E06083FC013E9768E06083FC01F1
:101800003F9769E06083FC01709760E16083FC01B1
:1018100071972083FC01729722E12083FC0173976A
:1018200023E12083FC01749724E12083FC01759758
:1018300025E12083FC01769726E12083FC01779740
:1018400027E12083FC01789728E12083FC01799728
:1018500029E12083FC017A9720E22083FC017B9719
:1018600021E22083FC017C973083FC017D9723E2F9
:101870002083FC017E974083FC017F975083FC010D
:10188000B09726E22083FC01B19727E22083FC0178
:10189000B29728E22083FC01B39729E22083FC0160
:1018A000B49720E32083FC01B59721E3208386973A
:1018B000089589EF90E090938900809388001092BA
:1018C00080008BE08093810082E080936F00A09184
:1018D0006001B0916101CD91CDBFDD91DEBFFF917F
:1018E000EF91DF91CF91BF91AF919F918F917F91B8
:1018F0006F915F914F913F912F911F910F91FF90A9
:10190000EF90DF90CF90BF90AF909F908F907F909F
:101910006F905F904F903F902F901F900F900FBE51
:101920000F90089581E008950F920FB6F8940F92EA
:101930001F9211242F923F924F925F926F927F924B
:101940008F929F92AF92BF92CF92DF92EF92FF92CF
:101950000F931F932F933F934F935F936F937F93B7
:101960008F939F93AF93BF93CF93DF93EF93FF93A7
:10197000A0916001B09161010DB60D920EB60D926D
:10198000F9DDA0916001B0916101CD91CDBFDD91F4
:10199000DEBFFF91EF91DF91CF91BF91AF919F910A
:1019A0008F917F916F915F914F913F912F911F91F7
:1019B0000F91FF90EF90DF90CF90BF90AF909F90EE
:1019C0008F907F906F905F904F903F902F901F90DF
:1019D0000F900FBE0F9008950F920FB6F8940F92CC
:1019E0001F9211242F923F924F925F926F927F929B
:1019F0008F929F92AF92BF92CF92DF92EF92FF921F
:101A00000F931F932F933F934F935F936F937F9306
:101A10008F939F93AF93BF93CF93DF93EF93FF93F6
:101A2000A0916001B09161010DB60D920EB60D92BC
:101A30003BDCA0DDA0916001B0916101CD91CDBFF3
:101A4000DD91DEBFFF91EF91DF91CF91BF91AF911B
:101A50009F918F917F916F915F914F913F912F91C6
:101A60001F910F91FF90EF90DF90CF90BF90AF90BC
:101A70009F908F907F906F905F904F903F902F90AE
:101A80001F900F900FBE0F900895A6DF1895DC01F0
:101A900001C06D9341505040E0F70895FB01DC0117
:101AA0004150504048F001900D920020C9F701C00C
:101AB0001D9241505040E0F70895CF93DF93CDB78A
:101AC000DEB7AE01475F5F4F8D819E816F81788564
:101AD0009DD0DF91CF9108950F931F93CF93DF9304
:101AE000CDB7DEB70F811885AE01455F5F4FF801B6
:101AF000838188608383C80169857A8587D0F801EE
:101B00002381277F2383DF91CF911F910F91089528
:101B10008F929F92AF92BF92CF92DF92EF92FF92FD
:101B20000F931F93CF93DF934B015A017901F90172
:101B3000238120FF1AC06C01C0E0D0E012C0C701B1
:101B400075D2FFEF8F3F9F0791F0F60181936F01F0
:101B50000F5F1F4F02C000E010E00815190579F76C
:101B60002196CA15DB05B9F702C0C0E0D0E0CE016E
:101B7000DF91CF911F910F91FF90EF90DF90CF9069
:101B8000BF90AF909F908F9008958F929F92AF9249
:101B9000BF92CF92DF92EF92FF920F931F93CF935A
:101BA000DF934B015A016901F901238121FF1EC016
:101BB000DC01C0E0D0E013C00F5F1F4FF6012085AD
:101BC00031858C91B601F9010995009789F4089443
:101BD000E11CF11CD801E814F90471F72196CA152B
:101BE000DB0531F08D01EE24FF24F4CFC0E0D0E01E
:101BF000CE01DF91CF911F910F91FF90EF90DF9079
:101C0000CF90BF90AF909F908F9008952F923F926A
:101C10004F925F926F927F928F929F92AF92BF92FC
:101C2000CF92DF92EF92FF920F931F93CF93DF93A8
:101C3000CDB7DEB72D970FB6F894DEBF0FBECDBF80
:101C40003C017D876C875A01FC01178216828381D3
:101C500081FFBBC12E010894411C511CF3019381EB
:101C6000EC85FD8593FD859193FF8191FD87EC8740
:101C7000882309F4A6C1853241F493FD859193FF31
:101C80008191FD87EC87853221F490E0B3010ED27B
:101C9000E5CFFF24EE2410E01032B0F48B3269F06F
:101CA0008C3228F4803251F0833271F40BC08D32C3
:101CB00039F0803349F411602CC01260146029C0DF
:101CC000186027C0106125C017FD2EC0282F205393
:101CD0002A3098F416FF08C08F2D880FF82EFF0CBD
:101CE000FF0CF80EF20E15C08E2D880FE82EEE0CAC
:101CF000EE0CE80EE20E10620CC08E3221F416FDDE
:101D000060C1106406C08C3611F4106802C08836B9
:101D100059F4EC85FD8593FD859193FF8191FD87B5
:101D2000EC87882309F0B8CF982F9554933018F09A
:101D30009052933038F424E030E0A20EB31E3FE31B
:101D400039830FC0833631F0833781F0833509F052
:101D500056C021C0F5018081898322E030E0A20EC7
:101D6000B31E21E0C22ED12C420113C092E0292ED5
:101D7000312C2A0C3B1CF5018080918016FF03C09A
:101D80006F2D70E002C06FEF7FEFC40144D16C0192
:101D900051011F7714C082E0282E312C2A0C3B1CE5
:101DA000F5018080918016FF03C06F2D70E002C0A6
:101DB0006FEF7FEFC40124D16C011068510113FD56
:101DC0001AC005C080E290E0B30170D1EA948E2D74
:101DD00090E0C816D906B0F30EC0F40117FD859146
:101DE00017FF81914F0190E0B30160D1E110EA94B7
:101DF0000894C108D108C114D10479F7DFC0843632
:101E000011F0893649F5F50117FF07C080819181EE
:101E1000A281B38124E030E008C080819181AA27AB
:101E200097FDA095BA2F22E030E0A20EB31E012F3D
:101E30000F76B7FF08C0B095A095909581959F4FFC
:101E4000AF4FBF4F0068BC01CD01A2012AE030E0D6
:101E500059D1D82ED4183EC0853721F41F7E2AE0F0
:101E600030E020C0197F8F36A9F0803720F4883504
:101E700009F0A7C00BC0803721F0883709F0A1C056
:101E800001C0106114FF09C0146007C014FF08C02E
:101E9000166006C028E030E005C020E130E002C056
:101EA00020E132E0F50117FF07C060817181828176
:101EB000938144E050E006C06081718180E090E051
:101EC00042E050E0A40EB51EA2011CD1D82ED418B9
:101ED000012F0F7706FF09C00E7FDF1430F404FFD7
:101EE00006C002FD04C00F7E02C01D2D01C01F2DC3
:101EF000802F90E004FF0CC0FE01ED0DF11D20814C
:101F0000203311F4097E09C002FF06C01E5F05C020
:101F100086789070009709F01F5F802E992403FD4A
:101F200011C000FF0CC0FD2C1E1548F4FE0CF11A68
:101F30001E2D05C080E290E0B301B8D01F5F1E15D2
:101F4000C8F304C01E1510F4E11A01C0EE2484FE8B
:101F50000EC080E390E0B301A9D082FE1DC081FED7
:101F600003C088E590E010C088E790E00DC0C40190
:101F700086789070009781F081FC02C080E201C0F9
:101F80008BE207FD8DE290E0B30190D005C080E3C5
:101F900090E0B3018BD0FA94DF14C8F3DA94F20125
:101FA000ED0DF11D808190E0B30180D0DD20B1F70F
:101FB00005C080E290E0B30179D0EA94EE20C9F741
:101FC0004DCEF3018681978102C08FEF9FEF2D9652
:101FD0000FB6F894DEBF0FBECDBFDF91CF911F913A
:101FE0000F91FF90EF90DF90CF90BF90AF909F90B8
:101FF0008F907F906F905F904F903F902F900895BB
:10200000FC010590615070400110D8F780959095C3
:102010008E0F9F1F0895FC016150704001900110C8
:10202000D8F7809590958E0F9F1F0895CF93DF93DB
:10203000EC012B8120FF35C026FF09C02F7B2B83AD
:102040008E819F8101969F838E838A8128C022FF83
:102050000FC0E881F9818081992787FD90950097CD
:1020600019F420622B831DC03196F983E88311C0D7
:10207000EA85FB85CE01099597FF0BC02B813FEFC9
:102080008F3F930711F480E101C080E2822B8B83A4
:1020900008C02E813F812F5F3F4F3F832E8390E00A
:1020A00002C08FEF9FEFDF91CF9108950F931F93A1
:1020B000CF93DF938C01EB018B8181FF1BC082FFEB
:1020C0000DC02E813F818C819D812817390764F4D2
:1020D000E881F9810193F983E88306C0E885F985F1
:1020E000802F0995009731F48E819F8101969F83FF
:1020F0008E8302C00FEF1FEFC801DF91CF911F91B8
:102100000F910895FA01AA27283051F1203181F169
:10211000E8946F936E7F6E5F7F4F8F4F9F4FAF4FEF
:10212000B1E03ED0B4E03CD0670F781F891F9A1F02
:10213000A11D680F791F8A1F911DA11D6A0F711DB6
:10214000811D911DA11D20D009F468943F912AE0C2
:10215000269F11243019305D3193DEF6CF010895AA
:10216000462F4770405D4193B3E00FD0C9F7F6CFDB
:10217000462F4F70405D4A3318F0495D31FD4052A3
:10218000419302D0A9F7EACFB4E0A6959795879539
:1021900077956795BA95C9F7009761057105089518
:1021A0009B01AC010A2E06945795479537952795C4
:1021B000BA95C9F7620F731F841F951FA01D08955C
:0421C000F894FFCFC1
:1021C4004D61696E5461736B005669536554617354
:1021D4006B00504F525444203D202533780D0A00A3
:1021E40000831000000104100000018208000001B7
:1021F4000000000000000000000000A1200000001A
:10220400000200A10100000000000049444C450008
:02221400FFFFCA
:00000001FF
