:1000000022C200003DC200003BC2000039C2000015
:1000100037C2000035C2000033C2000031C2000008
:100020002FC200002DC200000C94AE0E29C20000A9
:1000300027C2000025C2000023C2000021C2000028
:100040001FC200001DC200001BC2000019C2000038
:1000500017C2000015C2000013C2000011C2000048
:100060000FC200000DC200000BC2000009C2000058
:1000700007C2000005C2000003C2000001C2000068
:10008000FFC10000FDC10000FBC10000F9C100007C
:10009000F7C10000F5C100001201100102000008C4
:1000A000EB03442000000102DC01090243000201CD
:1000B00000C0320904000001020201000524000111
:1000C000100524010301042402060524060001078B
:1000D0000582030800FF09040100020A000000076E
:1000E0000504021000000705830210000004030944
:1000F000041E03540068006F006D0061007300204F
:100100000050006900720063006800650072000022
:100110000028037500730065007200690061006CBF
:100120000020005500530042002F004900320043D8
:10013000002F005300500049000000756E6B6E6F79
:10014000776E20636F6D6D616E640043206F722067
:1001500057206578706563746564206166746572A4
:100160002053005350492077726974652066616995
:100170006C65640043206F722052206F7220532000
:100180006578706563746564206166746572204784
:10019000006E6F207375636820706F7274006E6FED
:1001A000207375636820706F72740043206F722033
:1001B0005320657870656374656420616674657248
:1001C00020490050206578706563746564004E6155
:1001D000636B206F6E2077722062797465004E61C8
:1001E000636B206F6E207772206164647265737335
:1001F000004E61636B206F6E2072642062797465BB
:10020000004E61636B206F6E2072642061646472C3
:10021000657373006E65776C696E652065787065CF
:100220006374656400756E6B6E6F776E20636F6DBF
:100230006D616E6400696E76616C69642069326319
:1002400020636F6D6D616E6400696E76616C6964C8
:10025000206672657175656E6379005020657870EF
:100260006563746564005B52575D206578706563F3
:10027000746564006164647265737320696E76618D
:100280006C696420666F72205700616464726573E4
:100290007320696E76616C696420666F722052000B
:1002A0006164647265737320696E76616C69640061
:1002B000696E76616C6964206461746100696E7650
:1002C000616C6964206461746100696E76616C6957
:1002D00064206461746100696E76616C6964206792
:1002E00070696F20636F6D6D616E64006E6F20705A
:1002F0006F727420646972656374696F6E00696EF1
:1003000076616C696420706F727400696E76616CDE
:10031000696420706F727400696E76616C69642024
:100320006269742076616C756500696E76616C69CE
:100330006420706F727400696E76616C69642073FA
:10034000706920636F6D6D616E6400696E76616CBB
:100350006964206672657175656E637900696E7691
:10036000616C6964206F7264657200696E76616C9D
:100370006964206D6F646500676172626167652002
:1003800061742074686520656E64206F66206C69F6
:100390006E65006E6F206461746100696E76616CD9
:1003A00069642061646320636F6D6D616E640069D0
:1003B0006E76616C696420766F6C74616765006944
:1003C0006E76616C696420766F6C74616765006934
:1003D0006E76616C696420766F6C74616765006924
:1003E0006E76616C696420766F6C74616765006914
:1003F0006E76616C696420766F6C746167652072DB
:1004000065666572656E636500696E76616C6964C8
:10041000206368616E6E656C00696E76616C6964FC
:10042000206368616E6E656C00676172626167650A
:1004300020617420626567696E6E696E67206F6601
:10044000206C696E650011241FBECFEFD0E1DEBFC6
:10045000CDBF11E0A0E0B1E0E2E7F6E202C0059016
:100460000D92A830B107D9F712E0A8E0B1E001C0C1
:100470001D92A43AB107E1F70E94E40D0C943713E2
:10048000BFCD87E880937A0082E08093080180E006
:1004900091E090930A01809309010895FC01808105
:1004A000882331F0813011F481E003C080E001C085
:1004B00083E08295880F880F807C876880937A001C
:1004C000A8E0B1E083E001900D928150E1F708953A
:1004D000DC01E8E0F1E083E001900D928150E1F76A
:1004E000089540B321E030E0082E02C0220F331FF0
:1004F0000A94E2F7922F9095942390BB90917E00FE
:10050000292B20937E00806C80937C0080917A0060
:10051000806480937A0080917A0086FDFCCF809180
:100520007800909179000895FC010496938382836A
:10053000918380830895DC011296ED91FC911397CD
:100540002D913C911197C9010197E817F90719F10D
:10055000CD0104962817390761F420E030E0CD0181
:100560008D579F4FE817F90711F421E030E022235F
:1005700091F461931396FC93EE9312979D012C5F77
:100580003F4FCD018C579F4FE817F90720F0139686
:100590003C932E9312970895DC01ED91FC911197F5
:1005A00012968D919C911397E817F90711F440E08A
:1005B0000FC041911196FC93EE939D012C5F3F4F2C
:1005C000CD018C579F4FE817F90710F02D933C93FE
:1005D000842F0895FC01A081B18182819381A817A5
:1005E000B90711F480E008958C910895FC01962FCD
:1005F000A081B18162817381AF014C5F5F4FEC5785
:10060000FF4F20E030E002C02F5F3F4FA617B70733
:1006100049F08C91891741F01196AE17BF07A0F3EE
:10062000DA01F2CF2FEF3FEFC9010895DA01292F48
:100630003327223049F0233061F02130F1F4E8E92A
:10064000F0E082E190E01DC0EAEAF0E083E490E0AF
:1006500018C0813049F0813018F0823071F408C040
:10066000EDEEF0E0849107C0E1EFF0E0849103C08B
:10067000E1E1F1E0849190E004C0E0E0F0E080E0AE
:1006800090E0ED93FC9308950F931F93CF93DF9326
:100690008C01EA0150DF209781F0C8016AE34BDF4B
:1006A000C80160E204C02196F9016491C80143DFEA
:1006B0009E01FE0184918823B1F7C8016DE03BDF04
:1006C000C8016AE038DF80E0DF91CF911F910F9180
:1006D00008959F92AF92BF92CF92DF92EF92FF92D6
:1006E0000F931F93DF93CF9300D000D0CDB7DEB729
:1006F0006C015B01FC01208131818281938128178B
:10070000390709F491C3C60147DF8983863561F44F
:10071000C50166E510DFC50161E30DDFC5016EE2CD
:100720000ADFC50169E325C3893409F0F7C0C601B2
:1007300033DF8983833409F051C0F6012081318190
:10074000828193812817390799F0C60125DF082F88
:10075000C60122DF10E0102F002790E0082B192B94
:10076000C80101978052934018F4C8010E94020CFE
:100770000E94400C8C01C50169E4DDDEC50163E423
:10078000DADEC801892F992782958F70682F8A3009
:1007900010F4605D05C0803110F068E501C0695C4F
:1007A000C501C9DE812F9927682F6F706A3010F458
:1007B000605D01C0695CC501BEDEC801B4E096950C
:1007C0008795BA95E1F7682F6F706A3010F4605D15
:1007D00001C0695CC501AFDE602FC4C2833509F07A
:1007E0008EC07E010894E11CF11CC50169E4A3DE02
:1007F000C50163E5A0DEC601CFDE898380FF3EC070
:1008000061E00E94620C882339F40E94930CC501B8
:100810006EE441E052E000C3C50161E48CDEC60134
:10082000BBDE182F25C040E0123008F041E0C701C0
:1008300061E00E94B40C882339F40E94930CC50136
:100840006EE441EF51E0E8C2698162956F706A30F1
:1008500010F4605D01C0695CC5016DDE69816F7077
:100860006A3010F4605D01C0695CC50164DE11503E
:100870001123C9F6C60190DE89832FC060E00E9473
:10088000620C882339F40E94930CC5016EE44EED8E
:1008900051E0C2C2C50161E44EDE17C0C6017CDE74
:1008A0008983C70161E00E94970C882329F0C50164
:1008B00061E441DE115007C00E94930CC5016EE453
:1008C0004EEC51E0A9C2112349F7C60165DE8983C8
:1008D0001981133511F01035B1F78981833509F489
:1008E00084CF803539F00E94930CC50166E443EC57
:1008F00051E092C20E94930CC50160E53AC288356E
:1009000041F40E948C0CC50169E415DEC50168E55F
:1009100030C2C50166E44BEA51E07EC2873409F07B
:100920009FC0C50167E407DEC60136DE89838334D4
:1009300079F5C50163E4FFDD22C0C6012DDE182F65
:10094000C6012ADE682F812F02D7882329F4C5012A
:1009500066E44EE951E060C2C501612FECDD812FF4
:1009600002D7082F10E007FD02C069E401C06FE460
:10097000C501E1DD1F5F183011F0000FF4CFF60163
:10098000208131818281938128173907B1F646C2CF
:10099000823539F5C50162E51AC0C601FDDD182FA3
:1009A000ECD68983C501612FC6DD698162956F70C0
:1009B0006A3010F4605D01C0695CC501BCDD69810D
:1009C0006F706A3010F4605D01C0695CC501B3DD11
:1009D000F601208131818281938128173907E9F658
:1009E0001DC2823409F037C0C50162E4A4DD2AC00B
:1009F000C601D2DDF82EC601CFDD082FC601CCDD41
:100A0000182FC601C9DD282F8F2D602F412FBFD68B
:100A1000882329F4C50166E441E951E0FDC1C5011F
:100A20006F2D89DD8F2DA9D6082F10E0602F661F4E
:100A30006627661F605DC5017EDD1F5F183011F0FF
:100A4000000FF4CFF6012081318182819381281734
:100A5000390771F6E3C1C50166E444E751E0DCC142
:100A6000833509F0CCC0C50163E565DDC60194DDC1
:100A70008983833409F061C0F6012081318182814C
:100A8000938128173907B1F0C60186DDE82EC6012B
:100A900083DDF82EC60180DD082FC6017DDD10E064
:100AA000102F002790E0082B192B8E2D6F2DA801F9
:100AB0000E94030E0E94450E182F0E94530E082F0D
:100AC0000E945C0E7C01C50163E435DD1A3018F428
:100AD000612F605D06C0103110F068E502C0612F23
:100AE000695CC50128DD002311F06CE401C06DE4F0
:100AF000C50121DDC701892F992782958F70682F45
:100B00008A3010F4605D05C0803110F068E501C0E6
:100B1000695CC50110DD8F2D9927682F6F706A30D1
:100B200010F4605D01C0695CC50105DDC70174E0BA
:100B3000969587957A95E1F70BC1873509F05AC0EC
:100B4000C50167E5F8DCC60127DD8983883429F013
:100B50008C3419F0992401E039C000E0883409F49C
:100B600001E0802F0E949A0EC60116DD8983992428
:100B700093942CC0198124C0C6010EDD8983C7015E
:100B8000B70141E00E948A0E8823A9F0698162952D
:100B90006F706A3010F4605D01C0695CC501CBDC28
:100BA00069816F706A3010F4605D01C0695CC501D5
:100BB000C2DC115005C0C50166E443E651E02CC11A
:100BC0001123D1F6C601E8DC898304C07E010894B4
:100BD000E11CF11CF601208131818281938128176B
:100BE000390741F6992009F419C181E080270E9454
:100BF0009A0E14C1C50166E44BE451E00DC1813485
:100C000009F006C1C50161E496DCC601C5DC182FF8
:100C10008983833409F06BC0C50163E48CDCF60181
:100C200020813181828193812817390799F0C6018B
:100C3000B3DC8A83C601B0DC082FC601ADDC10E04E
:100C4000102F002790E0082B192B1C830B83CE015B
:100C5000029624DCCE0102963BDC8A81882341F097
:100C6000813019F0C50169E405C0C50163E402C023
:100C7000C50166E460DC8B819C8164E670E00E94C3
:100C8000DD126A3010F4605D05C0603110F068E577
:100C900001C0695CC5014FDCC5016EE24CDC8B8193
:100CA0009C8164E670E00E94DD129C838B836AE085
:100CB00070E00E94DD126A3010F4605D05C06031A2
:100CC00010F068E501C0695CC50135DC8B819C8151
:100CD0006AE070E00E94DD129C838B83682F8A306B
:100CE00008F443C0803108F442C068E541C0823551
:100CF00019F0863509F092C0C501612F1CDCC601D0
:100D00004BDCEFDB7C011235B1F5892F99278295F9
:100D10008F70682F8A3010F4605D05C0803110F04C
:100D200068E501C0695CC50106DC8F2D992787FD48
:100D30009A95682F6F706A3010F4605D01C0695C2D
:100D4000C501F9DBC70134E0959587953A95E1F740
:100D5000682F6F706A3010F4605D01C0695CC50176
:100D6000EADB6E2D6F706A3010F4605D01C0695C63
:100D7000C501E1DB53C0CE010296AADBB70188278B
:100D800077FD8095982F2B813C8140E050E00E94B8
:100D9000BE12DC01CB0180509E4FAF4FBF4F2AE007
:100DA000B695A795979587952A95D1F77C0164E626
:100DB00070E00E94DD126A3010F4605D05C06031A1
:100DC00010F068E501C0695CC501B5DBC5016EE2E4
:100DD000B2DB04E610E0C701B8010E94DD127C011D
:100DE000C8016AE070E00E94DD128B01C7010E9419
:100DF000DD126A3010F4605D05C0603110F068E506
:100E000001C0695CC50197DB0A30110521F306C0FA
:100E1000C50166E44BE351E037DC07C0C5016DE076
:100E20008ADBC5016AE087DB81E00F900F900F90AD
:100E30000F90CF91DF911F910F91FF90EF90DF9076
:100E4000CF90BF90AF909F900895CF93DF93EC0128
:100E500002C0CE01A1DB288139818A819B812817BC
:100E6000390731F0CE01B6DB8D3011F08A3089F7C9
:100E7000DF91CF9108951F93CF93DF93182FC82F41
:100E8000D0E0CE010E942613892B19F0CE01C09725
:100E900008C01154163018F08FEF9FEF02C0CE013A
:100EA000C797DF91CF911F910895CF92DF92EF9274
:100EB000FF921F93CF93DF93EC017B016A012EC059
:100EC000CE0188DB90E00E942C138C3551F4CE01CA
:100ED00063DBC70161E02FDBCE015EDB682FC7015A
:100EE0001CC0C9DF182F87FD21C0CE0155DBCE0104
:100EF00053DB90E00E942C13BEDF87FF06C0C601C3
:100F000065E44AEC52E0C0DB12C01295107F182B4A
:100F1000C70161E010DBC701612F0DDB288139813A
:100F20008A819B812817390709F0CACF81E0DF91B8
:100F3000CF911F91FF90EF90DF90CF9008958F9207
:100F40009F92AF92BF92CF92DF92EF92FF920F9358
:100F50001F93CF93DF936C017B015A01CB01E4DA3D
:100F6000C6011ADB90E00E942C138D3009F472C385
:100F70008A3009F07DC36EC3C60167DF5CC3863566
:100F800019F4C70166E544C3893409F0CDC0C7012F
:100F900069E4D1DAC60100DB90E00E942C138334AF
:100FA00071F5C0E0D0E015C0C601F6DA90E00E940D
:100FB0002C1361DF282F87FD1DC0CE0114E0880FA0
:100FC000991F1A95E1F7C22FDD27C7FDD095C82BD1
:100FD000D92BF6012081318182819381281739072D
:100FE00009F44AC3C601F6DA8D3009F445C38A30E4
:100FF000D9F642C3C50165E449E452E015C383351F
:1010000009F088C0C70163E596DAC601C5DA90E049
:101010000E942C138C01C601BFDA182F802F2BDF02
:10102000082F87FD07C0812F90E00E942C1323DF3B
:1010300088232CF4C50165E440EA52E0F5C2C82FCC
:10104000D0E0802F90E0B4E0880F991FBA95E1F7C7
:10105000C82BD92BC601A0DA90E00E942C13823550
:1010600079F5C0FD05C0C50165E44AE852E0DCC27F
:10107000C7016C2F60DAC601ADDA90E00E942C1334
:10108000FADE182F87FF05C0C50165E44DEB52E07D
:101090000FC0C60181DAC6017FDA90E00E942C13EE
:1010A000EADE682F87FF06C0C50165E440EB52E029
:1010B000EBDA16C01295107F612BC7013CDA18C01D
:1010C000873589F4C0FF05C0C50165E444E752E0F7
:1010D000ABC2C7016C2F2FDAC601B701A501E5DE4F
:1010E000882331F4A4C2C50165E446E652E09CC2FF
:1010F000C60152DA90E00E942C13833509F482CFA6
:10110000803529F0C50165E44BE552E08DC2C70189
:1011100060E57EC2883519F4C70168E579C2C5016A
:1011200065E445E352E080C2873409F0DAC0C701C4
:1011300067E401DAC60130DA90E00E942C138334B0
:1011400009F044C0C70163E4F6D9C60125DA90E08E
:101150000E942C13BC018154823028F0C50165E443
:101160004EEF52E061C2C701E6D910E000E0C601CF
:1011700013DA90E00E942C13893439F08F3429F06F
:10118000C50165E44CEE52E04FC2110F8F3409F4F3
:1011900011600F5F083059F7C701612FCCD9C60124
:1011A00019DA482FF6012081318182819381281735
:1011B000390709F440C2842F90E00E942C138D302F
:1011C00009F439C28A3009F0C0CF35C2823549F5F9
:1011D000C70162E5B0D9C601DFD990E00E942C13A7
:1011E000BC018154823028F0C50165E44BE053E036
:1011F0001BC2C701A0D9C601EDD9482FF601208135
:101200003181828193812817390709F414C2842F10
:1012100090E00E942C138D3009F40DC28A30D9F66B
:101220000AC2823409F058C0C70162E484D9C601F9
:10123000B3D990E00E942C13BC018154823028F075
:10124000C50165E44AE253E0EFC1C70174D910E07B
:1012500000E099248824110F000F990CC6019CD935
:1012600090E00E942C13813311F4016010C0803390
:1012700011F411600CC0863419F4F1E09F2A07C004
:10128000883529F0C50165E448E153E0CDC1839478
:1012900028E0821601F71095C701612F4CD9C701CC
:1012A000602F49D9C701692D46D9C60193D9482F66
:1012B000F60120813181828193812817390709F451
:1012C000BAC1842F90E00E942C138D3009F4B3C171
:1012D0008A3009F0ACCFAFC1C50165E447ED52E0FB
:1012E000A3C1833509F09BC0C70163E524D9C601BA
:1012F00053D990E00E942C13833409F05FC0C601DB
:1013000069D98D3009F449C08A3009F0C1C145C09E
:10131000C50165E44BE653E087C1C6013DD990E0C5
:101320000E942C13982F8C54823028F0C50165E45C
:101330004DE553E079C100E09D3409F001E0C0E0E3
:10134000D0E015C0C60128D990E00E942C1393DD8F
:10135000282F87FD1DC0CE01A4E0880F991FAA95F4
:10136000E1F7C22FDD27C7FDD095C82BD92BF60199
:1013700020813181828193812817390709F494C132
:10138000C60128D98D3009F48FC18A30D9F68CC1B5
:10139000C50165E44BE453E047C111E0C0E0D0E093
:1013A00000E09924C70163E4C6D8112309F043C1C2
:1013B000C701692DC0D8C701602F60C1873551F5BD
:1013C000C70167E5B8D8C60105D990E00E942C1383
:1013D000682F883411F08C3421F4C701ACD8C601D1
:1013E000DBD8C601F7D88D3019F08A3009F05EC11C
:1013F000C50165E443E953E017C1C601EBD88D3060
:1014000009F419C18A3009F416C1C50165E448E739
:1014100053E00AC1C50165E447E353E005C18134E7
:1014200009F0FEC0C70161E486D8C601B5D890E0D6
:101430000E942C13833409F0C0C0C70163E47BD839
:10144000F60120813181828193812817390709F4BF
:10145000F2C0C601BFD88D3009F4EDC08A3009F45E
:10146000EAC0C60199D890E00E942C13863459F046
:10147000893419F0833499F403C0C70162E005C0D0
:10148000C70161E002C0C70160E055D8F6012081C4
:101490003181828193812817390731F40FC1C50149
:1014A00065E44FEE53E0C0C0C60194D88D3009F416
:1014B00005C18A30C1F502C1C6016ED890E00E9414
:1014C0002C13282F8E3239F4992011F1C50165E4CF
:1014D0004FED53E0A9C020532A30A8F48E01F3E069
:1014E000000F111FFA95E1F7CC0FDD1F0C0F1D1F28
:1014F000C2DCC82FDD27C7FDD095C00FD11F9920B2
:1015000049F0939407C0C50165E44FEC53E08CC0EB
:1015100099249394F3E0C83EDF0744F0C50165E4E5
:101520004FEB53E081C09924C0E0D0E0F601208168
:101530003181828193812817390739F0C6014AD851
:101540008D3019F08A3009F0B7CF292D8E019920FE
:1015500089F484E690E0C89F8001C99F100DD89F50
:10156000100D112417C0C8016AE070E00E94F1124A
:101570008B0121502430BCF70BC0C801880F991F84
:1015800063E0000F111F6A95E1F7080F191F2F5F25
:10159000233099F7F3E0083E1F072CF0C50165E4FE
:1015A0004FEA53E041C0612F772767FD7A95C70165
:1015B0000E949B02C701602F2BC0823599F4C7019E
:1015C00062E50E949B02C6010E94CC0290E00E944C
:1015D0002C1351DC682F8430D4F0C50165E449E058
:1015E00054E022C08635B9F4C70166E50E949B022B
:1015F000C6010E94CC0290E00E942C133CDC682FB4
:1016000084302CF0C50165E449E154E00DC0C70108
:101610000E949B0210C0C50165E44BE953E004C081
:10162000C50165E445E252E02FD8882321F4C601C4
:101630000CDC80E010C0C6010E94CC028D3051F05D
:101640008A3041F0C60101DCC50165E444E152E0A5
:101650001BD801C081E0DF91CF911F910F91FF90C6
:10166000EF90DF90CF90BF90AF909F908F900895B4
:10167000833209F084CC80CCC70163E40E949B02D2
:101680006D2F7727C7010E949B02C7016C2FC0CF27
:10169000C6010E94CC0290E0DFD7EDDB982E23E05C
:1016A000281708F03ACE34CE10E07CCEC601B70140
:1016B000A501FBDB882309F4BACF9FCE00E010E040
:1016C00072CF0F931F93CF93DF93EC018B01CE0169
:1016D0000E94EA028D3011F08A3089F5CE010E9415
:1016E000CC02F5CFCE016AE00E94F6021816190668
:1016F000F4F04A815B8128813981C901019748173B
:10170000590759F0CE0104962817390791F4CE01F4
:101710008D579F4F4817590761F4CE010E949402DC
:10172000C80165E449E254E00E94440302C081E03C
:1017300001C080E0DF91CF911F910F910895CE01FC
:101740006DE00E94F602181619068CF3CBCF813497
:1017500021F0823429F080E0089561B981E0089594
:1017600064B981E00895813421F0823421F080E071
:10177000089581B1089584B10895813421F08234AF
:1017800021F080E0089580B1089583B108958134F7
:1017900021F0823449F080E0089582B12827242B7B
:1017A000262322B981E0089585B12827242B2623FA
:1017B00025B981E0089584B7877F84BF88E10FB69B
:1017C000F89480936000109260000FBE90E080E873
:1017D0000FB6F89480936100909361000FBE86E08D
:1017E00083BF8BB18F738BB98AB1806C8AB908952E
:1017F0002BB1982F9F6392239BB99BB1807C982B30
:101800009BB908951F93BC018FE190E010E005C0E3
:101810001F5F969587959695879586179707C0F7CA
:1018200080E49FE1CAD680E090E06850704080403C
:101830009040E12FEE0F21E030E002C0220F331F75
:10184000EA95E2F7442737FD4095542FDDD62093E3
:10185000B80013701093B9001F9108950F931F9350
:101860000CEB10E0F801108284E690E0CBDF8FEF04
:101870008093BB0084E0F80180831F910F9108954D
:101880002091B9004091B80050E0440F551F30E05E
:1018900023703070220F331F81E090E002C0880F68
:1018A000991F2A95E2F790E0489FB001499F700D7B
:1018B000589F700D1124605F7F4F80E89EE37DD6B6
:1018C000CB010895982F84EA8093BC008091BC00DE
:1018D00087FFFCCF8091B900887F883011F080317C
:1018E000B9F49E7F962B9093BB0084E88093BC0054
:1018F0008091BC0087FFFCCF8091B900887F613068
:1019000021F490E0803421F404C090E0883109F0A3
:1019100091E081E08927089580E061E0D3DF84E9E8
:101920008093BC00089584E98093BC000895FC0175
:1019300090E024E812C080818093BB002093BC001B
:101940008091BC0087FFFCCF31968091B90090E078
:10195000887F883209F091E06150662311F0992365
:1019600051F381E089270895FC0190E050E074E88C
:1019700034EC24C0623018F081E090E001C0CA016C
:10198000282F882319F03093BC0002C07093BC004C
:101990008091BC0087FFFCCF8091BB008083809149
:1019A000B900887F222321F090E0803521F404C023
:1019B00090E0883509F091E031966150662311F08E
:1019C0009923C1F281E08927089580E011CF80E456
:1019D0000FCF80919802843009F093C08093E90082
:1019E0008091E80082FF20C080E002DF06C06091A5
:1019F000F1008BE091E00E949B028091F2009091B7
:101A0000F300892BA1F78091F2009091F300892BCC
:101A100049F48091E800982F9B7F9093E8008F779E
:101A20008093E80080E8E4DE80E4E2DE1AC08BE028
:101A300091E06FE871E043E152E081DA882389F0B8
:101A400020918F01309190018091910190919201AC
:101A50002817390731F08FE891E063E172E00E94C6
:101A600069038BE091E063E172E02BDE8823F9F6F5
:101A700080E8BEDE83E08093E9002091130230917C
:101A80001402809115029091160228173907B9F1B6
:101A900080E0AEDE8091E80085FFFCCF06C083E1E8
:101AA00092E00E94CC028093F100209113023091C9
:101AB000140280911502909116022817390731F00F
:101AC0008091F2009091F300409748F38091F200EA
:101AD0009091F3002091E800322F3E7F3093E80090
:101AE0002F772093E800409751F4C0D38091E8000D
:101AF000982F9E7F9093E8008F778093E80080E88E
:101B000077CE089580919A02813229F0823271F164
:101B10008032B1F513C080919902813A89F58091A4
:101B2000E800877F8093E80080E091E067E070E064
:101B3000C8D38091E800982F9B7F12C080919902B2
:101B40008132F1F48091E800877F8093E80080E0A3
:101B500091E067E070E076D48091E800982F9E7F56
:101B60009093E8008F778093E80008958091990220
:101B7000813231F48091E800877F8093E8004DC383
:101B8000089580E835DE82E061EC42E01CD38823D2
:101B900011F480EC2DDE83E061E842E114D3882368
:101BA00011F480EC25DE84E060E842E10CD3882368
:101BB00011F480EC1DDE10920001109201011092D0
:101BC0000201109203010895F6DD48DE10D00E9454
:101BD00041028BE091E00E94940283E192E00E9436
:101BE000940280E005DEBAD4F4DE77D1FDCF84B173
:101BF000876084B985B1876085B92B9A80E58CBDF3
:101C00008DB58EB508959FE14034590710F024E05A
:101C10001EC09FE0403A590710F020E018C097E03E
:101C2000403D590710F025E012C093E0483E5907A7
:101C300010F021E00CC091E0443F590710F026E07D
:101C400006C04A3F510510F423E001C022E066239C
:101C500011F440E501C040E781FD02C030E001C061
:101C600038E080FD02C090E001C094E0822F8370D4
:101C7000842B832B892B8CBD22FF03C08DB5816003
:101C800002C08DB58E7F8DBD08958CB590E083FD2B
:101C900002C020E001C022E0969587959695879531
:101CA0008170822B08958CB590E045E096958795DC
:101CB0004A95E1F7817008958CB50DB400FC02C01F
:101CC00090E001C094E08370892B823071F0833002
:101CD00028F48823C9F08130D1F410C0853089F010
:101CE000863049F0833099F403C08AEF90E008957C
:101CF0008DE790E0089584EF91E0089588EE93E0F9
:101D0000089580ED97E0089580EA9FE0089580E4CB
:101D10009FE10895FC01DB0109C080818EBD0DB4F7
:101D200007FEFDCF31968EB58D9341504423A9F720
:101D300081E00895882311F0289A0895289808953D
:101D40000895E8EDF0E080818C7F80831092E200BE
:101D500008951092DA001092E10008951F920F92F8
:101D60000FB60F9211242F933F934F935F936F936E
:101D70007F938F939F93AF93BF93EF93FF93809144
:101D8000DA0080FF15C08091D80080FF11C08091DB
:101D9000DA008E7F8093DA008091D90080FF05C041
:101DA00081E08093980213DE03C0109298020DDE4A
:101DB0008091E10080FF1DC08091E20080FF19C08A
:101DC0008091E1008E7F8093E1008091E2008E7F20
:101DD0008093E2008091E20080618093E200809134
:101DE000D80080628093D80019BC85E08093980267
:101DF000A7DF8091E10084FF2AC08091E20084FF88
:101E000026C088E189BD89B5826089BD09B400FE1C
:101E1000FDCF8091D8008F7D8093D8008091E10024
:101E20008F7E8093E1008091E2008F7E8093E200BC
:101E30008091E20081608093E2008091A302882378
:101E400011F483E001C084E08093980279DF8091EF
:101E5000E10083FF23C08091E20083FF1FC08091D7
:101E6000E100877F8093E10082E0809398021092E6
:101E7000A3028091E1008E7F8093E1008091E200D7
:101E80008E7F8093E2008091E20080618093E20087
:101E9000ADD180E060E042E096D152DF8091E10078
:101EA00082FF0AC08091E20082FF06C08091E100BB
:101EB0008B7F8093E10044DFFF91EF91BF91AF9161
:101EC0009F918F917F916F915F914F913F912F9152
:101ED0000F900FBE0F901F9018951F93809198023E
:101EE000882361F01091E9001092E9008091E800E8
:101EF00083FF01C005D017701093E9001F9108956A
:101F00000F931F93DF93CF93CDB7DEB7AC970FB688
:101F1000F894DEBF0FBECDBFE9E9F2E08091F10099
:101F2000819322E0E13AF207C9F78091990230915A
:101F30009A02353009F486C0363040F43130C1F1B0
:101F4000313070F0333009F024C132C0383009F438
:101F5000F1C0393009F404C1363009F01AC193C018
:101F6000803821F0823809F014C108C09091A10294
:101F70008091A202882391F0926010C080919D020E
:101F80008093E9008091EB0090E025E0969587959D
:101F90002A95E1F7982F91701092E9008091E8005E
:101FA000877F8093E8009093F1001092F100CDC0FC
:101FB000882319F0823009F0ECC090E08F719070A6
:101FC000009721F0029709F0E5C00CC080919B02B8
:101FD000813009F0DFC01092A202333069F580939E
:101FE000A2022AC080919B02882331F520919D0294
:101FF000277009F4CFC02093E9008091EB0080FFA7
:102000001BC0333021F48091EB00806213C08091BB
:10201000EB0080618093EB0081E090E002C0880FCC
:10202000991F2A95E2F78093EA001092EA008091C6
:10203000EB0088608093EB001092E9008091E8004B
:10204000877F8AC0882309F0A4C000919B02109169
:102050009C028091E800877F8093E800DED005C075
:1020600080919802882309F495C08091E80080FF50
:10207000F7CF902F9F7719F083E0809398029068B4
:102080009093E30087C08058823008F082C080912E
:102090009B0290919C0223E08C3D920771F5DE013A
:1020A00015964EE020E030E051E2E42FF0E050934E
:1020B0005700849120FF03C082958F704F5F982F47
:1020C0009F70892F805D8A3308F0895F90E08D933F
:1020D0009D932F5F3F4F2431310539F78091E80000
:1020E000877F8093E8008AE28B8383E08C83CE0134
:1020F00003966AE270E0E5D013C060919D02AE01E4
:102100004F5F5F4F0E941603BC01009709F442C065
:102110008091E800877F8093E80089819A8131D19E
:102120008091E800982F9B7F9093E8008F778093B1
:10213000E80030C0803869F58091E800877F80939F
:10214000E8008091A3028093F1008091E800982F2D
:102150009E7F9093E8008F778093E8005ED01AC04E
:102160008823B9F490919B029230A0F48091E8000A
:10217000877F8093E8009093A3024FD08091A302C1
:10218000882311F483E001C084E080939802F9DC95
:1021900001C0B8DC8091E80083FF0AC08091EB00A9
:1021A00080628093EB008091E800877F8093E80055
:1021B000AC960FB6F894DEBF0FBECDBFCF91DF91C6
:1021C0001F910F9108958093E9008091EB00816049
:1021D0008093EB001092ED006093EC004093ED00D3
:1021E0008091EE00881F8827881F08951092F400C0
:1021F00090E09093E9001092F0001092E800809136
:10220000ED008D7F8093ED008091EB008E7F8093B9
:10221000EB009F5F973069F70895809199028823BA
:10222000BCF404C0809198028823F9F08091E80002
:1022300082FFF8CF8091E800982F9B7F9093E80071
:102240008F778093E800089580919802882369F041
:102250008091E80080FFF8CF8091E800982F9E7F62
:102260009093E8008F778093E800089594E680913A
:10227000EC0080FF05C08091E80080FF05C01FC012
:102280008091E80082FD1BC080919802882311F4A0
:1022900082E008958091EB0085FF02C081E00895FF
:1022A0008091E10082FFE3CF8091E1008B7F8093FA
:1022B000E100992311F483E008959150D8CF80E094
:1022C00008959C0140919F025091A0024617570724
:1022D00018F4F90160E043C06115710511F0AB011C
:1022E000F8CF8091E800982F9E7F9093E8008F7739
:1022F0008093E80040E050E0ECCF8091E80083FF5D
:1023000002C081E008958091E80082FD32C0809192
:1023100098028823A1F18091E80080FF20C02091DD
:10232000F2003091F30007C081918093F100415099
:1023300050402F5F3F4F4115510519F028303105AE
:1023400098F360E02830310509F461E08091E800FD
:10235000982F9E7F9093E8008F778093E800411537
:10236000510559F6662349F604C0809198028823E6
:1023700031F08091E80082FFF8CF80E0089582E09C
:102380000895FC0120919F023091A0022617370783
:1023900018F4AF0160E044C06115710511F09B01B4
:1023A000F8CF8091E800982F9E7F9093E8008F7778
:1023B0008093E80020E030E0ECCF8091E80083FFDC
:1023C00002C081E008958091E80082FD33C08091D1
:1023D00098028823A9F18091E80080FF21C08091B4
:1023E000F2009091F30009C0FA014F5F5F4FE49152
:1023F000E093F1002150304001962115310519F08C
:102400008830910588F360E0089709F461E08091D5
:10241000E800982F9E7F9093E8008F778093E800E4
:102420002115310551F6662341F604C080919802CA
:10243000882331F08091E80082FFF8CF80E0089592
:1024400082E008959C016115710549F48091E800CE
:10245000982F9B7F9093E8008F778093E800F90195
:1024600024C08091E80083FF02C081E0089580913C
:102470009802882341F18091E80082FFF2CF06C0E4
:102480008091F10081936150704031F08091F200B1
:102490009091F300892BA1F78091E800982F9B7F02
:1024A0009093E8008F778093E80061157105C9F675
:1024B00004C080919802882331F08091E80080FF69
:1024C000F8CF80E0089582E008953BDC42DC109272
:1024D00098021092A3021092A2021092A10288E127
:1024E00089BD89B5826089BD09B400FEFDCF8091A8
:1024F000D800982F9F779093D80080688093D80059
:102500008091D70081608093D7008091D8008F7D23
:102510008093D8008091E0008B7F8093E0008091D1
:10252000E0008E7F8093E0008091E1008E7F8093B9
:10253000E1008091E20081608093E2008091E100FF
:10254000877F8093E1008091E20088608093E200C1
:102550008091D80081608093D8000895E7EDF0E085
:10256000808180688083B1DFE8EDF0E08081806168
:10257000808381E08093970278940895629FD001D0
:10258000739FF001829FE00DF11D649FE00DF11D2E
:10259000929FF00D839FF00D749FF00D659FF00DDD
:1025A0009927729FB00DE11DF91F639FB00DE11DCA
:1025B000F91FBD01CF0111240895AA1BBB1B51E1D6
:1025C00007C0AA1FBB1FA617B70710F0A61BB70BA3
:1025D000881F991F5A95A9F780959095BC01CD0148
:1025E000089597FB092E07260AD077FD04D0E5DF72
:1025F00006D000201AF4709561957F4F0895F6F784
:10260000909581959F4F0895A1E21A2EAA1BBB1B9E
:10261000FD010DC0AA1FBB1FEE1FFF1FA217B307AE
:10262000E407F50720F0A21BB30BE40BF50B661FC4
:10263000771F881F991F1A9469F760957095809588
:1026400090959B01AC01BD01CF01089591110CC083
:1026500080538A50E0F708959111089581568A5168
:1026600008F4805285580895992788270895F8948A
:02267000FFCF9A
:08267200000000000000080058
:00000001FF
