:1000000006C2000022C2000020C200001EC2000082
:100010001CC200001AC2000018C2000016C2000074
:1000200014C2000012C20000CFC700000EC20000C0
:100030000CC200000AC2000008C2000006C2000094
:1000400004C2000002C2000000C20000FEC10000A5
:10005000FCC10000FAC10000F8C10000F6C10000B8
:10006000F4C10000F2C10000F0C10000EEC10000C8
:10007000ECC10000EAC10000E8C10000E6C10000D8
:10008000E4C10000E2C10000E0C10000DEC10000E8
:10009000DCC10000DAC100001B5B33316D446576C2
:1000A00020456E756D204572726F720D0A202D2DE0
:1000B000204572726F7220436F64652025640D0ABB
:1000C000202D2D20537562204572726F7220436F70
:1000D00064652025640D0A202D2D20496E2053745F
:1000E0006174652025640D0A1B5B33376D001B5B53
:1000F00033316D486F7374204D6F646520457272A3
:100100006F720D0A202D2D204572726F7220436F81
:1001100064652025640D0A1B5B33376D004D6173E8
:10012000732053746F7261676520446576696365F7
:1001300020456E756D6572617465642E0D0A0056FA
:10014000656E646F722022252E3873222C20507227
:100150006F647563742022252E313673220D0A00D8
:100160004572726F722072657472696576696E6726
:100170002064657669636520496E717569727920BE
:10018000646174612E0D0A004572726F722073658E
:100190007474696E672050726576656E742044656C
:1001A000766963652052656D6F76616C2062697453
:1001B0002E0D0A004572726F722072657472696545
:1001C00076696E67206465766963652073656E7312
:1001D000652E0D0A004572726F7220726573657428
:1001E00074696E67204D6173732053746F72616719
:1001F0006520696E746572666163652E0D0A005430
:100200006F74616C204C554E733A202564202D206C
:100210005573696E67206669727374204C554E2061
:10022000696E206465766963652E0D0A00457272F9
:100230006F722072657472696576696E67206D6190
:1002400078204C554E20696E6465782E0D0A004565
:1002500072726F722053657474696E67204465769C
:1002600069636520436F6E66696775726174696F53
:100270006E2E0D0A004174746163686564204465E4
:1002800076696365204E6F7420612056616C6964E5
:10029000204D6173732053746F72616765204465EC
:1002A000766963652E0D0A004572726F7220526581
:1002B0007472696576696E6720436F6E66696775EB
:1002C000726174696F6E2044657363726970746FD4
:1002D000722E0D0A000D0A44657669636520556E1D
:1002E00061747461636865642E0D0A004465766903
:1002F00063652041747461636865642E0D0A000DA6
:100300000A002020202000252E325820000D0A430C
:100310006F6E74656E7473206F6620666972737495
:1003200020626C6F636B3A0D0A004572726F722027
:1003300072656164696E67206465766963652062D1
:100340006C6F636B2E0D0A00256C7520626C6F63F9
:100350006B73206F6620256C752062797465732E2F
:100360000D0A004572726F7220726574726965764B
:10037000696E672064657669636520636170616397
:100380006974792E0D0A0052657472696576696E1A
:10039000672043617061636974792E2E2E0D0A0007
:1003A0004572726F722077616974696E6720666F3B
:1003B000722064657669636520746F2062652072BF
:1003C000656164792E0D0A0057616974696E672052
:1003D000756E74696C2072656164792E2E2E0D0A1B
:1003E000001B5B33366D4D6173732053746F726104
:1003F000676520486F73742044656D6F2072756E59
:100400006E696E672E0D0A1B5B33376D0000112479
:100410001FBECFEFD0E2DEBFCDBF11E0A0E0B1E064
:10042000EAE4F6E200E00BBF02C007900D92A032B2
:10043000B107D9F711E0A0E2B1E001C01D92A234EA
:10044000B107E1F7A2D20C942313DACD90912D01DC
:100450002DB73EB7285030400FB6F8943EBF0FBEC0
:100460002DBFEDB7FEB7319628E930E0ADB7BEB786
:1004700012963C932E931197828313826483158284
:10048000968317820E945C10299A2DB73EB7285F89
:100490003F4F0FB6F8943EBF0FBE2DBF08951F9378
:1004A000182F6DD500D000D0EDB7FEB731968EEE87
:1004B00090E0ADB7BEB712969C938E9311971283BE
:1004C00013820E945C10299A0F900F900F900F904A
:1004D000FFCF85ED92E00E947E10299A08958CEE60
:1004E00092E00E947E10299808950F931F93DF9346
:1004F000CF93CDB7DEB7C953D2400FB6F894DEBF65
:100500000FBECDBF29988E01065C1F4F81E0BE0152
:100510006E5F7F4FA80120E032E0DBD6882319F020
:1005200088EA92E00BC06A817B8180E091E0A801BB
:100530000E942A0F882331F085E792E00E947E1006
:10054000299A84C081E00E940B0B882319F08FE464
:1005500092E0F4CF80E091E0BE016F5F7F4F0E9498
:10056000C40E882319F08DE292E044C000D000D080
:100570008FEF91E0ADB7BEB712969C938E93119713
:10058000898190E0019614969C938E9313970E9414
:100590005C100F900F900F900F9080E091E00E9400
:1005A000E80E882319F085ED91E024C080E091E009
:1005B00060E0AE014C5F5F4F0E944F0D882319F041
:1005C00084EB91E017C080E091E060E041E00E94A0
:1005D000130D882319F088E891E00CC080E091E0C9
:1005E00060E0AE014A5E5F4F0E947F0E882349F0B3
:1005F00080E691E00E947E10299A80E00E940B0B19
:1006000025C000D000D000D0EDB7FEB731968FE303
:1006100091E0ADB7BEB712969C938E931197CE0121
:100620004E9693838283CE018696958384830E941F
:100630005C10EDB7FEB736960FB6F894FEBF0FBE4E
:10064000EDBF8DE191E00E947E102998C75CDD4FDF
:100650000FB6F894DEBF0FBECDBFCF91DF911F91D3
:100660000F9108952F923F924F925F926F927F92D7
:100670008F929F92AF92BF92CF92DF92EF92FF92B2
:100680000F931F93DF93CF93CDB7DEB72C970FB6A1
:10069000F894DEBF0FBECDBF8DB79EB79A8789870E
:1006A0009DB79B87AEB7AC8780912D018B3009F049
:1006B000F4C0299888EC93E00E947E1080E091E0DD
:1006C00060E00E94440E882329F08038B9F380EA64
:1006D00093E05BC087E893E00E947E1080E091E0A9
:1006E00060E0AE014F5F5F4F0E94940D882319F0C8
:1006F00083E693E04AC0EDB7FEB73A970FB6F89499
:10070000FEBF0FBEEDBF319688E493E0ADB7BEB734
:1007100012969C938E93119789819A81AB81BC81AB
:1007200082839383A483B5838D819E81AF81B885B5
:1007300086839783A087B1870E945C10EDB7FEB7D0
:100740003A960FB6F894FEBF0FBEEDBFED80FE8067
:100750008DB79EB78E199F090FB6F8949EBF0FBE36
:100760008DBF8DB69EB60894811C911C80E091E0EF
:1007700060E020E030E040E050E001E064010E94F1
:100780009F0C882331F08AE293E00E947E10299A20
:1007900082C08DE093E00E947E10AA24BB24A7E0D3
:1007A0002A2EA3E03A2EF2E04F2EF3E05F2EEFEF79
:1007B0006E2EE2E07E2E5AC0650174E0CC0CDD1C8A
:1007C0007A95E1F7C80CD91C00E010E000D000D009
:1007D000EDB7FEB73196ADB7BEB712963C922E92EA
:1007E0001197D601A00FB11F8C91828313820E94B2
:1007F0005C100F5F1F4F0F900F900F900F90003104
:10080000110521F700D0EDB7FEB7528241820E9458
:100810005C10EE24FF240F900F90F601EE0DFF1DEB
:100820008081082F10E0C8010E942A10892B11F442
:100830000EE210E060913E0170913F01C8010E94FC
:1008400030100894E11CF11CF0E1EF16F10429F7D7
:1008500000D0ADB7BEB712967C926E9211970E94EF
:100860005C100894A11CB11C0F900F90950140E002
:1008700050E08D819E81AF81B88564E0B695A795E3
:10088000979587956A95D1F7281739074A075B0727
:1008900008F492CF299880E0BED68B859C859C0178
:1008A0000FB6F8943EBF0FBE2DBFE985FA850FB68F
:1008B000F894FEBF0FBEEDBF2C960FB6F894DEBFC6
:1008C0000FBECDBFCF91DF911F910F91FF90EF90A1
:1008D000DF90CF90BF90AF909F908F907F906F9060
:1008E0005F904F903F902F90089584B7877F84BF8B
:1008F00038E10FB6F89430936000109260000FBE9C
:1009000080E090E020E80FB6F89420936100809397
:1009100061000FBE87E690E09093CD008093CC00FD
:1009200086E08093CA001092C8003093C900539AA1
:100930005A9A6A98729A219A29986E9A76986C9A1D
:10094000749A6F9A779812D36F9A7798EEE2F1E0E3
:10095000F0933D01E0933C01F0933F01E0933E01B1
:100960008EE0DF011D928A95E9F783E080933101E3
:100970008BEE9FE0909337018093360185EF9FE0E7
:1009800090933901809338010895AFDF81EE93E0B1
:100990000E947E10299A789465DE62D6FDCF982F4A
:1009A00020919E003091A0008091A0008F7D8093C7
:1009B000A00080919F008F7D80939F0080919E007A
:1009C000816080939E0028C080919F0085FF06C0B3
:1009D00080919F008F7D80939F00915080912D0189
:1009E000813011F491E01AC08091A60084FF09C003
:1009F0001092F5008091A6008F7E8093A60092E071
:100A00000DC08091A60081FF07C08091A6008D7F58
:100A10008093A60093E002C09923B1F620FD05C0A3
:100A200080919E008E7F80939E0035FF05C080914F
:100A3000A00080628093A000892F089560919E009D
:100A40008091A0008D7F8093A00080919E008260A5
:100A500080939E0080919E0081FDFCCF80919E003E
:100A6000816080939E00109223013091A0008091BC
:100A7000A0008F7D8093A00080919F008F7D809348
:100A80009F002AE040EA5FE080919F0085FF0BC055
:100A900080919F008F7D80939F0080919F008D7F2C
:100AA00080939F0005C0CA010197F1F7215061F7BB
:100AB00035FF05C08091A00080628093A00060FD9A
:100AC00005C080919E008E7F80939E008091A00043
:100AD00082608093A0000895EF920F931F93DF939D
:100AE000CF93CDB7DEB728970FB6F894DEBF0FBE11
:100AF000CDBF80912D01853009F4A1C0863068F406
:100B00008230B9F1833018F48823A1F00DC183300D
:100B1000D1F1843009F008C16AC0873009F4A8C057
:100B2000873008F497C0883009F4C0C0893009F0D4
:100B3000FBC0E4C0009121011091220101151105B3
:100B400009F4F2C081E02BDF682F882331F0809117
:100B5000200180932D0191E0E3C0C801019790939B
:100B6000220180932101892B09F0DEC080912001B0
:100B700007C088EE93E0909322018093210183E0E7
:100B800080932D01D1C08091210190912201019784
:100B90009093220180932101019629F080EA9FE041
:100BA0000197F1F7C1C0779A8091D8008061809356
:100BB000D8008091DD008B7F8093DD008091D7008D
:100BC00080618093D7008091DD0082608093DD009A
:100BD0008091DD0084608093DD008091D7008F7E5E
:100BE0008093D7006F9A779A779884E0C9CF8091E5
:100BF0009F0080FF99C080919F008E7F80939F000F
:100C000080919F008D7F80939F008091DF008D7F7A
:100C10008093DF008091DE0082608093DE0080910F
:100C20009E00816080939E00E9D010922D0184E6A1
:100C300090E0909322018093210185E05CC0FEDE6C
:100C400010922D0188EC90E0909322018093210175
:100C500086E051C080E060E040E020E000E410E089
:100C6000EE246ED08091AC0087FF58C087E088CF1B
:100C7000A5E2B1E0E6E1F1E088E001900D9281505B
:100C8000E1F7CE010196A9D3682F882309F044C06B
:100C9000888580931E01D2DE10922D0188EC90E0B1
:100CA000909322018093210188E025C000911E01CC
:100CB00080E060E040E020E010E0EE2441D0809150
:100CC000AC0087FF2BC0A5E2B1E0EEE0F1E088E0E8
:100CD00001900D928150E1F780E090E07ED3682F83
:100CE0008823D1F410922D0184E690E090932201A4
:100CF0008093210189E08093200116C081E08093D8
:100D0000A1008AE080932D01F0DB0EC0892F9EDBCD
:100D1000779ADFDBDBD008C093E002C094E060E0AC
:100D200080912D01813091F728960FB6F894DEBF9F
:100D30000FBECDBFCF91DF911F910F91EF9008951E
:100D4000EF920F931F93E82F7E2D6295660F660F2B
:100D5000607C642B2F70622B382F726045C03093FB
:100D6000A7003E17A1F488E090E020E003C02F5FC9
:100D7000880F991F8017910710F42530C1F7922F23
:100D80009295907F972B562F40E020E008C050911D
:100D9000AA009091AB004091AD002091AE0091FF70
:100DA00022C08091A9008E7F8093A9008091AB0022
:100DB0008D7F8093AB008091A90081608093A90012
:100DC0005093AA009093AB004093AD002093AE00E7
:100DD0008091A90080628093A9008091AC0087FD7A
:100DE00002C080E007C03F5F373008F4B8CFE0931F
:100DF000A70081E01F910F91EF9008951092F800E5
:100E000090E09093A7001092AE001092A60010926E
:100E1000AB008091A9008E7F8093A9009F5F9730DF
:100E200081F70895482F3091A70020E02093A70074
:100E30008091AC0087FF10C09091AA008091AA0019
:100E40008073803111F080E001C080E89F70892BB1
:100E5000841711F481E008952F5F273039F7377038
:100E60003093A70080E008954091A2005091A30024
:100E700028E833E18091AA008073803129F48091C1
:100E8000A60080FF05C020C08091A60082FD1CC086
:100E90008091A60081FF02C081E0089580912D011C
:100EA000813011F482E008958091A2009091A30016
:100EB00084179507F9F22115310511F483E008959F
:100EC00021503040AC01D6CF80E0089570D077D06B
:100ED0008091D8008F778093D8008091D800806867
:100EE0008093D8008091D8008F7D8093D800809126
:100EF000D7008F778093D70084E189BD86E189BDD3
:100F000009B400FEFDCF81E080932D0110922301F2
:100F100080E480931E018091D80080648093D80083
:100F20008091DD0081608093DD008091DD00846030
:100F30008093DD008091D7008F7E8093D7006F9AD9
:100F400077988091DE0081608093DE008091DE00E2
:100F500084608093DE008091E0008E7F8093E000CB
:100F60008091D80080618093D8000895E7EDF0E08B
:100F700080818160808381E080932401A7CF17D096
:100F80001ED0E0EEF0E0808181608083A8EDB0E0CB
:100F90008C918F778C9319BCE7EDF0E080818E7F88
:100FA00080838C918F7E8C93109224010895E8EDBC
:100FB000F0E080818C7F80831092A00008951092D1
:100FC000DA0010929F0008951F920F920FB60F92B1
:100FD0000BB60F9211242F933F934F935F936F9310
:100FE0007F938F939F93AF93BF93EF93FF938091E2
:100FF0009F0085FF0AC08091A00085FF06C08091F8
:101000009F008F7D80939F00BED180919F0081FFC4
:1010100015C08091A00081FF11C080919F008D7F3D
:1010200080939F0080919F008E7F80939F0080918E
:10103000A0008D7F8093A0004CDA48DF8091DF0014
:1010400081FF15C08091DE0081FF11C08091DF001B
:101050008D7F8093DF00779A8091DD00816080939F
:10106000DD0080E01CDA35DA81E080932D0180918B
:10107000DF0080FF17C08091DE0080FF13C08091E9
:10108000DF008E7F8093DF008091DE008E7F809373
:10109000DE0025DA8091A00082608093A00082E0CB
:1010A00080932D018091DF0082FF0EC08091DE00D1
:1010B00082FF0AC08091DF008B7F8093DF0082E097
:1010C00060E0C4D906DA02DFFF91EF91BF91AF91E2
:1010D0009F918F917F916F915F914F913F912F9150
:1010E0000F900BBE0F900FBE0F901F901895BF92E0
:1010F000CF92DF92EF92FF920F931F93CF93DF93E4
:10110000182F092F7B016A018091AA008F7C8061D2
:101110008093AA00A9DEB82E8823A9F5812F902FED
:101120009C01E901C114D10439F0F601808191815B
:10113000E81AF90AC80FD91F00E010E021C0809119
:10114000A60085FD15C08091A6008E778093A6002D
:10115000C114D10449F0F60180819181800F911F63
:101160009183808384E010C07FDE882349F00CC027
:101170008091AF0089930894E108F1080F5F1F4F39
:10118000E114F104E1F68B2DDF91CF911F910F91C6
:10119000FF90EF90DF90CF90BF900895BF92CF92D5
:1011A000DF92EF92FF920F931F93CF93DF93182F4D
:1011B000092F7B016A018091AA008F7C8062809355
:1011C000AA0052DEB82E8823A9F5812F902F9C010A
:1011D000E901C114D10439F0F60180819181E81A46
:1011E000F90AC80FD91F00E010E021C08091A600C5
:1011F00085FD15C08091A6008B778093A600C11451
:10120000D10449F0F60180819181800F911F918373
:10121000808384E010C028DE882349F00CC08991C7
:101220008093AF000894E108F1080F5F1F4FE114AD
:10123000F104E1F68B2DDF91CF911F910F91FF907B
:10124000EF90DF90CF90BF900895AF92BF92CF9272
:10125000DF92EF92FF920F931F93CF93DF937C0166
:10126000EB016A0124C0E881F981BE2EAF2E808196
:1012700090E098018017910708F49C01E20FF31F9A
:10128000F983E883F70180819181821B930B91831D
:10129000808388819981F6010995823041F08130FF
:1012A00069F4B882A982F7011183008307C0F701AE
:1012B0000081118101151105B1F682E0DF91CF9116
:1012C0001F910F91FF90EF90DF90CF90BF90AF9064
:1012D0000895CF92DF92EF92FF920F931F93DF93C7
:1012E000CF93CDB7DEB729970FB6F894DEBF0FBE08
:1012F000CDBF6B018A01790190E89093250196E0BA
:101300009093260190E0019792609093280180933A
:10131000270110922A011092290189E090E0909310
:101320002C0180932B011092A700CE01019655D07D
:10133000282F8823C1F48B819C81F60191838083BF
:10134000E816F90610F425E00EC090932C01809366
:101350002B01C80142D0282F882329F4F80181816C
:10136000823009F026E0822F29960FB6F894DEBF6E
:101370000FBECDBFCF91DF911F910F91FF90EF90E6
:10138000DF90CF90089508951F93CF93DF93182F88
:10139000C8EED3E009C081E002DB8823D1F42097B6
:1013A00011F484E016C02197112329F48091A6003E
:1013B00083FFF1CF0DC0113029F48091A60080FF8A
:1013C000EACF06C0123039F78091A60082FFE3CF42
:1013D00080E0DF91CF911F910895FF920F931F93AB
:1013E000CF93DF93182F092FF0909E00C0912B010F
:1013F000D0912C0180919E00816080939E0081E0BD
:10140000CEDA982F882309F0D7C08091AA008F7C6C
:101410008093AA001092F5008091A6008F7E8093A1
:10142000A6008091A9008F7B8093A900E5E2F1E0FE
:1014300081918093AF0081E0ED32F807C9F7809188
:10144000A60087778093A60080E09EDF982F8823F0
:1014500009F0B2C08091A90080648093A90081E066
:101460009EDA982F882309F0A7C0212F302FC901B9
:101470008C018091250187FF52C08091AA008F7C4A
:1014800080618093AA000115110569F52EC0809135
:10149000A9008F7B8093A90081E076DF982F8823B5
:1014A00009F08AC08091F6009091F700892B49F4E9
:1014B000C0E0D0E006C08091AF00F80181938F01B9
:1014C00021978091F6009091F700892B11F02097D9
:1014D00091F78091A90080648093A9008091A60073
:1014E0008E778093A600209791F68091AA008F7C3A
:1014F00080628093AA008091A9008F7B8093A900CD
:1015000082E042DF982F882309F056C08091A60020
:101510008B778093A60082E037DF982F4DC00115AE
:101520001105A9F18091AA008F7C80628093AA00A6
:101530008091A9008F7B8093A9001DC082E024DFE9
:10154000982F8823C9F580911E01282F30E007C00D
:10155000F80181918F018093AF00219739F080913C
:10156000F6009091F7008217930790F38091A60000
:101570008B778093A600209709F782E005DF982FEC
:101580008823D1F48091A90080648093A900809180
:10159000AA008F7C80618093AA008091A9008F7B34
:1015A0008093A90081E0F0DE982F882329F48091B0
:1015B000A6008E778093A6008091A9008064809316
:1015C000A900F0FC05C080919E008E7F80939E0054
:1015D00081E08093A8001092A800892FDF91CF911D
:1015E0001F910F91FF90089592E09093250191E053
:1015F00090932601109228011092270180932901CF
:1016000010922A0110922C0110922B011092A70027
:1016100080E090E0E2CE1F93182F1092250189E020
:1016200080932601109327011092280110922A011D
:101630001092290110922C0110922B011092A700F8
:1016400080E090E0CADE882349F41093230111233F
:1016500011F49AE001C09BE090932D011F91089531
:10166000FF920F931F9307EA10E0F801F080F7E074
:10167000FF22F801108230DAF801F0821F910F91F9
:10168000FF900895FC018181843059F48581883070
:1016900041F48681863029F48781803511F480E019
:1016A000089582E00895FC016091A2007091A3006A
:1016B00040814093A7008091A9008F7B8093A9006F
:1016C00020E137E245C08091A2009091A3008617E7
:1016D000970741F02115310511F483E00895215059
:1016E0003040BC018091A90080648093A900828170
:1016F0008093A7008091A9008F7B8093A90080919F
:10170000A60081FD10C08091A90080648093A9008B
:101710004093A7008091A9008F7B8093A9008091BE
:10172000A60081FF0FC09091AA008091AA0080734B
:10173000803111F080E001C080E89F70892B54DF78
:1017400081E0089580912D01813011F482E00895A7
:101750008091A60080FFB7CF4093A7008091A90099
:1017600080648093A90082818093A7008091A90062
:1017700080648093A90080E00895BF92CF92DF92A9
:10178000EF92FF920F931F93CF93DF93EC018B01A6
:101790007A018A859B85AC85BD850196A11DB11D09
:1017A0008A879B87AC87BD878F5F9F4FAF4FBF4FA7
:1017B00041F481E090E0A0E0B0E08A879B87AC87AD
:1017C000BD8785E593E5A2E4B3E4F80180839183C6
:1017D000A283B3838A859B85AC85BD8584839583ED
:1017E000A683B7838A818093A7008091A9008F7B0D
:1017F0008093A900C8016FE170E040E050E0CEDCCA
:10180000B82E882309F061C08091A6008B77809361
:10181000A6002ADB8091A90080648093A900E114CE
:10182000F10409F452C0F801C084D184848587FF93
:1018300021C0CE0138DF982F882331F08091A90094
:1018400080648093A9003BC088818093A700809129
:10185000A9008F7B8093A900C701B60140E050E04A
:1018600046DC982F882359F58091A6008E778093C7
:10187000A6001EC08A818093A7008091A9008F7B5B
:101880008093A900C701B60140E050E087DC982FA3
:101890008823A9F48091A6008B778093A60004C0CA
:1018A00080912D01813051F08091A60082FFF8CF08
:1018B0008091A90080648093A90007C092E0809184
:1018C000A90080648093A900B92E8B2DDF91CF9160
:1018D0001F910F91FF90EF90DF90CF90BF900895F0
:1018E0000F931F93CF93DF93EC018B01DCDE982FD6
:1018F0008823F9F488818093A7008091A9008F7BC9
:101900008093A900C8016DE070E040E050E0EFDB9B
:10191000982F882371F48091A6008E778093A6007B
:101920008091A90080648093A900F80184858111C9
:1019300090E8892FDF91CF911F910F9108954F92D9
:101940005F926F927F928F929F92AF92BF92CF924F
:10195000DF92EF92FF920F931F93DF93CF93CDB758
:10196000DEB7AC970FB6F894DEBF0FBECDBF3C011B
:10197000462E49015A01502E80912D018B30D9F508
:10198000F30184818823B9F18E01025F1F4F8FE13B
:10199000F80111928A95E9F7B70180E090E0252DD2
:1019A00030E040E050E035D36E8B7F8B888F998F8D
:1019B00080E88A8F4B8E8AE08C8F88E28D8F8B2D0A
:1019C0009927AA27BB278F8FC501AA27BB2788A3E2
:1019D000BB27AB2D9A2D892D89A38AA25DA2C301B5
:1019E000B801A601CADE882339F4C301BE016F5FC6
:1019F0007F4F76DF01C081E0AC960FB6F894DEBF72
:101A00000FBECDBFCF91DF911F910F91FF90EF904F
:101A1000DF90CF90BF90AF909F908F907F906F900E
:101A20005F904F9008950F931F93DF93CF93CDB79F
:101A3000DEB7AC970FB6F894DEBF0FBECDBF8C01FA
:101A400080912D018B30F9F4D80114968C91882364
:101A5000D1F0FE013E968FE1DF011D928A95E9F7F4
:101A60006B8F86E08C8F8EE18D8F48A3C801BF01FC
:101A700040E050E082DE882339F4C801BE016F5F88
:101A80007F4F2EDF01C081E0AC960FB6F894DEBF29
:101A90000FBECDBFCF91DF911F910F9108950F938E
:101AA0001F93DF93CF93CDB7DEB7AC970FB6F89403
:101AB000DEBF0FBECDBF8C0180912D018B3041F573
:101AC000D80114968C91882319F1FE013E968FE17E
:101AD000DF011D928A95E9F782E190E0A0E0B0E095
:101AE0008E8B9F8BA88FB98F80E88A8F6B8F86E053
:101AF0008C8F83E08D8F82E189A3C801BF013DDE19
:101B0000882339F4C801BE016F5F7F4FE9DE01C051
:101B100081E0AC960FB6F894DEBF0FBECDBFCF917B
:101B2000DF911F910F910895AF92BF92CF92DF92F4
:101B3000EF92FF920F931F93DF93CF93CDB7DEB752
:101B4000AC970FB6F894DEBF0FBECDBF5C016A0143
:101B500080912D018B3009F085C0D50114968C91B0
:101B6000882309F47FC0FE013E968FE1DF011D92BC
:101B70008A95E9F788E090E0A0E0B0E08E8B9F8B3B
:101B8000A88FB98F80E88A8F6B8F8AE08C8F85E26F
:101B90008D8FC501BF01F1DD882309F064C0F60116
:101BA0002081318142815381122F0027FF24EE24AE
:101BB000852F9927AA27BB27E82AF92A0A2B1B2B4E
:101BC000DA01C90180709070B070892F9A2FAB2F05
:101BD000BB27E82AF92A0A2B1B2B20704070507073
:101BE000542F432F322F2227E22AF32A042B152BBE
:101BF000D601ED92FD920D931C93139714962D919F
:101C00003D914D915C911797122F0027FF24EE24F0
:101C1000852F9927AA27BB27E82AF92A0A2B1B2BED
:101C2000DA01C90180709070B070892F9A2FAB2FA4
:101C3000BB27E82AF92A0A2B1B2B20704070507012
:101C4000542F432F322F2227E22AF32A042B152B5D
:101C5000E482F58206831783C501BE016F5F7F4F63
:101C60003FDE01C081E0AC960FB6F894DEBF0FBE38
:101C7000CDBFCF91DF911F910F91FF90EF90DF903B
:101C8000CF90BF90AF9008950F931F93DF93CF93A2
:101C9000CDB7DEB7AC970FB6F894DEBF0FBECDBFA1
:101CA0008C0180912D018B30F1F4D80114968C9128
:101CB0008823C9F0FE013E968FE1DF011D928A95CF
:101CC000E9F780E88A8F6B8F86E08C8FC801BF01AF
:101CD00040E050E052DD882339F4C801BE016F5F57
:101CE0007F4FFEDD01C081E0AC960FB6F894DEBFF9
:101CF0000FBECDBFCF91DF911F910F9108950F932C
:101D00001F93DF93CF93CDB7DEB7AC970FB6F894A0
:101D1000DEBF0FBECDBF8C0180912D018B3041F510
:101D2000D80114968C91882319F1FE013E968FE11B
:101D3000DF011D928A95E9F784E290E0A0E0B0E02F
:101D40008E8B9F8BA88FB98F80E88A8F6B8F86E0F0
:101D50008C8F82E18D8F84E289A3C801BF010DDDE4
:101D6000882339F4C801BE016F5F7F4FB9DD01C020
:101D700081E0AC960FB6F894DEBF0FBECDBFCF9119
:101D8000DF911F910F910895CF93DF93EB01FC0139
:101D9000958181EA809325018EEF80932601109230
:101DA0002801109227019093290110922A0181E0C5
:101DB00090E090932C0180932B011092A700CB010F
:101DC0000CDB833011F4188280E0DF91CF9108950D
:101DD000CF93DF93EC018D8191E2909325019FEFEA
:101DE00090932601109228011092270180932901D7
:101DF00010922A0110922C0110922B011092A70030
:101E000080E090E0EADA882311F588818093A700CA
:101E10009091AA008091AA008073803111F080E037
:101E200001C080E89F70892BDFDB882381F48A81E1
:101E30008093A7009091AA008091AA0080738031BE
:101E400011F080E001C080E89F70892BCDDBDF912D
:101E5000CF9108956F927F928F929F92AF92BF928F
:101E6000CF92DF92EF92FF920F931F93DF93CF9366
:101E700000D000D00F92CDB7DEB76C017A836983B2
:101E80005C834B830496FC018AE0DF011D928A95F6
:101E9000E9F7EB81FC818181823011F081E073C030
:101EA00088249924AA24BB2466247724B3E0EB2E4B
:101EB000F12CEC0EFD1E8E010F5F1F4F611471049B
:101EC00039F0C801B70147ED5FE0BFD9882381F041
:101ED000C801B70142E45BE0B8D9882311F082E081
:101EE00052C06B807C80AA24BB2488249924E6CF2E
:101EF000EB81FC81828187FD02C05F0101C04F013F
:101F000081149104D9F2A114B104C1F291E0F60157
:101F10008081981761F4D40114960D911C91159746
:101F200012962C9181811783068340E10FC0F60140
:101F300082819817D9F4D50114960D911C911597AB
:101F400012962C9183811187008740E2882311F437
:101F500030E001C034E0892F62E0E32E9D830E94CF
:101F6000A0069D81882311F483E00DC09F5F973008
:101F700071F6F3018281D60115968C93159781E055
:101F800014968C9380E00F900F900F900F900F900D
:101F9000CF91DF911F910F91FF90EF90DF90CF9045
:101FA000BF90AF909F908F907F906F900895FC01AD
:101FB0008181853051F483818370823051F4828134
:101FC0000E941207882329F40895843011F481E0D7
:101FD000089582E00895982F8091C80085FFFCCF76
:101FE0009093CE0080E090E008958091C80087FD36
:101FF00003C02EEF3FEF0BC08091C80087FD03C0E8
:102000002FEF3FEF04C08091CE00282F30E0C901B0
:102010000895629FD001739FF001829FE00DF11D32
:10202000649FE00DF11D929FF00D839FF00D749F52
:10203000F00D659FF00D9927729FB00DE11DF91FFE
:10204000639FB00DE11DF91FBD01CF01112408955B
:10205000803209F0911180C280528F55E0F70895C7
:102060000F931F93CF93DF938C01EB018B8181FF43
:102070001BC082FF0DC02E813F818C819D8128175E
:10208000390764F4E881F9810193F983E88306C094
:10209000E885F985802F0995892B31F48E819F8100
:1020A00001969F838E8302C00FEF1FEFC801DF915F
:1020B000CF911F910F910895DF93CF93CDB7DEB7E6
:1020C000FE01359661917191A0913E01B0913F0161
:1020D00013968C911397886013968C9380913E0190
:1020E00090913F01AF013FD0E0913E01F0913F015F
:1020F0002381277F2383CF91DF9108950F931F932F
:10210000CF93DF93EC01E0913E01F0913F01838199
:1021100081FF21C000E010E00EC0E0913E01F0918F
:102120003F0120853185BF01F9010995892B11F007
:102130000FEF1FEF2196FE018491882371F7E09144
:102140003E01F0913F01208531858AE0BF01F90110
:102150000995892B11F00FEF1FEFC801DF91CF9187
:102160001F910F9108952F923F924F925F926F921D
:102170007F928F929F92AF92BF92CF92DF92EF9217
:10218000FF920F931F93DF93CF93CDB7DEB72B97BB
:102190000FB6F894DEBF0FBECDBF3C012B015A0134
:1021A000FC0117821682838181FD03C06FEF7FEFF0
:1021B000B9C19AE0892E1E010894211C311CF3013B
:1021C0002381F20123FD859123FF81912F01882333
:1021D00009F4A5C1853239F423FD859123FF81914E
:1021E0002F01853221F490E0B3013ADFE8CF982F38
:1021F000FF24EE249924FFE1FF15D0F09B3269F013
:102200009C3228F4903259F0933291F40EC09D32F2
:1022100049F0903369F441E024C052E0F52A84E0AB
:10222000F82A28C098E0F92A25C0E0E1FE2A22C059
:10223000F7FC29C0892F80538A3070F4F6FE05C060
:10224000989C902C1124980E15C0E89CE02C112429
:10225000E80EF0E2FF2A0EC09E3229F4F6FC5FC1C0
:1022600040E4F42A07C09C3619F450E8F52A02C06D
:10227000983649F4F20123FD959123FF91912F01A6
:10228000992309F0B8CF892F8554833018F08052F4
:10229000833038F444E050E0A40EB51E5FE3598368
:1022A0000FC0933631F0933779F0933509F052C06F
:1022B0001FC0F5018081898342E050E0A40EB51E65
:1022C000610101E010E011C0F501C080D180F6FC91
:1022D00003C06FEF7FEF02C0692D70E042E050E075
:1022E000A40EB51EC60146D18C015FE7F52213C0CE
:1022F000F501C080D180F6FC03C06FEF7FEF02C014
:10230000692D70E042E050E0A40EB51EC60127D151
:102310008C0150E8F52AF3FE06C018C080E290E078
:10232000B3019EDEEA948E2D90E008171907B0F3F2
:102330000DC0F601F7FC8591F7FE81916F0190E0E9
:10234000B3018EDEE110EA94015010400115110531
:1023500081F7E2C0943611F0993661F5F7FE08C0B6
:10236000F501208131814281538184E090E00AC0EF
:10237000F501808191819C01442737FD4095542FC0
:1023800082E090E0A80EB91E9FE6F92257FF09C02F
:1023900050954095309521953F4F4F4F5F4FE0E866
:1023A000FE2ACA01B901A1012AE030E0EED0D82E00
:1023B000D2183FC0953729F41F2D1F7E2AE030E048
:1023C0001DC01F2D197F9F3661F0903720F498357E
:1023D00009F0A5C00FC0903739F0983709F09FC0B9
:1023E00004C028E030E00AC0106114FD146020E150
:1023F00030E004C014FD166020E132E017FF08C091
:10240000F501608171818281938144E050E008C0D0
:10241000F50180819181BC0180E090E042E050E0D4
:10242000A40EB51EA101B1D0D82ED2188FE7F82E78
:10243000F122F6FE0BC05EEFF522D91438F4F4FE5B
:1024400007C0F2FC05C08FEEF82202C01D2D01C0AE
:10245000192DF4FE0DC0FE01ED0DF11D80818033BC
:1024600019F499EEF92208C01F5FF2FE05C003C0FF
:102470008F2D867809F01F5F0F2DF3FC13C0F0FE3F
:102480000EC01E1510F09D2C0AC09D2C9E0C911A9A
:102490001E2D05C080E290E0B301E2DD1F5F1E1536
:1024A000C8F304C01E1510F4E11A01C0EE2404FFA5
:1024B0000EC080E390E0B301D3DD02FF1BC001FD3D
:1024C00003C088E790E00EC088E590E00BC0802F45
:1024D000867881F001FF02C08BE201C080E2F7FC48
:1024E0008DE290E0B301BCDD05C080E390E0B30174
:1024F000B7DD9A94D914C8F3DA94F101ED0DF11D0A
:10250000808190E0B301ACDDDD20B1F705C080E251
:1025100090E0B301A5DDEA94EE20C9F750CEF301B7
:1025200066817781CB012B960FB6F894DEBF0FBE84
:10253000CDBFCF91DF911F910F91FF90EF90DF9072
:10254000CF90BF90AF909F908F907F906F905F9053
:102550004F903F902F900895992788270895FC0168
:102560000590615070400110D8F7809590958E0FBE
:102570009F1F0895FC016150704001900110D8F731
:10258000809590958E0F9F1F0895FA01AA272830F5
:1025900051F1203181F1E8946F936E7F6E5F7F4F30
:1025A0008F4F9F4FAF4FB1E03ED0B4E03CD0670FAC
:1025B000781F891F9A1FA11D680F791F8A1F911DFF
:1025C000A11D6A0F711D811D911DA11D20D009F44F
:1025D00068943F912AE0269F11243019305D319391
:1025E000DEF6CF010895462F4770405D4193B3E07A
:1025F0000FD0C9F7F6CF462F4F70405D4A3318F021
:10260000495D31FD4052419302D0A9F7EACFB4E0D1
:10261000A6959795879577956795BA95C9F7009789
:102620006105710508959B01AC010A2E069457952A
:10263000479537952795BA95C9F7620F731F841F81
:0A264000951FA01D0895F894FFCF28
:10264A000100020000000000000000000000000578
:10265A0001000000000080060001000008004000A0
:00000001FF
