:020000021000EC
:10E00000D7C00000F2C00000F0C00000EEC0000069
:10E01000ECC00000EAC00000E8C00000E6C000005C
:10E02000E4C00000E2C00000E0C00000DEC000006C
:10E03000DCC00000DAC00000D8C00000D6C000007C
:10E04000D4C00000D2C00000D0C00000CEC000008C
:10E05000CCC00000CAC00000C8C00000C6C000009C
:10E06000C4C00000C2C00000C0C00000BEC00000AC
:10E07000BCC00000BAC00000B8C00000B6C00000BC
:10E08000B4C00000B2C00000B0C00000AEC00000CC
:10E09000ACC00000AAC0000041014214450556046E
:10E0A00055026403740300001E97820201100300EE
:10E0B00000C18081C106C0FF0A000CA10185037563
:10E0C00008150026FF0095400901810295400902CC
:10E0D0009102C00403090438034100720064007512
:10E0E0000069006E006F0020004C0065006F006E3C
:10E0F000006100720064006F00200062006F006F1A
:10E100000074006C006F006100640065007200180C
:10E1100003410072006400750069006E006F00200A
:10E12000004C004C0043001201000202000040417C
:10E13000233400000101020001120100020000006E
:10E140004041233400000101020001090264000380
:10E1500001008032080B00020202010009040000E5
:10E160000102020000052400100105240101010440
:10E17000240202052406000107058103100040095E
:10E18000040100020A000000070502024000000727
:10E190000583024000000904020001030000000999
:10E1A0002101010001221E000705840340004000F8
:10E1B00011241FBECFEFD0E2DEBFCDBF11E0A0E043
:10E1C000B1E0EEEAF8EE01E00BBF02C007900D925D
:10E1D000A830B107D9F711E0A8E0B1E001C01D9265
:10E1E000AB39B107E1F781D060C30ACF20918A0132
:10E1F00030918B012C5F3F4F30938B0120938A012C
:10E20000C901892F99278695982F803418F08FE7B8
:10E21000891B982F990F921710F429980895299A1D
:10E2200008950000000081E08093E0001092E20079
:10E23000EE27FF2709940895FF920F931F93CF9322
:10E24000DF93382FEB01042F10E080EE6030780769
:10E2500058F411E0CB01A0E0B0E023E0FC01A09372
:10E260005B0020935700E895832F68E071E0402F12
:10E2700025D1112309F433C007B600FCFDCF402F90
:10E280004695BE0108E011E050E0FF24F39414C06D
:10E29000CB01AA2797FDA095BA2FF80121913191C2
:10E2A0008F010901FC01A0935B00F0925700E895F3
:10E2B00011246E5F7F4F5F5F541750F3CE01A0E0D3
:10E2C000B0E025E0FC01A0935B0020935700E895A7
:10E2D00007B600FCFDCF81E180935700E895DF9100
:10E2E000CF911F910F91FF900895BF92CF92DF922F
:10E2F000EF92FF920F931F93CF93DF9384B7877FA3
:10E3000084BF88E10FB6F89480936000109260009B
:10E310000FBE00000000299A219A209A90E890935D
:10E3200061001092610081E885BF95BF73986B9A78
:10E33000779A6F9AA5D084E18093880180E18093D9
:10E34000890180E090E0A0E0B0E0ABBFFC018791E4
:10E3500096918F5F9F4F19F081E080938F01EE249B
:10E36000FF24BB24B39454EFC52E51E0D52E62D2C6
:10E37000082F28E930EEC901AA2797FDA095BA2FEA
:10E38000ABBFFC0157912F5F3F4FC901AA2797FDF3
:10E39000A095BA2F2F5F3F4FABBFFC01479150179D
:10E3A00011F0552341F7109291011092900182E0F3
:10E3B00068E071E083D0013479F46091080160581D
:10E3C000633028F0683111F064E001C063E0C62FCB
:10E3D000D0E0C555DF410EC0063571F480910801CB
:10E3E000803311F011E022C080910A01C82FD0E0E3
:10E3F000C855DF4111E022C0053721F413E0C8EA17
:10E40000D0EE1CC0053539F4E0900801F090090108
:10E41000EE0CFF1C0AC0043631F482E0B7014091D3
:10E4200009010ADF02C0043721F010E0CFEAD0EE84
:10E4300005C010910901E701E10EF11CFBD18097A5
:10E44000B1F483E068E871E041E050E056D0112378
:10E4500029F0412F50E083E8BE014FD083E469E802
:10E4600071E041E050E049D0013509F080CFD09211
:10E470009101C0929001B0928F01EE24FF2477CFDA
:10E48000109291011092900110928E0110928F01C2
:10E4900081E08093E0006F9A779881E88093D700BD
:10E4A00080EA8093D80086E189BD09B400FEFDCFE3
:10E4B00080E98093D8001092E0000895FB018093DA
:10E4C000E9008091EB0081608093EB0024E69BE6FD
:10E4D00011C08091E80085FFFCCF000020938D01E2
:10E4E0008091F10081938091E80085FD02C09093B6
:10E4F000E8004150442369F70895CF93DF93282F14
:10E50000EB01382F307287708093E9008091EB0027
:10E5100081608093EB0074E66AE31EC08091E8009E
:10E5200085FFFCCF27FF09C0CE01AA2797FDA09544
:10E53000BA2FABBFFC01879101C0888121963111B0
:10E5400080E0000070938C018093F1008091E800DE
:10E5500085FD02C06093E800415050408FEF4F3F6F
:10E560005807E1F626FF03C08AE38093E800DF91B5
:10E57000CF91089580919301813299F4000084E64F
:10E5800080938C0120E030E003C080818093F10013
:10E59000F901E050FF4F2F5F3F4F28303105A9F7B9
:10E5A00022C08032D1F48091E80082FFFCCF0000CD
:10E5B00084E680938D0120E030E003C08091F1007B
:10E5C0008083F901E050FF4F2F5F3F4F2830310526
:10E5D000A9F78BEF8093E80006C0823221F4809186
:10E5E00094018093070181E00895209195012232E2
:10E5F00061F1213081F480919801909199010897FF
:10E6000011F420939A0180919A01882309F052C055
:10E6100029E331EE51C0223021F484E62BE431EEBF
:10E6200017C0233009F044C080919401882319F465
:10E6300023ED30EE41C0823019F427ED30EE3CC0BE
:10E640008130B1F52FE031EE37C081E025EB30EEBF
:10E6500090919801582F981708F4592F90918C0198
:10E6600040E06EEF8091E8008570E1F38091E80072
:10E6700082FD1AC04F5FC901AA2797FDA095BA2F46
:10E68000ABBFFC01879100008093F100842F8F7352
:10E6900011F46093E8002F5F3F4F94E6451710F3A5
:10E6A00090938C0181E0089590938C0180E008950F
:10E6B00080E0089527E231EEC901AA2797FDA095D1
:10E6C000BA2FABBFFC018791C3CF1092E9008091B4
:10E6D000EB0081608093EB008091E80083FF75C0C0
:10E6E000000084E680938D01E2E9F1E003C08091AF
:10E6F000F100819381E0EA39F807C9F782EF80934E
:10E70000E8008091920187FF05C08091E80080FFBA
:10E71000FCCF03C08EEF8093E80080919301853099
:10E7200051F48091E80080FFFCCF809194018068D3
:10E730008093E30043C0893031F580919401809348
:10E740008E0121EB30EE41E056E34093E9008091E9
:10E75000EB0081608093EB00C901AA2797FDA0958B
:10E76000BA2FABBFFC0187918093EC005093ED0072
:10E770004F5F2F5F3F4F453041F78EE18093EA00B6
:10E780001092EA001BC0883049F490918E0100007D
:10E7900084E680938C019093F10010C0882339F4B3
:10E7A000000084E680938C011092F10007C086304F
:10E7B00011F41BDF01C0DEDE882321F08EEF809391
:10E7C000E800089581E28093EB0008958091E100D4
:10E7D0001092E100282F83FF0EC01092E900809173
:10E7E000EB0081608093EB001092EC0082E3809359
:10E7F000ED0010928E0122FF1CC080918C018823B5
:10E8000031F0815080938C01882309F400008091BD
:10E810008D01882331F0815080938D01882309F484
:10E82000000080918F01882321F4109291011092B1
:10E83000900108951F93CF93DF9312E0C0E9D1E0D8
:10E8400044DFC4DF1093E9008091EB008160809386
:10E85000EB008091E80085FF13C0000084E6809300
:10E860008D019091F1008091E80085FD03C08BE659
:10E870008093E800892F90E0DF91CF911F91089558
:10E8800080919001909191010197909391018093D3
:10E8900090018091900190919101892B09F4C1DC44
:0EE8A000CE010197F1F7A2DCCBCFF894FFCFA9
:08E8AE0000E100000000000081
:040000031000E00009
:00000001FF
