:1000000072C08CC08BC08AC089C088C087C086C0BF
:1000100085C084C083C082C081C080C07FC04F4B78
:10002000004449534B5F45525200494E545F45527C
:1000300052004E4F545F5245414459004E4F5F4667
:10004000494C45004E4F5F5041544800494E56417F
:100050004C49445F4E414D450053545245414D5F1C
:1000600045525200494E56414C49445F4F424A4521
:100070004354004E4F545F454E41424C4544004E60
:100080004F5F46494C455F53595354454D000072EC
:10009000633D25752046525F25530A0072633D2556
:1000A000640A002020000A504646207465737420BC
:1000B0006D6F6E69746F720A0066707472203D20F5
:1000C000256C75283078256C58290A002020203CA2
:1000D0004449523E20202025730A0025396C7520A2
:1000E0002025730A000011241FBECFE5D2E0DEBF39
:1000F000CDBF10E0A0E6B0E0EEEAFEE103C0C89597
:1001000031960D92A037B107D1F710E0A0E7B0E02B
:1001100001C01D92A73BB107E1F791C071CF482FF5
:10012000592F2EE130E060E070E010C0F32FE22F95
:10013000C895802D882369F0F32FE22F2F5F3F4F62
:10014000C895802D8823C1F76F5F7F4F64177507AF
:1001500069F73F932F935F934F938FE890E09F93BE
:100160008F9359DD8DB79EB706960FB6F8949EBF54
:100170000FBE8DBF089599279F938F938CE990E0D0
:100180009F938F9348DD0F900F900F900F900895DD
:10019000EF92FF921F93CF93DF93E82EF92EB72FA4
:1001A000A62F952F842FD32FC22F28EF40E1682F41
:1001B000792F8A2F9B2FF4DC80E2DCDC10E01C1608
:1001C0001D06BCF480E2D6DCFF2DEE2DE10FF11D03
:1001D00080819927AA27BB272EEF40E1682F792F2E
:1001E0008A2F9B2FDDDC1F5F812F99278C179D079E
:1001F0004CF383EA90E0CDDC10E01C161D069CF465
:10020000FF2DEE2DE10FF11DE0818E2F80528F35F5
:1002100010F48E2F01C08EE2ADDC1F5F812F992775
:100220008C179D076CF38AE0A5DCDF91CF911F91BD
:10023000FF90EF9008959EDC81E090E00895C1E08A
:10024000D2E0DEBFCDBF89EA81BF8BE088BB8EE004
:1002500087BB85E99DE0909373008093720086EAE6
:1002600090E097DC8EE386DC10E071DC8D3091F05D
:10027000883021F41123C9F31150F7CF8032A8F34D
:10028000E12FFF27EF33F10584F7EA58FF4F808312
:100290001F5FEBCFE12FFF27EA58FF4F10828AE064
:1002A00044DC56E7652E50E0752E43E5842E912CF4
:1002B0008C0E9D1E80917600282F332727FD3095C8
:1002C000572D462D4F5F5F4FF92DE82D5183408309
:1002D0002436310529F02636310509F47DC0C2CF18
:1002E00080917700282F332727FD3095952F842F75
:1002F0000196F92DE82D918380832436310531F064
:100300002936310509F0AECFD7DA2BC06C2F7D2FFF
:100310006B5A7F4F992D882DDCDC882309F4A2CFFE
:100320006C2F7D2F675A7F4F992D882DD2DC882323
:1003300009F498CFFD2FEC2FE75AFF4FE080F180B2
:1003400000E410E03F2D2E2DFD2FEC2FEB5AFF4F38
:100350004081518162817381972D862D6FDB8823C7
:1003600011F009DF7FCF30E4C32ED12CCE0CDF1C7F
:10037000F92DE82D71826082EC14FD0408F072CF33
:100380003D2D2C2D2E193F092131310510F020E192
:1003900030E0FD2FEC2FE35AFF4F318320838E2D69
:1003A0009F2DAA27BB27482F592F6A2F7B2F0C2F51
:1003B0001D2F0D5A1F4FF12FE02F80819181E8DE14
:1003C00080E190E0E80EF91EF12FE02F808191810D
:1003D000409691838083D0CF80917700282F332758
:1003E00027FD3095952F842F0196F92DE82D9183C7
:1003F000808329363105D9F02A36310544F4243674
:100400003105A9F12536310509F4A6C02BCF2F36C9
:10041000310591F0203731052CF42C36310509F4E3
:10042000D3C020CF2437310509F47AC01BCF8C2FDD
:100430009D2F0196FFD4EEC0F92FE82F8091780010
:10044000803269F4B92DA82D8E2F9F2F0196119619
:100450009C938E93F92FE82F80818032A9F3FD2F92
:10046000EC2FED5AFF4F80819181F5D5D3C0A98C37
:10047000BA8C4C2F5D2F435A5F4F60E470E0972D8C
:10048000862D44D6282F882309F0C2C0F92DE82DE7
:1004900071826082FD2FEC2FE35AFF4F80819181A2
:1004A000892B09F4DFCE2DE5C22ED12CCC0EDD1E1A
:1004B000FD2DEC2DE080F180F1E1EF16F10418F054
:1004C00090E1E92EF12CFD2DEC2D808191818E198A
:1004D0009F09918380838A2D9B2DAA27BB273F2DBF
:1004E0002E2D482F592F6A2F7B2F0C2F1D2F0D5A81
:1004F0001F4FF12FE02F808191814ADEF12FE02FF5
:100500008081918140969183808380E190E0A80E64
:10051000B91EFD2DEC2DC2CF822F992700DE18C009
:100520008B8180648B834C2F5D2F435A5F4F60E03B
:1005300070E88BE191E0EAD5282F882369F7FD2F39
:10054000EC2FE35AFF4F808191818050904859F3FE
:100550008B818F7B8B8386CE6C2F7D2F6B5A7F4F49
:10056000992D882DB6DB882309F47CCEFD2FEC2F46
:10057000EB5AFF4F6081718182819381DAD6082F17
:10058000192F9927CCDD002309F06CCE898D9A8D27
:10059000AB8DBC8DBF93AF939F938F93898D9A8DB5
:1005A000AB8DBC8DBF93AF939F938F9389EB90E0FE
:1005B0009F938F9330DB8DB79EB70A960FB6F89452
:1005C0009EBF0FBE8DBF4ECEF92FE82F80917800D1
:1005D000803269F4B92DA82D8E2F9F2F0196119688
:1005E0009C938E93F92FE82F80818032A9F38DE2BE
:1005F000E82EF12CEC0EFD1EFD2FEC2FED5AFF4FD7
:10060000608171819F2D8E2D9ED7282F882321F008
:10061000822F992784DD26CE0C2F1D2F035C1F4FC0
:10062000712F602F9F2D8E2DDAD7282F882381F7E9
:10063000FD2FEC2FEA5BFF4F8081882309F412CE57
:10064000FD2FEC2FEB5BFF4F8081312F202F275F99
:100650003F4F84FF0CC03F932F938CEC90E09F930F
:100660008F93D9DA0F900F900F900F90D5CF3F93C3
:100670002F93F12FE02F80819181A281B381BF93CD
:10068000AF939F938F938BED90E09F938F93C3DAFB
:100690008DB79EB708960FB6F8949EBF0FBE8DBF5C
:1006A000BBCFA4E0B0E0E6E5F3E0CBCBC62ED72E7F
:1006B000E82EF92E40907000509071006230710564
:1006C0008105910558F0F52DE42D80859185A28551
:1006D000B385C816D906EA06FB0628F061E070E08B
:1006E00080E090E0DBC0F52DE42D8081682E77243A
:1006F000F2E06F16710409F47AC023E06216710407
:100700002CF431E06316710439F0C4C043E0641680
:10071000710409F494C0BEC09D2D8C2D3D2D2C2D4F
:1007200036952795820F931F282F392F3170892FE7
:1007300099278695882E992EAA24BB24F52DE42D81
:100740004485558566857785F1E02F3F3F0751F059
:10075000480D591D6A1D7B1D02E010E08C2F9D2F56
:10076000019623C0480D591D6A1D7B1D172D062DAE
:100770008C2F9D2F019662D9282F392F892B09F0B4
:1007800089C0F52DE42D84859585A685B785880DCE
:10079000991DAA1DBB1D0196A11DB11D482F592FE2
:1007A0006A2F7B2F8C2F9D2F029648D9892B09F019
:1007B00071C089819A8121E030E040E050E0C2229E
:1007C000D322E422F522CD2831F034E096958795A6
:1007D0003A95E1F72BC0282F392F44275527952F1D
:1007E000842F732F622F7F708070907057C09D2D63
:1007F0008C2D9070880F991F33272F2D1E2D0D2DB6
:10080000F52DE42D4485558566857785400F511F6C
:10081000621F731F172D062D282F392F8C2F9D2F08
:1008200001960CD9892BB1F589819A81282F392F0E
:1008300044275527952F842F732F622F2FC03D2DCE
:100840002C2D2F773070220F331F220F331F87E09C
:10085000F694E794D794C7948A95D1F7F52DE42DB3
:1008600084859585A685B7858C0D9D1DAE1DBF1D04
:1008700004E010E0482F592F6A2F7B2F8C2F9D2FDB
:100880000196DCD8892B31F469817A818B819C8136
:100890009F7004C06FEF7FEF8FEF9FEFE0E1249632
:1008A000ECCAA0E0B0E0E6E5F4E0D3CAC62ED72E4D
:1008B000E82EF92E00917000109171008EEF9FEFDD
:1008C000AFEFBFEFC80ED91EEA1EFB1EF12FE02FBF
:1008D00080859185A285B3850297A109B109C816C3
:1008E000D906EA06FB0628F020E030E040E050E0C0
:1008F0001DC0F12FE02F81819927AA27BB27282F20
:10090000392F4A2F5B2F9F2D8E2D7D2D6C2D55DA83
:10091000262F372F482F592FF12FE02F84899589C3
:10092000A689B789280F391F4A1F5B1F952F842F6F
:10093000732F622FE8E0CDB7DEB7A7CACF93DF935E
:10094000D92FC82FE0917000F091710019821882A0
:100950002C813D814E815F8121303105410551055A
:1009600049F080859185A285B385281739074A0704
:100970005B0718F082E090E025C0211531054105A4
:10098000510539F48081833021F4208931894289ED
:100990005389288739874A875B87211531054105A7
:1009A000510531F0952F842F732F622F7ADF04C009
:1009B00060897189828993896C877D878E879F87FB
:1009C00080E090E0DF91CF910895EF92FF920F9336
:1009D0001F93CF93DF93082F192FE0907000F090B2
:1009E0007100F92FE82FC081D181219609F463C0ED
:1009F00024853585468557852115310541055105E5
:100A000009F459C08C2F9D2F8F709070892B09F09D
:100A10006AC02F5F3F4F4F4F5F4FF12FE02F24876A
:100A2000358746875787408551856285738541158F
:100A300051056105710549F4FF2DEE2D84819581E5
:100A4000C817D90708F44FC036C08C2F9D2FE4E09B
:100A500096958795EA95E1F7FF2DEE2D21813327B5
:100A60002150304082239323892B09F03CC0972FDB
:100A7000862F752F642F15DE262F372F482F592FDD
:100A8000623071058105910518F482E090E031C073
:100A90006F5F7F4F8F4F9F4F19F481E090E029C027
:100AA000FF2DEE2D80859185A285B3852817390706
:100AB0004A075B0718F084E090E01BC0F12FE02F9D
:100AC0002087318742875387952F842F732F622F7A
:100AD000E8DEB92FA82F972F862FF12FE02F8487DC
:100AE0009587A687B787F12FE02FD183C08380E059
:100AF00090E0E6E0CDB7DEB7CAC9A2E0B0E0E2E838
:100B0000F5E0A7C9C82ED92E7A836983F72FE62F7F
:100B100080818F3219F43196FA83E983FD2DEC2D13
:100B20001482158216821782E981FA8180818032CF
:100B300070F49D2D8C2D02DF282F392FE09170004D
:100B4000F09171000680F781E02D108220C1EC2E1B
:100B5000FD2E0894E11CF11CFD2DEC2DA281B3812A
:100B600020E230E0FB2FEA2F8AE090E0219301970A
:100B70004FEF8F3F9407D1F710E0312F08E0FF2DA2
:100B8000EE2D60817181F72FE62FE10FF11D1F5FC0
:100B90002081203288F12F3279F12C3569F12E3203
:100BA00011F0301738F0083049F52E3239F5302F72
:100BB0000BE0E9CF2F3710F5E0E6F0E0422F5527A4
:100BC0008091600008C0992787FD9095841795074C
:100BD00021F0319680818823B1F78081882371F4D8
:100BE000822F81568A3108F42052FB2FEA2FE30F1F
:100BF000F11D20833F5FC7CF332331F486E090E0BF
:100C000012C044E050E085C0610F711DFF2DEE2D34
:100C10007183608380E0203208F481E0FB2FEA2FAB
:100C2000838780E090E0282F392F892B09F0AFC00F
:100C30009D2D8C2D83DE482F592F892B09F069C0FB
:100C4000E0917000F0917100E680F780FD2DEC2DB1
:100C500080819181682F792F6F70707025E0660F09
:100C6000771F2A95E1F704E0969587950A95E1F7B5
:100C7000282F392F4427552784859585A685B78544
:100C8000820F931FA41FB51F00E210E0262F372FFD
:100C9000482F592F6A2F7B2F9F2D8E2DCFD6482F6F
:100CA000592F892B19F041E050E033C0FF2DEE2D74
:100CB0008081882309F4A5CF838583FD22C06BE062
:100CC00070E0BF2DAE2DFD2DEC2D02811381242F60
:100CD000352F61507040FFEF6F3F7F0781F08D919E
:100CE000282F332727FD3095F12FE02F81910E2FEC
:100CF0001F2F992787FD9095281B390B51F3232B24
:100D000041F09D2D8C2D61DE482F592F892B09F440
:100D10009DCF242F352F4115510579F044305105D1
:100D2000B1F5FD2DEC2DA281B381FB2FEA2F838538
:100D3000882369F525E030E02AC0FD2DEC2DA28145
:100D4000B381FB2FEA2F8385882309F5E09170009A
:100D5000F09171000680F781E02D838584FFEACF52
:100D600084899589AA27BB27B92FA82F9927882777
:100D7000228D338D44275527822B932BA42BB52B03
:100D8000FD2DEC2D84839583A683B783E0CE932F2E
:100D9000822FE8E0229679C8A0E0B0E0E1EDF6E02D
:100DA00058C8D92FC82FC42ED52EE62EF72E02E014
:100DB00010E02EEF31E042D6892B19F083E090E06D
:100DC00035C08881998185559A4A19F082E090E072
:100DD0002DC002E010E026E330E07F2D6E2D5D2D6A
:100DE0004C2D8C2F9D2F2AD6282F392F892B29F473
:100DF0008881998186549144A1F002E010E022E5B7
:100E000030E07F2D6E2D5D2D4C2D8C2F9D2F16D615
:100E1000282F392F892B41F4888199818654914458
:100E200019F4932F822F02C081E090E0E8E0CDB763
:100E3000DEB72BC8A4E2B0E0EFE1F7E001C8482E2E
:100E4000592E1092710010927000009709F400C1A1
:100E500033D580FF03C083E090E0FAC06624772496
:100E600088249924792D682D572D462D8C2F9D2F60
:100E7000019692DF8130E9F400E110E02EEB31E0E1
:100E8000792D682D572D462D8C2F9D2F0196D6D567
:100E9000892B21F58D81882381F069847A848B8464
:100EA0009C84792D682D572D462D8C2F9D2F0196D2
:100EB00073DF833099F0882319F08AE090E0C8C08E
:100EC00004E210E02DE030E0792D682D572D462DFD
:100ED0008C2F9D2F0196B2D5892B19F081E090E0DF
:100EE000B7C08A859B85A82EB92ECC24DD24A114F9
:100EF000B104C104D10421F4A88CB98CCA8CDB8C58
:100F00008C819927AA27BB27282F392F4A2F5B2F9F
:100F10009D2D8C2D7B2D6A2D50D7A62EB72EC82E39
:100F2000D92E8A819B81282F392F44275527620E7D
:100F3000731E841E951EF52DE42D648675868686A7
:100F40009786398031826D817E81758364838F813C
:100F50009885E82EF92E00271127E114F1040105E8
:100F6000110521F4EC88FD880E891F89E21AF30A25
:100F7000040B150BEA18FB080C091D0954E07695C3
:100F800067955A95E1F7862F972FAA27BB27E81A6E
:100F9000F90A0A0B1B0B232D332744275527912FC2
:100FA000802F7F2D6E2D24D72E5F3F4F4F4F5F4FE9
:100FB000F52DE42D208731874287538781E0273F35
:100FC000FFE03F07F0E04F07F0E05F0708F082E046
:100FD000275F3F4F4040504008F083E0F52DE42D5F
:100FE0008083833049F488A199A1AAA1BBA1808BF9
:100FF000918BA28BB38B0AC06A0C7B1C8C1C9D1C32
:10100000F52DE42D608A718A828A938AF52DE42D6C
:1010100084859585A685B7858A0D9B1DAC1DBD1D54
:101020002481358144E0369527954A95E1F7442798
:101030005527820F931FA41FB51F848B958BA68BFA
:10104000B78B1282509271004092700080E090E065
:10105000E1E1A49611C7ACE3B0E0E0E3F8E0FDC63F
:10106000682F792F00917000109171000115110502
:1010700019F489E090E047C0F12FE02F12828C2F05
:101080009D2F4D96978386838C2F9D2F41969C8311
:101090008B838C2F9D2F019630DD0097A1F58D8DD0
:1010A000882341F088A59927682F792F6071707087
:1010B00084FF03C084E090E026C089A99AA9AA27EA
:1010C000BB27B92FA82F992788272FA938AD4427E8
:1010D0005527822B932BA42BB52BF12FE02F80A328
:1010E00091A3A2A3B3A389AD9AADABADBCAD848FE0
:1010F000958FA68FB78F108E118E128E138E81E072
:101100008283972F862FE4E0EC96C3C6A0E0B0E080
:10111000EBE8F8E098C6682E792EC62ED72EA42EBE
:10112000B52E882E992EC0917000D0917100F52FA8
:10113000E42F11821082209719F489E090E0F5C025
:101140008A8180FD03C088E090E0EFC087FF0BC07C
:1011500007C08A8180688A83C6C08A8180688A8342
:1011600082E090E0E2C02C8D3D8D4E8D5F8D888DAC
:10117000998DAA8DBB8D281B390B4A0B5B0B862FD3
:10118000972FAA27BB27281739074A075B0710F4B0
:10119000C22ED32EC114D10409F4C5C0E88CF98C39
:1011A0000A8D1B8DB12FA02F9F2D8E2D9170A070B9
:1011B000B0700097A105B10509F059C0B12FA02F5B
:1011C0009F2D8E2D29E0B695A795979587952A9501
:1011D000D1F72981332744275527682F792F8A2F64
:1011E0009B2F06D6B92FA82F972F862F0097A105E2
:1011F000B10519F5E114F1040105110529F468A1FF
:1012000079A18AA19BA105C06CA17DA18EA19FA1FE
:1012100048DA623071058105910508F49ECF6F3F71
:10122000FFEF7F07FFEF8F07FFEF9F0709F491CFD5
:101230006CA37DA38EA39FA31B826CA17DA18EA115
:101240009FA12FDB262F372F482F592F61157105AE
:101250008105910509F481CF8B81280F311D411D36
:10126000511D28A739A74AA75BA78F5F8B83888D5D
:10127000998D9170E12CF2E0FF2EE81AF90ACE1454
:10128000DF0410F4FD2CEC2C8A81288D398D4A8DD9
:101290005B8D86FF0FC09F2D8E2D90683170407042
:1012A0005070082F192F48A559A56AA57BA5972D21
:1012B000862D0BC03170407050701F2D0E2D48A52B
:1012C00059A56AA57BA5992D882DB8D3282F392F2C
:1012D000892B61F08A8180688A832230310519F474
:1012E00087E090E022C081E090E01FC08E0C9F1C40
:1012F0008E2D9F2DAA27BB27288D398D4A8D5B8D7A
:10130000280F391F4A1F5B1F288F398F4A8F5B8F29
:10131000FB2DEA2D808191818E0D9F1D918380830D
:10132000CE18DF0837CF80E090E0EEE0CDB7DEB733
:10133000A6C5A0E0B0E0EEE9F9E081C5662E772E03
:10134000882E992EC0917000D0917100209719F4C9
:1013500089E090E0F4C08A8180FD03C088E090E0DD
:10136000EEC087FDD2C08C8D9D8DAE8DBF8D861554
:101370009705A805B90520F4682E792E8A2E9B2E94
:10138000288C398C4A8C5B8C188E198E1A8E1B8E89
:10139000611471048104910409F4CFC08981A82EDD
:1013A000BB24CC24DD2479E0AA0CBB1CCC1CDD1CA6
:1013B0007A95D1F7211431044104510409F440C055
:1013C000B92DA82D972D862D0197A109B109682F58
:1013D000792F8A2F9B2F5D2D4C2D3B2D2A2D08D543
:1013E000E22EF32E042F152F08942108310841080E
:1013F0005108952D842D732D622D5D2D4C2D3B2D87
:101400002A2DF6D4E216F30604071507C8F088273C
:101410009927AA27BB278A199B09AC09BD098221F4
:101420009321A421B521888F998FAA8FBB8F681A29
:10143000790A8A0A9B0A2CA13DA14EA15FA108C08E
:1014400028A139A14AA15BA12CA33DA34EA35FA370
:10145000A614B704C804D904A8F5952F842F732FB8
:10146000622F1FD9262F372F482F592F2F3F8FEF4D
:1014700038078FEF48078FEF580709F449C022302B
:10148000310541055105F0F188859985AA85BB850F
:10149000281739074A075B07A8F52CA33DA34EA3DD
:1014A0005FA3888D998DAA8DBB8D8A0D9B1DAC1D68
:1014B000BD1D888F998FAA8FBB8F6A187B088C08F7
:1014C0009D08C6CF888D998DAA8DBB8D860D971DE1
:1014D000A81DB91D888F998FAA8FBB8F69E096943C
:1014E0008794779467946A95D1F7E62CE394EB821E
:1014F000952F842F732F622FD4D961157105810523
:10150000910561F48A8180688A8382E090E017C047
:101510008A8180688A8381E090E011C0B92FA82F6A
:10152000972F862F8E0D911DA11DB11D0197A10929
:10153000B10988A799A7AAA7BBA780E090E0E2E13C
:10154000CDB7DEB798C4ACE2B0E0E8EAFAE085C413
:10155000082F192FE0917000F0917100309719F465
:1015600089E090E039C08C2F9D2F0D96978386835C
:101570008C2F9D2F0196F12FE02F93838283912F43
:10158000802FBBDA009719F58D858823E9F0888DC7
:1015900084FF17C089A19AA1AA27BB27B92FA82F1A
:1015A000992788272FA138A544275527822B932BCD
:1015B000A42BB52BF12FE02F84839583A683B783CB
:1015C00003C085E090E003C0912F802FB7D984300D
:1015D000910511F485E090E0E4E0AC965AC4ACE2E9
:1015E000B0E0E4EFFAE033C4C82ED92EA62EB72E11
:1015F000E0917000F0917100309719F489E090E06B
:1016000010C18C2F9D2F0D96978386838C2F9D2F35
:101610000196FD2DEC2D93838283672B39F49D2D4C
:101620008C2D8CD9FEC024E030E06AC024E030E08C
:10163000FD2DEC2D84859585A685B7850097A105A0
:10164000B10509F45DC0E0917000F0917100E68091
:10165000F780BD2DAC2D8D919C91682F792F6F70E7
:101660007070A5E0660F771FAA95E1F7F4E09695F4
:101670008795FA95E1F7282F392F44275527FD2D17
:10168000EC2D84859585A685B785820F931FA41FB1
:10169000B51F00E210E0262F372F482F592F6A2F51
:1016A0007B2F9F2D8E2DCAD1282F392F892B19F0F2
:1016B00021E030E025C0BF2DAE2D9C91992309F487
:1016C000B2CFFF2DEE2D83858F73953E21F09E3294
:1016D00011F083FF1BC09D2D8C2D77D9282F392F1A
:1016E000009761F4FD2DEC2D84859585A685B78541
:1016F0000097A105B10509F0A6CF08C0892B31F0EC
:10170000FD2DEC2D1486158616861786932F822FB5
:101710002430310539F4FD2DEC2D148615861686FE
:10172000178603C0232B09F07CC03B2D2A2D275F91
:101730003F4FFD2DEC2D84859585A685B7850097B7
:10174000A105B10509F45CC0E0917000F091710051
:101750004681578190E0752F642FB72FA62F8D916A
:101760006A2F7B2F803259F0853009F485EEF32FF4
:10177000E22F81932E2F3F2F9F5F983070F3F52F2C
:10178000E42F80858032D1F08EE2B32FA22F8D938B
:101790002A2F3B2F98E0752F642F685F7F4FF72F1C
:1017A000E62F81916E2F7F2F803241F0B32FA22F31
:1017B0008D932A2F3B2F9F5F9B3088F3F52FE42FCB
:1017C0008385FB2DEA2D8087F52FE42F848D958D61
:1017D000A68DB78DFB2DEA2D80839183A283B383E1
:1017E000F52FE42F808D918DFB2DEA2D9583848339
:1017F000F52FE42F86899789FB2DEA2D9783868321
:10180000B32FA22F1C929D2D8C2DDFD884309105F3
:1018100041F4FD2DEC2D148615861686178680E082
:1018200090E0EAE0AC962FC3C39AB1D20895EF924C
:10183000FF920F931F93CF93C82FE42EF52E062F00
:10184000172F87FF09C0CF7740E050E060E070E0DD
:1018500087E7EDDF823048F5C39AC39898D297D2D4
:101860008F3FE9F78C2F94D2812F9927AA27BB2786
:101870008FD2912F802FAA27BB278AD2BB27A12FD7
:10188000902F8F2D85D28E2D83D211E0C03411F48C
:1018900015E903C0C83409F417E8812F79D21AE09A
:1018A00076D287FF02C01150D9F79927CF911F91A7
:1018B0000F91FF90EF900895AF92BF92DF92EF9259
:1018C000FF920F931F93CF93DF93CDB7DEB725978A
:1018D0000FB6F894DEBF0FBECDBF56D294E69D83FF
:1018E00056D29D819150D9F7D92E40E050E060E06A
:1018F00070E080E49CDF182F813009F086C04AEA4E
:1019000051E060E070E088E492DF813009F053C07C
:10191000EE24FF2493E0AC2EBD2E0894A11CB11C34
:101920001F2D0E2D0A0D1B1D9D8331D2F12FE02F8F
:1019300080839D8191500894E11CF11C97FFEBCFAF
:101940008B81813009F061C08C818A3A09F05DC0D9
:1019500008EA11E602C0015010400115110541F0DE
:1019600040E050E060E070E489EE61DF882399F7A1
:10197000012B09F44AC040E050E060E070E08AE7E3
:1019800056DF882309F041C01B2D0A2D93E09D836B
:10199000FED1F12FE02F81930E2F1F2F9D819150AB
:1019A00097FFF5CF94E0898186FF03C06CE0D62EC7
:1019B0002CC0D92E2AC040E050E060E070E089EEF3
:1019C00036DF823028F452E0D52E49EEF42E03C0E3
:1019D000D12E31E4F32E08EA11E602C00150104086
:1019E0000115110541F040E050E060E070E08F2DFE
:1019F0001EDF882399F7012B39F040E052E060E0C8
:101A000070E080E514DF8111DD24D092B6000CDF98
:101A100080E090E0DD2011F481E090E025960FB6A3
:101A2000F894DEBF0FBECDBFDF91CF911F910F9114
:101A3000FF90EF90DF90BF90AF900895A0E0B0E0EE
:101A4000E3E2FDE005C2C82ED92EE22EF32EB12E20
:101A5000BB1CBB24BB1C1F770115110539F0932F4C
:101A6000822F800F911F8150924018F004E010E007
:101A700056C08091B60083FD07C0E9E0440F551FB2
:101A8000661F771FEA95D1F781E5D1DE882309F03B
:101A900040C0CAEFD0E07BD18F3F19F42197D9F72E
:101AA00038C08E3FB1F5CC27DD27CE19DF09C01B2A
:101AB000D10BCE5FDD4F0894E108F1088FEFE816F7
:101AC0008FEFF80649F063D10894E108F108EFEFD1
:101AD000EE16EFEFFE06B9F7BB2069F058D1EC2DFA
:101AE000FD2D099599270150104011F0892BB1F770
:101AF000C00FD11F0BC0FD2CEC2C49D1FF2DEE2DBA
:101B00008193EE2EFF2E01501040B9F740D121975E
:101B1000E9F78ADE0115110511F001E010E0912FBF
:101B2000802FE9E0CDB7DEB7AFC10FB680959AE060
:101B300077E8F89401C073E47A95F1F708F0BC985F
:101B400008F4BC9A86959A95B1F70FBE08950FB622
:101B500080E8F894B49BFECFB499FECF92E29A95B8
:101B6000F1F794E49A95F1F78695B4998068C8F7EF
:101B70000FBE08958A3019F48DE001D08AE0FF93FA
:101B8000EF93E0917200F09173000995EF91FF914E
:101B90000895FC018591803011F0ECDFFBCF0895B2
:101BA000FF27E0E230E247FF0CC0419597FF09C0F4
:101BB000EDE26095709580959095611D711D811D78
:101BC000911D27FF02C0219530E350E2AA27660F3E
:101BD000771F881F991FAA1FA41710F0A41B6395D5
:101BE0005A95A9F7AA3008F0A95FA05DAF93F395C5
:101BF000611571058105910541F7ED3211F4EF93FF
:101C0000F395F21718F43F93F395FBCF8F91B2DF62
:101C1000FA95E1F70895DF93CF93CDB7DEB7259618
:101C2000E991F9918591803021F0853229F0A2DF88
:101C3000F9CFCF91DF91089520E0E8945591553286
:101C4000B1F3503311F4689455915A3348F450531A
:101C500080F3220F022E220F220F200D250FF4CF2A
:101C60000EF4219589919991533609F3533729F14F
:101C7000533559F1BC0188279927E8945C3621F443
:101C80008991999168945591543639F446EF7EF0D4
:101C900077FF0DC08FEF9FEF0AC055374AE039F04C
:101CA000583540E121F0523642E009F0C2CFFF93AF
:101CB000EF9376DFEF91FF91B5CFFF93EF93FC01A8
:101CC00081918030B9F356DFFBCFFF93EF9361DF53
:101CD000F1CF0B01DC01ED91FD9122273327442741
:101CE0005527E8949AE001C0319660816032E1F3B3
:101CF000A8F16D3211F46894F7CF6A3378F5603348
:101D000068F171F498E031966081613248F1623691
:101D100011F492E003C0683719F490E131966081C4
:101D20006132F0F0613608F060526053B8F06A300A
:101D300018F067506A3090F0691780F481E2771BE1
:101D400008F4790F769557954795379527958A9595
:101D5000B9F7260F381F481F581FE0CF80E001C099
:101D600081E04EF466272095309540955095261FCA
:101D7000361F461F561FFE93EE93D0012D933D93C1
:101D80004D935D931124089588E18DB908958FEFE7
:101D90008FB984E086BB86BB86BB86BB86BB86BB11
:101DA00086BB86BB86BB86BB86BB86BB86BB86BB2B
:101DB00086BB86BB00008FB10895FF27EE27BB27A7
:101DC000AA2760FF04C0A20FB31FE41FF51F220F54
:101DD000331F441F551F969587957795679589F70B
:101DE0000097760771F79F2F8E2F7B2F6A2F08950C
:101DF000A1E21A2EAA1BBB1BEA2FFB2F0DC0AA1FA4
:101E0000BB1FEE1FFF1FA217B307E407F50720F063
:101E1000A21BB30BE40BF50B661F771F881F991FDE
:101E20001A9469F76095709580959095262F372FB5
:101E3000482F592F6A2F7B2F8E2F9F2F08952F9277
:101E40003F924F925F926F927F928F929F92AF924A
:101E5000BF92CF92DF92EF92FF920F931F93CF9397
:101E6000DF93CDB7DEB7CA1BDB0B0FB6F894DEBF2E
:101E70000FBECDBF09942A88398848885F846E8454
:101E80007D848C849B84AA84B984C884DF80EE809E
:101E9000FD800C811B81AA81B981CE0FD11D0FB6A7
:0E1EA000F894DEBF0FBECDBFCA2FDB2F089512
:101EAE00202B2C3B5B3D5D222A3A3C3E3F7C0000C2
:00000001FF
